:040000008A01222827
:020008007A2D4F
:100020000F39820730343134323433343434353498
:100030003634373438343934413442344334443438
:100040004534463483128501860187018801890180
:10005000831630308500FF308600FF308800D030B6
:10006000870007308900920183128501860187018C
:10007000AA01A701A501A301A401AF01B301D10108
:10008000D201D301D401D501BE01BD01D801E501E2
:10009000E601E701E801E9019E2431309400F830DF
:1000A0008F00CC308E000130900095010C3097000D
:1000B0009101053092002A08831699008C160C14C1
:1000C00020309800EF308100831281019030980039
:1000D00005110514851464000130A700071487106A
:1000E000B408031D77284030D000BF007A28443080
:1000F000D000BF0000305024A20001305024BE00C8
:1001000005305024E80006305024E9000730502420
:100110005C246806860007305024B10031035C245B
:100120006906880002305024B600831686008312C8
:1001300003305024B7008316880083120430502403
:10014000D3000608E0000808E1000108E2005808B2
:10015000E3001A080C108C10E0308B0064009E2421
:10016000051151080D3A03190829D3080319E52888
:100170005308013A031DDD2806086006031DCD283B
:1001800008086106031DCD2801086206031DD52855
:1001900058086306031DD528E5283E08AE0006086A
:1001A000E0000808E1004A21E5283E08AE00010809
:1001B000E2005808E3000422E52853085406031D12
:1001C000E5283E08AE00D401E828D2080319AE287D
:1001D00019305024FF390319EE284A211A305024CF
:1001E000FF390319F4280422103050240F39D900A4
:1001F000DA0159080319AE285A08113E5024B200FA
:100200008039BD000F30B205E221D903DA0AF9289E
:10021000D101B408031D2C29AD01AE014008D3243F
:10022000AD000310AD0DAD0DAD0DAD0D4108D324E6
:10023000AD0422082D06031921292D08FF3A031DBC
:10024000F42B4208D324AE000310AE0DAE0DAE0D5C
:10025000AE0D4308D324AE043F08E40056304406F4
:10026000031D402946306406031DEF2BF82356304A
:100270002C2432302C2433302C240D302C24F42B1D
:1002800049304406031D702946306406031DEF2BD8
:100290004A21F42BF82349302C2406086806F0394B
:1002A000B1000310B10CB10CB10C310C10202C2496
:1002B000060868060F3910202C2408086906F03952
:1002C000B1000310B10CB10CB10C310C10202C2476
:1002D000080869060F3910202C240D302C24080042
:1002E0004F304406031DC5294A306406031DEF2B19
:1002F0004508D324B1000310B10DB10DB10DB10DFE
:100300004608D3243104EA0007305024A8006A08C4
:10031000832428085C246A02031998290730502492
:10032000EB00EB03EB030730A8006B086824782987
:100330006A08680686004708D324B1000310B10D8F
:10034000B10DB10DB10D4808D3243104EA000730D6
:100350005024A800A8036A08832428085C246A02A1
:100360000319BC2907305024EB00EB03EB030730E3
:10037000A8006B08682478296A0869068800F823B1
:100380004F302C240D302C24F42B51304406031D07
:10039000D32947306406031DEF2BBD014508D32444
:1003A000B200E221F42B55304406031DFA294730F0
:1003B0006406031DEF2B0130BD004508D324B200B5
:1003C000E221F42BF8233324BD08031DE929513021
:1003D000EA2955302C24320810202C243A08102009
:1003E0002C243B0810202C243C0810202C240D30F9
:1003F0002C2408004E304406031D292A463064068A
:10040000031DEF2B0422F42BF8234E302C2401087B
:10041000D6005808D700F039B1000310B10CB10C68
:10042000B10C310C10202C2457080F3910202C242B
:100430005608F039B1000310B10CB10CB10C310CFD
:1004400010202C2456080F3910202C240D302C2479
:1004500008004D304406031D392A46306406031D4A
:10046000EF2B8101D801F8234D302C240D302C24A2
:10047000F42B54304406031D6D2A4A306406031DD4
:10048000EF2B4508D324B1000310B10DB10DB10D10
:10049000B10D4608D3243104B600831686008312BA
:1004A0004708D324B1000310B10DB10DB10DB10D4A
:1004B0004808D3243104B700831688008312023021
:1004C000A800360868240330A80037086824F823F9
:1004D00054302C240D302C24F42B47304406031DBB
:1004E000972A46306406031DEF2BF82347302C244F
:1004F0003608F039B1000310B10CB10CB10C310C5D
:1005000010202C2436080F3910202C243708F039FD
:10051000B1000310B10CB10CB10C310C10202C2423
:1005200037080F3910202C240D302C24F42B503098
:100530004406031DDA2A4B306406031DEF2B4508E1
:10054000D324B1000310B10DB10DB10DB10D4608AA
:10055000D3243104E7008316920083124708D32482
:100560000339B1000310B10DB10DB10DB10D480843
:10057000D324B1040310B10D310DE6004908D32492
:100580000C39B1000310B10C310C66049500E60083
:100590004908D3240339B100E5000310B10DB10DB2
:1005A000B10D310D0C389700F82350302C240D304C
:1005B0002C24F42B57304406031D0A2B4A306406C2
:1005C000031DEF2B4508D324B1000310B10DB10D6D
:1005D000B10DB10D4608D3243104A8004708D32437
:1005E000B1000310B10DB10DB10DB10D4808D32408
:1005F00031046824F82357302C240D302C24043087
:100600005024D300D40101305024BE0000305024C7
:10061000A200F42B52304406031D332B48306406ED
:10062000031DEF2B4508D324B1000310B10DB10D0C
:10063000B10DB10D4608D32431045024B100F82384
:1006400052302C243108F039A8000310A80CA80C53
:10065000A80C280C10202C2431080F3910202C2431
:100660000D302C24F42B4A304406031D422B463017
:100670006406031DEF2BB301F8234A302C240D3000
:100680002C24F42B53304406031D552B46306406AE
:10069000031DEF2BB4080319EF2B0130D200F82310
:1006A00053302C240D302C24F42B48304406031DE9
:1006B000672B46306406031DEF2BB4080319EF2B9C
:1006C000D201F82348302C240D302C24F42B59303F
:1006D0004406031D6D2B0000F42B4C304406031D13
:1006E0009B2B4A306406031DEF2B4508D324B10031
:1006F0000310B10DB10DB10DB10D4608D324310475
:10070000E8004708D324B1000310B10DB10DB10DBD
:10071000B10D4808D3243104E9000530A800680869
:1007200068240630A80069086824F8234C302C247B
:100730000D302C24F42B43304406031DC52B4630CA
:100740006406031DEF2BF82343302C246808F0398E
:10075000B1000310B10CB10CB10C310C10202C24E1
:1007600068080F3910202C246908F039B1000310F3
:10077000B10CB10CB10C310C10202C2469080F39CC
:1007800010202C240D302C24F42B5A304406031D49
:10079000D32B46306406031DEF2BF8235A302C244C
:1007A0000D302C24D22B4B304406031DEF2B46304A
:1007B0006406031DEF2BF8234B302C243308F0394B
:1007C000B1000310B10CB10CB10C310C10202C2471
:1007D00033080F3910202C240D302C24F42BF8234F
:1007E00058302C240D302C2405115008BF00AE28A1
:1007F000071087140130A700A501B408031D0800E5
:10080000AB08031D0C2CCC308E00F8308F00AF01EC
:100810002F08043A031D082C05152E08F039AC00EA
:100820000310AC0CAC0CAC0CAC0C2C0810202C2421
:100830002E080F3910202C242208F039AC000310A8
:10084000AC0CAC0CAC0CAC0C2C0810202C242208EA
:100850000F3910202C240800990083166400981C7E
:100860002E2C831208003130940005103208103805
:10087000CC24BD08031D3E2C60303F2CE030CC243E
:100880000F39BA00CC24B1000F39BC00F030B105EB
:100890000310B10CB10CB10C310CBB0005140800F5
:1008A000B1003030940085100330CC243108CC24C2
:1008B000FF30CC2485140800B1003030940085103E
:1008C0000B30CC243108CC24FF30CC248514080014
:1008D000B1003030940085100630CC24851400001F
:1008E00085100230CC242808CC243108CC2485146F
:1008F000000085100530CC24FF30CC24B100311825
:10090000792C85140800B100303094008510063031
:10091000CC248514000085100A30CC242808CC246F
:100920003108CC248514000085100530CC24FF301C
:10093000CC24B1003118942C851408000508203906
:10094000A9000310A90CA90C09080739A904290852
:100950000839AB0029080139B40029080639003AE2
:10096000031DB52C0B30AA00C72C29080639023A02
:10097000031DBD2C0530AA00C72C29080639043AEE
:10098000031DC52C0130AA00C72C0030AA002A087C
:10099000831699008312080093008316141CCE2C32
:1009A000831213080800AC00303A031900342C08F5
:1009B000313A031901342C08323A031902342C0855
:1009C000333A031903342C08343A031904342C083D
:1009D000353A031905342C08363A031906342C0825
:1009E000363A031906342C08373A031907342C0811
:1009F000383A031908342C08393A031909342C08F9
:100A0000413A03190A342C08613A03190A342C08B4
:100A1000423A03190B342C08623A03190B342C08A0
:100A2000433A03190C342C08633A03190C342C088C
:100A3000443A03190D342C08643A03190D342C0878
:100A4000453A03190E342C08653A03190E342C0864
:100A5000463A03190F342C08663A03190F34003450
:100A6000F8308F00BC308E000C10AF0AD50A550844
:100A7000643A031D3D2DD40AD501A30F562DA40AB7
:100A8000A70803194C2DA50A2508023A031D562D67
:100A900007108710A701562DA50A2508073A031D40
:100AA000562D071487100130A700A501080018195A
:100AB0005F2D98185C2D632D181200001816B30ACC
:100AC0001A08D10108001A08D1000A30510603198A
:100AD00008003F0884005108800007148710A50112
:100AE0000130A7003F083F0A4F39BF0008000B1133
:100AF000D80A0800A000030E8312A1000C183025AC
:100B00008C1A57250B197725210E8300A00E200E75
:100B100009006F0379306932682720343931373959
:100B2000312D393920386E096534722774292039FE
:0C0B30006E0974337532652D742E00338D
:02400E00C600EA
:00000001FF
