:1000000010308A0000280000FF00030E8301A100C9
:100010000A08A0008A010408A2007708A300780853
:10002000A4007908A5007A08A6007B08A70083131E
:1000300083120B1E1D288B183A288C308400001C5C
:1000400023280C183D288B1E27280B19402822082E
:1000500084002308F7002408F8002508F900260882
:10006000FA002708FB0020088A00210E8300FF0EFB
:100070007F0E09008A150A1200288A110A12632FBE
:100080008A110A12522F0A108A100A11820730347C
:10009000313432343334343435343634373438341C
:1000A00039344134423443344434453446340A10FC
:1000B0008A100A11820712340134103401340034DA
:1000C000003400340834EF34103403340034003486
:1000D000003401340234003401340A108A100A1149
:1000E0008207093402342E340034013401340034E0
:1000F0004034003409340434003400340434FF3410
:10010000FF34FF3400340734053481340234403482
:100110000034FF34073405340234023440340034F0
:10012000FF34073405348334023440340034FF3460
:10013000073405348434023440340034FF340A1068
:100140008A100A11820704340334093404340A1073
:100150008A100A11820736340334493400346E346D
:10016000003474340034653400346734003472343D
:100170000034693400347434003479340034203469
:100180000034493400346E34003473340034743431
:10019000003472340034753400346D340034653406
:1001A00000346E340034743400347334003420343A
:1001B0000034493400346E340034633400342E3457
:1001C00000340A108A100A11E83E03188A0A8200D5
:1001D0003234033455340034533400344234003460
:1001E0004D3400343334003430340034303400348F
:1001F0002034003444340034613400347434003426
:100200006134003420340034413400346334003429
:10021000713400347534003469340034733400347C
:100220006934003474340034693400346F34003479
:100230006E3400340A148A100A1182072E340334F3
:100240005334003474340034613400346E34003478
:100250006434003461340034723400346434003463
:1002600020340034433400346F3400346E340034AE
:100270006634003469340034673400347534003433
:10028000723400346134003474340034693400341E
:100290006F3400346E3400340A148A100A11820755
:1002A0002E34033455340034533400344234003493
:1002B0004D340034333400343034003430340034BE
:1002C00020340034493400346E3400347434003443
:1002D00065340034723400346634003461340034E0
:1002E0006334003465340034203400343134003455
:1002F0002E34003430340034303400340A148A1080
:100300000A11820756343134343400340A148A1006
:100310000A1182074F3400340A148A100A11820726
:10032000543400340A148A100A1182074D34003400
:100330000A148A100A1182074C3400340A148A10F5
:100340000A118207573400340A148A100A118207EE
:10035000523400340A148A100A11820753340034CC
:100360000A148A100A118207483400340A148A10C9
:100370000A11820758340034043092000230831688
:1003800092008312941233309400C030831694008C
:1003900083120034941232309400C03083169400DB
:1003A0008312003483163A0BE12983129412213010
:1003B000940000308316940001308312B200EF29BC
:1003C00083163A08023C031DEB298312BC2102303C
:1003D000B200EF2983168312CA210330B200003421
:1003E000320BF329F82901308316BA008312D22187
:1003F00005113F308316B60583121308831636089D
:100400008312930083161418072A8312022A831278
:1004100013089301831614180F2A83120A2A8312D1
:1004200013088316B7008312051583163708F800E2
:1004300083120034871407100034B4080319242AE7
:10044000B4015A30B5001A220034320B282A2D2A62
:1004500001308316BA008312D22105113F30831672
:10046000B805B8178312130883163808831293004F
:10047000831614183D2A8312382A83121308831610
:1004800039088312930083161418482A8312432ACA
:100490008312051500348316B40183126408831691
:1004A000B5003508803C0318572A0930B400831280
:1004B0006308F700F70803196E2A01307702031961
:1004C000722A023077020319952A03307702031942
:1004D000B82A043077020319632B692B6330831623
:1004E000B4006B2B8316B4013408073C031C942A18
:1004F0003508123C03187E2A0930B4005B303407FB
:100500008400350883125720F80080008316B50A4E
:100510008312E50B912A0430E3008316B40A942A6F
:1005200083128316B40A742A6B2B8316B401340821
:10053000073C031CB72A35082E3C0318A12A0930B2
:10054000B4005B3034078400350883126D20F80056
:1005500080008316B50A8312E50BB42A0430E30049
:100560008316B40AB72A83128316B40A972A6B2B10
:100570006608F700F7080319CE2A0130770203193D
:10058000EB2A023077020319082B03307702031994
:10059000252B043077020319422B602B8316B401FC
:1005A0003408073C031CEA2A5B3034078400350812
:1005B00083129F20F80080008316B50A8312E50B92
:1005C000E72A0430E3008316B40AEA2A831283166A
:1005D000B40AD02A622B8316B4013408073C031CEA
:1005E000072B5B303407840035088312A720F800FE
:1005F00080008316B50A8312E50B042B0430E30058
:100600008316B40A072B83128316B40AED2A622BD1
:100610008316B4013408073C031C242B5B303407D9
:10062000840035088312E120F80080008316B50AA3
:100630008312E50B212B0430E3008316B40A242B2C
:1006400083128316B40A0A2B622B8316B401340872
:10065000073C031C412B5B303407840035088312B0
:100660001A21F80080008316B50A8312E50B3E2B91
:100670000430E3008316B40A412B83128316B40AB4
:10068000272B622B8316B4013408073C031C5E2B16
:100690005B3034078400350883124C21F800800059
:1006A0008316B50A8312E50B5B2B0430E300831637
:1006B000B40A5E2B83128316B40A442B622B831276
:1006C0008316622B6B2B8316B5013508B4006B2B98
:1006D000831283166B2B34088312E4078316B5014B
:1006E000340835020318822B5B303507840000087C
:1006F000B7002130B8003708B900831225228316CD
:10070000B50A702B8312003453086039003A031D78
:10071000B62E5408F700013077020319A72B0830D2
:1007200077020319562C063077020319602CF7085C
:100730000319C82C0530770203198A2D0930770276
:1007400003198E2D033077020319102EB02E0130BD
:100750008316B100831253080339F700F708031911
:10076000BA2B013077020319BB2B02307702031931
:10077000BC2B542C552C552C57080F39F700F70873
:100780000319DB2B013077020319EC2B02307702BF
:100790000319FD2B0330770203190E2C0430770266
:1007A00003191F2C053077020319302C063077020D
:1007B0000319412C522C20308316B6008312F021ED
:1007C00078087F398316B3002030B8003308B900A9
:1007D000831225227310532C28308316B6008312FF
:1007E000F02178087F398316B3002830B800330829
:1007F000B90083122522F310532C2C308316B60037
:100800008312F02178087F398316B3002C30B800AA
:100810003308B900831225227311532C303083160C
:10082000B6008312F02178087F398316B300303088
:10083000B8003308B90083122522F311532C343049
:100840008316B6008312F02178087F398316B3002F
:100850003430B8003308B900831225227312532CA8
:1008600038308316B6008312F02178087F3983165A
:10087000B3003830B8003308B90083122522F312D0
:10088000532C3C308316B6008312F02178087F3950
:100890008316B3003C30B8003308B9008312252218
:1008A0007313532C532C552C552CB52E0230831614
:1008B000B1002130B8007408B90083122522B52E8A
:1008C00053308316B2008312E401033083163207DB
:1008D000840000088312E30002308316320784008C
:1008E00000088312E6006308F70001306302031971
:1008F000822C023077020319852C0330770203190A
:10090000882CAF2C1230E500B42C2E30E500B42C2E
:100910006608F700F70803199E2C013077020319C7
:10092000A12C023077020319A42C0330770203199B
:10093000A72C043077020319AA2CAD2C0430E50053
:10094000AE2C3630E500AE2C3230E500AE2C2E3029
:10095000E500AE2C2E30E500AE2CC72CB42C0930AF
:100960008316B3008312C72C063083163207840027
:100970000008831265020319C62C031CC62C06301E
:1009800083163207840000088312E5004B22B52E3F
:1009900053080339F700F7080319D72C0130770201
:1009A0000319DE2C023077020319E52C7D2D21304E
:1009B0008316B800B90183122522832D21308316B6
:1009C000B800B90183122522832D57080F39F7008B
:1009D000F7080319042D013077020319152D023091
:1009E00077020319262D033077020319372D0430BF
:1009F00077020319482D053077020319592D063067
:100A0000770203196A2D7B2D731C0E2D213083165E
:100A1000B8000130B90083122522142D213083162D
:100A2000B800B901831225227C2DF31C1F2D213023
:100A30008316B8000130B90083122522252D2130FC
:100A40008316B800B901831225227C2D731D302D29
:100A500021308316B8000130B90083122522362DCB
:100A600021308316B800B901831225227C2DF31D95
:100A7000412D21308316B8000130B90083122522A0
:100A8000472D21308316B800B901831225227C2D11
:100A9000731E522D21308316B8000130B900831225
:100AA0002522582D21308316B800B9018312252242
:100AB0007C2DF31E632D21308316B8000130B90060
:100AC00083122522692D21308316B800B9018312C3
:100AD00025227C2D731F742D21308316B800013020
:100AE000B900831225227A2D21308316B800B9016E
:100AF000831225227C2D7C2D832D21308316B80076
:100B0000B9018312252221308316B800B90183125E
:100B10002522B52E55088038F200B52E03308316F5
:100B2000B10083125508F400D5080319EB2D0130EC
:100B30008316B2003208043C031CAB2D0310320DA7
:100B4000673E840080010310320D013E673E840041
:100B50008001B20A9A2DF3012B30B8000830B90099
:100B60008312252228308316B8001130B900831271
:100B700025222F308316B8000830B90083122522B1
:100B80002C308316B8001230B900831225222F3082
:100B90008316B8000130B900831225223330831642
:100BA000B8000830B9008312252230308316B8000F
:100BB0001330B900831225223B308316B800083069
:100BC000B9008312252238308316B8001430B900DA
:100BD000831225220F2E28308316B800B901831204
:100BE00025222C308316B800B9018312252230301B
:100BF0008316B800B9018312252234308316B80059
:100C0000B9018312252238308316B800B901831246
:100C100025223C308316B800B90183122522B52E57
:100C200004308316B100831253080339F700F70824
:100C30000319232E013077020319242E0230770284
:100C40000319252EAE2EAF2EAF2E57080F39F70001
:100C5000F7080319442E013077020319462E02309B
:100C600077020319572E033077020319682E0430D8
:100C700077020319792E0530770203198A2E063080
:100C8000770203199B2EAC2E7314AD2E28308316D9
:100C9000B6008312F021780880388316B30028301C
:100CA000B8003308B90083122522F314AD2E2C307E
:100CB0008316B6008312F021780880388316B300BB
:100CC0002C30B8003308B900831225227315AD2EDD
:100CD00030308316B6008312F021780880388316EE
:100CE000B3003030B8003308B90083122522F31561
:100CF000AD2E34308316B6008312F0217808803888
:100D00008316B3003430B8003308B90083122522AB
:100D10007316AD2E38308316B6008312F021780892
:100D200080388316B3003830B8003308B900831216
:100D30002522F316AD2E3C308316B6008312F02127
:100D4000780880388316B3003C30B8003308B90007
:100D5000831225227317AD2EAD2EAF2EAF2EB52EDA
:100D600005308316B1008312B52EBA2E09308316D2
:100D7000B10083120130E700670D8316B100B10D99
:100D8000FC30B10531080138B2002330B800320818
:100D9000B900831225220130E7068A150A1292282B
:100DA000071487100034AC30840000080319E52EC6
:100DB0000630F800F701F70BDB2EF80BDA2E7B304C
:100DC000F700F70BE12E800BD82E00348316AC0110
:100DD0002C08043C031C032F03102C0D013E673E1E
:100DE00084008001AC08031DFC2E03102C0D673E0F
:100DF000840001308000012F03102C0D673E840019
:100E00008001AC0AE82E8312003420308316B8002B
:100E1000B9018312252204308316B800B901831268
:100E2000252223308316B8000830B900831225220A
:100E30002B308316B8000830B900831225223330D6
:100E40008316B8000830B900831225223B30831680
:100E5000B8000830B9008312252227308316B80065
:100E60000830B900831225222F308316B8000830CD
:100E7000B9008312252237308316B8000830B90034
:100E8000831225223F308316B8000830B900831240
:100E90002522E62627308316B8000130B9008312D8
:100EA000252200340130BD07003003180130BE0791
:100EB000003003180130BF070B118A110A122728CE
:100EC0008710071000343C308F00B0308E00B50A18
:100ED0003508633C031C772F351C752FB4080319A4
:100EE000732FD026742F1A22762F60278A2F60271F
:100EF000B4080319832F3508C83C0318822FB501A5
:100F00000130B4008A2F35086E3C03188A2FB501D2
:100F10000130B4000C108A110A1227283208023C52
:100F200003199D2FA8018B1BA8178B130230831662
:100F3000BA008312D221A81B8B1785101308033027
:100F4000930083161418A62F8312A12F831213085F
:100F5000831625088312930083161418B12F831269
:100F6000AC2F83121308930183161418B92F831220
:100F7000B42F831213088316A600831285148316D8
:100F80002608F8008312003408308316A500831267
:100F90008E2778088316A200A2080319D32F831284
:100FA0002914D52F8316831229100D308316A5001E
:100FB00083128E2778088316A200A2080319E42F53
:100FC0008312A914E62F83168312A9108316A20197
:100FD0002208073C031CFC2F2A302207A3001130F3
:100FE0002207A400A50083128E27831623088400FD
:0C0FF00078088000A20AE82F8312003469
:101000008B1006308316B6008A118312F0218A15E0
:1010100078088316A800281F45298A1183121D22EB
:101020008A1501308316B0000C30B6008A11831285
:10103000F0218A1578088316AE00AF00AE080319B8
:1010400044292E083005F700013077028312031976
:101050004228023077020319AE28043077020319C0
:101060003B290830770203193B2910307702031916
:101070003B292030770203193B29403077020319BE
:101080003B293B290830F800533084008001840A52
:10109000F80B462826308316B6008A118312F021F9
:1010A0008A1578088316AA000F39AB002A1F9528E5
:1010B0002A1E6028AB08031D60280130AC003E29C1
:1010C00001308312E70083162B08083C03186A28B6
:1010D0000830AB00AC012B082C0203187F285330DA
:1010E0002C07B1002530B6008A118312F0218A1531
:1010F00083163108840078088000AC0A6B282330FE
:10110000B8000830B9008A11831225228A152730C9
:101110008316B8000830B9008A11831225228A1577
:101120008A11842B8A15AC2883168312E3080319CD
:10113000A328E30123308316B8000830B9008A11D0
:10114000831225228A1527308316B8000130B90092
:101150008A11831225228A1583163E2908308316A8
:10116000AC002E30B6008A118312F0218A1578085F
:101170008316B300B31FCF282F30B8000830B90052
:101180008A11831225228A152F308316B800013068
:10119000B9008A11831225228A153929831633084A
:1011A0000F39B200331E2829B208031928298312E7
:1011B0006F0E8316B400B40DE030B4053308203947
:1011C0003402031DE82801308312EF06FA28831643
:1011D0002F30B8000830B9008A11831225228A15F1
:1011E0002F308316B8000130B9008A1183122522EE
:1011F0008A1539298316B1013208310203181E29D4
:101200003208073C03180E292D30B6008A118312CC
:10121000F0218A1578088316B3001C294030310765
:10122000B5002D30B6008A118312F0218A1583167D
:101230003508840078088000B10AFC282F30B800F7
:101240000830B9008A11831225228A15392983169C
:101250002F30B8000830B9008A11831225228A1570
:101260002F308316B8000130B9008A11831225226D
:101270008A1583163E2909308316AC003008FF3AE0
:10128000AE050310B00D1E281D2B281D452A8A11FE
:1012900083121D228A1501308316AE000A30B60073
:1012A0008A118312F0218A1578088316AC00AC08E5
:1012B0000319442A2C082E05F70001307702831207
:1012C00003197F29023077020319DC2904307702E1
:1012D0000319FC290830770203191C2A1030770201
:1012E00003193C2A2030770203193C2A4030770248
:1012F00003193C2A8030770203193C2A3C2A223009
:101300008316B6008A118312F0218A157808831695
:10131000AB00AB1ED8292330B8000830B9008A11C1
:10132000831225228A1583162B1FCB298312E308EB
:101330000319B3298A114B228A15670D8316AD0054
:10134000AD0DFC30AD0501308312E70683162D0884
:101350000138AF002330B8002F08B9008A1183127A
:1013600025228A15C929F2080319C02904308316D9
:10137000B8007208B9008A11831225228A15F20179
:1013800027308316B8000130B9008A118312252254
:101390008A15D62983168312E30127308316B800F5
:1013A0000130B9008A11831225228A15DB298316A0
:1013B0000930AD0083123D2A2A308316B6008A1107
:1013C0008312F0218A1578088316AF002B30B800FD
:1013D0000830B9008A11831225228A1583162F1F1F
:1013E000F929AF1EF92901308312E906EA01FB2928
:1013F00083168312EA013D2A32308316B6008A1121
:101400008312F0218A1578088316AF003330B800B4
:101410000830B9008A11831225228A1583162F1FDE
:10142000192AAF1E192A01308312EB06EC011B2A80
:1014300083168312EC013D2A3A308316B6008A11D6
:101440008312F0218A1578088316AF003B30B8006C
:101450000830B9008A11831225228A1583162F1F9E
:10146000392AAF1E392A01308312ED06EE013B2ADC
:1014700083168312EE013D2A3D2A83162E08FF3A79
:10148000AC050310AE0D57291D2BA81CF02A8A119C
:101490008312D0268A1508308316B6008A1183126B
:1014A000F0218A1578088316AA007108AA052A1F58
:1014B000B42A2030B6008A118312F0218A157808E8
:1014C0007F398316AD002030B8002D08B9008A118D
:1014D000831225228A1505308316B800B9018A11B6
:1014E000831225228A1501308316AC008A118312DB
:1014F000D3268A1504308316B8008030B9008A11CB
:10150000831225228A1520308316B800B9018A116A
:10151000831225228A158A1105278A15E3010530D1
:101520008316B8000230B9008A11831225228A1569
:1015300004308316B8008030B9008A118312252246
:101540008A1520308316B800B9018A11831225222A
:101550008A1527308316B8000130B9008A1183122A
:1015600025228A15EE2A83162A1ECB2AC030F100C6
:101570000930B8007108B9008A11831225228A1532
:1015800005308316B8000330B9008A118312252272
:101590008A15EE2A8316AA1FEB2A5030F100093073
:1015A000B8007108B9008A11831225228A15053006
:1015B0008316B8000230B9008A11831225228A15D9
:1015C00027308316B8000130B9008A118312252212
:1015D0008A15EE2A83166330AB00831283161D2B07
:1015E000281E172B0E30B6008A118312F0218A159F
:1015F000781E112BE3080319102BE3012330831607
:10160000B8000830B9008A11831225228A152730C4
:101610008316B8000130B9008A11831225228A1579
:10162000152B09308316A900831283161D2B281C45
:10163000192BA81D1B2BA81E1D2BA8080319222B34
:10164000831201288A110A12831227283208023CC9
:101650000319372BA8018B1BA8178B130230831695
:10166000BA008A118312D2218A15A81B8B17851004
:1016700013080630930083161418402B83123B2B5B
:10168000831285140000000000008510130802304A
:101690009300831614184E2B8312492B83121308C0
:1016A000831624088312930083161418592B83126F
:1016B000542B831213088316250883129300831674
:1016C0001418642B83125F2B831285140000000012
:1016D0000000851013080530930083161418722B30
:1016E00083126D2B831213089301831614187A2B1F
:1016F0008312752B831213088316A6008312851498
:101700008316261C852B8312662B83120034291C1A
:101710008D2BFF308316A20683128316221C942B76
:1017200083120914962B8316831209108316221034
:101730002208831286000034291CA22BFF30831656
:10174000A20683128316220883128800003432080E
:10175000023C0319B82BA8018B1BA8178B1302306E
:101760008316BA008A118312D2218A15A81B8B17FF
:1017700085123808F0398316A300831239080F390F
:101780008316A400240CFA00230CF900FA0CF90CBF
:10179000FA0CF90CFA0CF90C7908A2008312130860
:1017A000831622088312930083161418D92B8312F0
:1017B000D42B831238080F398316A30083123908FB
:1017C00000398316A400230DF900240DFA00F90D49
:1017D000FA0DF90DFA0DF90DFA0DF030F905790849
:1017E000A20083123A0800398316A30083123B0833
:1017F0000F398316A400FA01A2048312130883167A
:1018000022088312930083161418082C8312032CC9
:1018100083123A088316A200831213088316220843
:101820008312930083161418172C8312122C831220
:1018300085160034A91C2E2C3208033C03192D2CCC
:10184000A8018B1BA8178B1303308316BA008A11CB
:101850008312D2218A15A81B8B173F2C3208023C19
:1018600003193F2CA8018B1BA8178B13023083167A
:10187000BA008A118312D2218A15A81B8B17051072
:10188000831622080F39A600261683121308831622
:1018900026088312930083161418502C83124B2CA5
:1018A000A3080319612C83121308E03093008316F8
:1018B00014185C2C8312572C831213088316A6006D
:1018C0006E2C8312130860309300831614186A2C50
:1018D0008312652C831213088316A60026080F397D
:1018E000A400A5012408A500A401831213089301F4
:1018F000831614187D2C8312782C831213088316F8
:10190000A6002608A4048312051483162408F800F0
:101910002508F9008312003408088316A2008312F8
:10192000291C962CFF308316A206831283162208E8
:10193000F8008312003406088316A20083120608FA
:10194000FE398316A200831209088316A300230818
:10195000A2048312291CB02CFF308316A206831226
:1019600083162208F8008312003483162208A3008D
:101970002308840080080319BF2CA30AB82C22086E
:101980002302F8008312003483162308A5002208DE
:10199000A400F030A405A40E0F30A405250884008F
:1019A00024088A11831243208A15F80080008316C8
:1019B0002208A4000F30A405A50A250884002408E5
:1019C0008A11831243208A15F800800000348316A0
:1019D0002208A500A40124080F3C031C032D2408A1
:1019E0008A11831243208A158316A60025088400D5
:1019F00000082602031D012D240EA300F030A305CC
:101A0000032DA40AEB2CA50AA40124080F3C031CF7
:101A10001B2D24088A11831243208A158316A600E1
:101A20002508840000082602031D192D2408A30799
:101A30001B2DA40A052D2308F80083120034360854
:101A4000F8008A110A16D22C3708F8008A110A16F3
:021A5000E42C84
:1020000084011F30830581308316990026309800A3
:10201000903083129800A901B201B3010130B400DD
:10202000B501B601B701B801B901BA01BB01BC01E4
:10203000BD01BE01BF01D201F201103065000514DF
:102040008514051585158516FF30660083168800F2
:10205000D03067000914891409150A128312C427A5
:102060000A1602308316A5000A1283128E270A165A
:102070007808F50075088316A20022088312B600BE
:1020800002308316A400831236088316A5000A12B4
:102090008A15831226230A168A11360801388316F8
:1020A000A30066008312360801398316A3000630A8
:1020B000A3040908F839F7002308073977048900D1
:1020C0000330A5000A1283128E270A167808F5003D
:1020D00075088316A20022088312B7000330831606
:1020E000A400831237088316A5000A128A158312EA
:1020F00026230A168A113708831688000630A500A1
:102100000A1283128E270A167808F50075088316BE
:10211000A2000A128A15831287230A168A11073031
:102120008316A5000A1283128E270A167808F50076
:1021300075088316A2000A128A1583129C230A16B8
:102140008A1109308316A5000A1283128E270A16F7
:102150007808F5008316A1017508A0002008A100E9
:10216000A0010A30A5000A1283128E270A167808E9
:10217000F50075088316A00421088312B9008316A0
:1021800020088312B8000B308316A5000A128312B0
:102190008E270A167808F5008316A1017508A0009D
:1021A0002008A100A0010C30A5000A1283128E277E
:1021B0000A167808F50075088316A0042108831212
:1021C000BB00831620088312BA000A128A15A723BF
:1021D0000A168A11F5017508073C031CF5284030E2
:1021E000750784008001F50AEB28A8018B1BA8174E
:1021F0008B1303308316B6000A128312F0210A16DD
:10220000A81B8B1778087808F5007508023C03199D
:102210000D290A121A220A160929F401A8018B1B9A
:10222000A8178B138316B8010130B9000A12831264
:1022300025220A16A81B8B17A8018B1BA8178B1326
:102240008316B6010A128312F0210A16A81B8B17F7
:1022500078181C29A8018B1BA8178B130130831633
:10226000B8008030B9000A12831225220A16A81B72
:102270008B17A8018B1BA8178B138316B801C430CA
:10228000B9000A12831225220A16A81B8B17A8016F
:102290008B1BA8178B1307308316B800B9010A12DD
:1022A000831225220A16A81B8B17A8018B1BA817BF
:1022B0008B130F308316B8001030B9000A12831246
:1022C00025220A16A81B8B17A8018B1BA8178B1396
:1022D0000B308316B8000F30B9000A128312252282
:1022E0000A16A81B8B17A8018B1BA8178B130D3080
:1022F0008316B8000330B9000A12831225220A1689
:10230000A81B8B175030F100A8018B1BA8178B134B
:1023100009308316B8007108B9000A128312252209
:102320000A16A81B8B17A8018B1BA8178B13073045
:102330008316B800D630B9000A12831225220A1675
:10234000A81B8B17A8018B1BA8178B131B30831698
:10235000B8000C30B9000A12831225220A16A81BF5
:102360008B17A8018B1BA8178B131F308316B8007F
:102370004030B9000A12831225220A16A81B8B17B7
:10238000A8018B1BA8178B130A1205270A16A81B76
:102390008B178316011383120B16C0308B04A80110
:1023A0008B1BA8178B1305308316AC000A128312FF
:1023B000D3260A16A81B8B17A8018B1BA8178B13F3
:1023C00004308316B8008030B9000A128312252227
:1023D0000A16A81B8B17A8018B1BA8178B1320307C
:1023E0008316B800B9010A12831225220A16A81B07
:1023F0008B17A8018B1BA8178B1305308316B80009
:102400000230B9000A12831225220A16A81B8B1764
:10241000A8018B1BA8178B1327308316B800013037
:10242000B9000A12831225220A16A81B8B17A801CD
:102430008B1BA8178B138316B6010A128312F02187
:102440000A16A81B8B17780808388316A400831275
:10245000A8018B1BA8178B138316B8012408B90099
:102460000A12831225220A16A81B8B1781018316D4
:102470000108C0393838810083128B1685309000EE
:1024800083160C14C03083128B04C008031D802BEC
:10249000B30803197F2BEC08031D7F2BFC017C087C
:1024A000023C031CB72AF6017608073C031CB52A38
:1024B0000B138B138B1B592A2A30760784000008D4
:1024C000FD00FD1F772A0F30FD057D088316A20051
:1024D0000130A3000A128A1583121A240A168A11DF
:1024E00079088316A1007808A000882A83120F308B
:1024F000FD057D088316A200A3010A128A15831226
:102500001A240A168A1179088316A1007808A000F7
:102510002008F5008312A8018B1BA8178B133130FC
:102520008316B8007508B9000A12831225220A160C
:10253000A81B8B17831620080039A2002108A300CE
:10254000F5008312A8018B1BA8178B13313083165B
:10255000B8007508B9000A12831225220A16A81BB2
:102560008B17C0308B04F60A542AFC0A4F2A0A1231
:102570008A158C240A168A117808F500A8018B1B8D
:10258000A8178B1331308316B8007508B9000A12EA
:10259000831225220A16A81B8B170A128A159B2460
:1025A0000A168A117808F500A8018B1BA8178B134F
:1025B00031308316B8007508B9000A12831225223B
:1025C0000A16A81B8B173C08F6000108F5007608D0
:1025D000F507A8018B1BA8178B1331308316B800A1
:1025E0007508B9000A12831225220A16A81B8B1738
:1025F0003C0800398316A20083123D088316A3000D
:1026000083123E0800398316A40083123F08003964
:102610008316A5002308F5008312A8018B1BA817B9
:102620008B1331308316B8007508B9000A12831273
:1026300025220A16A81B8B173C0800398316A20016
:1026400083123D0800398316A30083123E088316C7
:10265000A40083123F0800398316A5002408F50062
:102660008312A8018B1BA8178B1331308316B80077
:102670007508B9000A12831225220A16A81B8B17A7
:102680003C0800398316A20083123D0800398316E6
:10269000A30083123E0800398316A40083123F086A
:1026A0008316A500F5008312A8018B1BA8178B13B6
:1026B00031308316B8007508B9000A12831225223A
:1026C0000A16A81B8B170230EC006B0DF500F50DF8
:1026D000FC30F505750803388316A2008312A801A3
:1026E0008B1BA8178B1333308316B8002208B90050
:1026F0000A12831225220A16A81B8B17452A452A7F
:10270000A8018B1BA8178B132B308316B800083039
:10271000B9000A12831225220A16A81B8B17403013
:102720008316A2000A128A158312B5240A168A118A
:102730007808F5004008F700563077020319D52BCA
:10274000493077020319EF2B4F30770203191B2C06
:102750005430770203195E2C473077020319C92CD5
:102760004E3077020319F52C4D3077020319672D8F
:10277000513077020319862D553077020319D02D79
:102780004C30770203191B2E5730770203197C2E29
:10279000523077020319BB2E533077020319F62EFD
:1027A000483077020319122F2D2F750BD82BD92BF8
:1027B0002D2F8316A201A30148308400220884072C
:1027C00023080A1283127E210A168000003803199A
:1027D000EE2B8316A30AA20ADC2B8312432F750B60
:1027E000F22BF32B2D2F4930C8000A128A159B2497
:1027F0000A168A117808F50075088316A200493078
:10280000A3000A128A158312C4240A168A110A1216
:102810008A158C240A168A117808F6007608831621
:10282000A2004B30A3000A128A158312C4240A1690
:102830008A11CD01432F7508053C0319202C2D2F3B
:1028400041308316A2000A128A158312E7240A1661
:102850008A117808F50075088316A2000A128A15F5
:10286000831287230A168A1143308316A2000A12A4
:102870008A158312E7240A168A117808F60076086A
:102880008316A2000A128A1583129C230A168A1143
:102890008316A201A301483084002208840723087C
:1028A0000A12831286210A168000003803195D2C53
:1028B0008316A30AA20A4B2C8312432F7508053CEA
:1028C0000319632C2D2F41308316A2000A128A159A
:1028D0008312E7240A168A117808F5007508831612
:1028E000A20022088312B60002308316A4008312CD
:1028F00036088316A5000A128A15831226230A16A3
:102900008A11360801388316A30066008312360840
:1029100001398316A3000630A3040908F839F7002B
:1029200023080739770489004330A2000A128A1568
:102930008312E7240A168A117808F60076088316AF
:10294000A20022088312B70003308316A40083126A
:1029500037088316A5000A128A15831226230A1641
:102960008A11370883168800A201A3014830840029
:102970002208840723080A1283128C210A16800079
:1029800000380319C82C8316A30AA20AB62C831296
:10299000432F750BCC2CCD2C2D2F4730C8000A129D
:1029A0008A151F2D0A168A117808F50075088316F6
:1029B000A2004930A3000A128A158312C4240A1601
:1029C0008A110A128A15242D0A168A117808F6002F
:1029D00076088316A2004B30A3000A128A158312D0
:1029E000C4240A168A11CD01432F750BF82CF92C3B
:1029F0002D2F4E30C8003C0800398316A2008312E8
:102A00003D0800398316A30083123E08003983165F
:102A1000A40083123F088316A500F5007508A200E4
:102A20004930A3000A128A158312C4240A168A1197
:102A30003C0800398316A20083123D080039831632
:102A4000A30083123E088316A40083123F080039B6
:102A50008316A5002408F5007508A2004B30A300DA
:102A60000A128A158312C4240A168A113C080039F6
:102A70008316A20083123D088316A30083123E082A
:102A800000398316A40083123F0800398316A5007D
:102A90002308F5007508A2004D30A3000A128A151C
:102AA0008312C4240A168A113C08F6000108F500B6
:102AB0007608F50775088316A2004F30A3000A12A6
:102AC0008A158312C4240A168A11D101432F750B6B
:102AD0006A2D6B2D2D2F8101BF01BE01BD01BC01EF
:102AE0008316A201A301483084002208840723082A
:102AF0000A12831292210A16800000380319852DCC
:102B00008316A30AA20A732D8312432F7508023C71
:102B100003198B2D2D2F3030C00040308316A200BA
:102B20000A128A158312E7240A168A117808F5001A
:102B300075088316A200A3010A128A1583121A24AB
:102B40000A168A1179088316A1007808A00051306E
:102B50008312C800831620080039A2002108A300B0
:102B6000F600750EF700F030F7057708F6047608E2
:102B7000A2004930A3000A128A158312C4240A163F
:102B80008A1183162008F6007608A2004B30A300B5
:102B90000A128A158312C4240A168A11CD01432F02
:102BA0007508023C0319D52D2D2F3030C000403060
:102BB0008316A2000A128A158312E7240A168A11C4
:102BC0007808F50075088316A2000130A3000A12E8
:102BD0008A1583121A240A168A1179088316A1000D
:102BE0007808A00055308312C800831620080039E9
:102BF000A2002108A300F600750EF700F030F705DB
:102C00007708F6047608A2004930A3000A128A1554
:102C10008312C4240A168A1183162008F600760847
:102C2000A2004B30A3000A128A158312C4240A168C
:102C30008A11CD01432F7508053C0319202E2D2F35
:102C40003030C00040308316A2000A128A15831269
:102C5000E7240A168A117808F5003030C1004130A7
:102C60008316A2000A128A158312E7240A168A1113
:102C70007808F6008316A1017608A0002008A100BC
:102C8000A0014330A2000A128A158312E7240A1613
:102C90008A117808F60076088316A004F508031D4B
:102CA0005A2E21088312B900831620088312B80017
:102CB000612E831621088312BB008316200883121D
:102CC000BA000A128A15A7230A168A118316A201CE
:102CD000A301483084002208840723080A128312C3
:102CE00098210A168000003803197B2E8316A30A48
:102CF000A20A692E8312432F7508053C0319812E01
:102D00002D2F41308316A2000A128A158312E72460
:102D10000A168A117808F50043308316A2000A12B9
:102D20008A158312E7240A168A117808F6007508B6
:102D30008316A4007608A5000A128A15831226239A
:102D40000A168A110A12C4270A168316A201A301C1
:102D5000483084002208840723080A1283129E2127
:102D60000A16800000380319BA2E8316A30AA20A95
:102D7000A82E8312432F7508033C0319C02E2D2F54
:102D800041308316A2000A128A158312E7240A161C
:102D90008A117808F50075088316A5000A128312B7
:102DA0008E270A167808F6008316A201A301483080
:102DB00084002208840723080A128312A4210A1619
:102DC000800000380319E92E8316A30AA20AD72E21
:102DD000831276088316A2004930A3000A128A15CE
:102DE0008312C4240A168A11CB01432F750BF92EC6
:102DF000FA2E2D2F0130B3008316A201A301483013
:102E000084002208840723080A128312AA210A16C2
:102E1000800000380319112F8316A30AA20AFF2E7F
:102E20008312432F750B152F162F2D2FB3018316E9
:102E3000A201A301483084002208840723080A1253
:102E40008312B0210A168000003803192C2F831634
:102E5000A30AA20A1A2F8312432F8316A201A301E9
:102E6000483084002208840723080A128312B621FE
:102E70000A16800000380319422F8316A30AA20AFB
:102E8000302F8312432FF5017508073C031C4E2F8A
:102E90004030750784008001F50A442F48308316BE
:102EA000A2000A128A158312B5240A168A1178081C
:102EB000F600F501760875020318762F483075077D
:102EC000840000088316A2008312A8018B1BA81798
:102ED0008B1329308316B8002208B9000A12831216
:102EE00025220A16A81B8B17F50A5A2F690DF50023
:102EF000F50DFC30F505750803388316A200831222
:102F0000A8018B1BA8178B132B308316B80022083F
:102F1000B9000A12831225220A16A81B8B17A801D2
:102F20008B1BA8178B132F308316B8000830B900FD
:102F30000A12831225220A16A81B8B17A8018B1BC5
:102F4000A8178B132F308316B8000130B9000A126E
:0E2F5000831225220A16A81B8B17452A630040
:02400E00C200EE
:00000001FF
;PIC16C67
