:020000040000FA
:04000000E3EF04F036
:08000800056ED8CF06F0E0CF31
:1000100007F00001E9CF0DF0EACF08F0E1CF09F0D9
:10002000E2CF0AF0D9CF0BF0DACF0CF0F3CF14F017
:10003000F4CF15F0FACF16F000C00FF001C010F0A9
:1000400002C011F003C012F004C013F0F2AA2CEFAA
:1000500000F0F2B481EF00F09DA032EF00F09EB00E
:1000600092EF00F09DAA38EF00F09EBAD2EF00F0B8
:100070000FC000F010C001F011C002F012C003F078
:1000800013C004F00E8E0DC0E9FF08C0EAFF09C0DE
:10009000E1FF0AC0E2FF0BC0D9FF0CC0DAFF14C0B9
:1000A000F3FF15C0F4FF16C0FAFF055007C0E0FFCC
:1000B00006C0D8FF1000F2CF0EF0F29EF76AD00F04
:1000C000F66E000EF7220900F5500EBEF28E1200F9
:1000D0000D496E7465677269747920496E73747224
:1000E000756D656E74732C20496E632E204D6F64A0
:1000F000656C203233324D3130302076342E310D64
:100100000000010E3626000E37223822F29438EF16
:1001100000F08B808B92000C8B828B90000C8B926A
:100120008B90000CF00ECF6E600ECE6E04001D2A78
:10013000D8B41E2A312AD8B4322A3250030813E325
:1001400003E13150E7080FE33150010B006E036A01
:100150000050031006E0305202E0DBDF01D0DCDFAC
:1001600001D0DDDF1CD0DBDF30520DE0325006085D
:1001700009E2FF0A03E13150D00804E2326A316A31
:10018000010E306E0CD03250030809E2FF0A03E181
:1001900031504C0804E2326A316A010E306E9E9092
:1001A00038EF00F0B6DF9EAAFED7AECF39F0395057
:1001B0000A080EE0036A3A503B0FE96E000E032076
:1001C000EA6E39C0EFFF3A2A3A500F0801E23A06C8
:1001D0009E9A38EF00F08AC0A9FFA66A010EA66EAB
:1001E000A8CF8BF08BC001F0000C080E8A6FF3DFF4
:1001F00001C084F0845302E0198001D019900D0EE3
:100200008A6FE9DF01C084F0845302E0198201D0D3
:100210001992000C85C0A9FF86C0A8FFF29EA68493
:10022000550EA76EAA0EA76EA682F28E0000A6CF6C
:1002300087F087B3FBD7000C84C034F0030E856FC2
:1002400034C086F0E7DF34C095FF000CEA6A850E03
:10025000E96EEF500DE00A0E016E006A002EFED727
:10026000012EFBD75F0E006E002EFED7EF2EF3D7C8
:1002700045EF01F08150070B846FD89084331A50FA
:10028000845D2EE0640E856FE1D784C01AF01A50A9
:1002900007E0010A0DE0030A13E0010A19E000D0AB
:1002A000B886400EAF6E030EB06EA60EAC6E18D0C0
:1002B000B886A00EAF6E010EB06EA60EAC6E10D05A
:1002C000B8868A0EAF6E000EB06EA60EAC6E08D069
:1002D000B886440EAF6E000EB06EA60EAC6E00D0A7
:1002E000000C846B8451E7DE842B006E00509EA8C6
:1002F000FED7AD6E300E845DF5E1000C040E8A6F02
:100300006ADF866B01C085F085C086F0856B050EBF
:100310008A6F61DF01508527000E8623855307E130
:10032000865305E11B921B94206A1F6A0DD0852D10
:1003300004D0865302E11B8207D01B841E6A1D6A0B
:1003400086C020F085C01FF0190E8A6F44DF01C0FF
:1003500084F0845302E01B8601D01B961A0E8A6F2C
:100360003ADF01C084F0845302E01B8801D01B985F
:10037000100E8A6F30DF01C021F02150080802E220
:10038000080E216E846B8451070817E3036A8451B9
:10039000220F016E000E032201C087F003C088F017
:1003A000110E8425896F8A6F16DF88C0EAFF87C027
:1003B000E9FF01C0EFFF842BE6D7000C8E0E006E24
:1003C00096C001F095C002F0036A015209E102C033
:1003D00001F0026A080E005E015202E1006A08D0D4
:1003E000D89001BE04D0023601360006F9D7019E2E
:1003F000D2EF02F09551D8B471D0006E9951D8B4B3
:100400006DD0002604E3810E002668E204D07F0E42
:10041000005E64E363E096C09DF09A519D1B968F49
:100420009A8F98519C03F4CF9FF097519B03F4CF80
:1004300003F0F3CF9EF09C03F3509F27F4509E23CC
:10044000000E032298519B03F3509F27F4509E23E4
:10045000000E026A0322022296519C03F3509E274B
:10046000F4500322000E022296519B03F350032600
:10047000F4500222000E016A012298519A03F350AF
:100480009E27F4500322000E0222012297519A0364
:10049000F3500326F4500222000E012296519A03D3
:1004A000F3500226F4500122002A01BE05D09E37E7
:1004B0000336023601360006000E9EAF0AD0032A2C
:1004C00002220122015005E1025003E1035001E143
:1004D000002A9DBF018E9DAF019E04D0006A016A73
:1004E000026A036AE3EF02F08E0E006E9551005E21
:1004F00096C002F097C001F0028E005209E0D89039
:10050000025202E1015204E002320132002EF7D71A
:1005100096AF05D0011E021E012AD8B4022AECEFC4
:1005200002F08D51F80F0CE2080FFAEF02F08DC0C7
:1005300090F006D0090E906F03D00B0E906F00D094
:100540008F6B8E6BC050C00B3609C06EC08EC280E0
:10055000C150C00B3309C16E9035006E0036FC0EE1
:100560000016C250C30B0010C26EC282C2B2FED7C8
:10057000C3CF8EF0C4CF8FF08D51040DF350036ABA
:100580005C0FE96E000E0320EA6EEFCF91F0ECCF26
:1005900092F0ECCF93F0ECCF94F08FC096F08EC039
:1005A00095F00CD703C098F002C097F001C096F008
:1005B00000C095F094C09CF093C09BF092C09AF05C
:1005C00091C099F017D703C098F002C097F001C00E
:1005D00096F000C095F088D702C08FF001C08EF071
:1005E000C290C150C00B0F09C16E8EC001F08FC008
:1005F00002F0000CF2CF0EF0F29EE824F76AF73614
:10060000190FF66E060EF7220A00F550FA6E080072
:10061000F5500EBEF28EF96E2E052E0534053A0504
:100620002E052E052E052E058FC092F08EC091F05E
:100630008D51F00B006E003A0F0E00160050300F77
:10064000906F9051390802E2070E902791C0E9FFA0
:1006500092C0EAFF90C0EFFF912BD8B4922B8D513E
:100660000F0B300F906F9051390802E2070E902760
:1006700091C0E9FF92C0EAFF90C0EFFF000C8E6BC3
:100680004B0E8D6F8EC003F08DC0E9FF8EC0EAFF68
:10069000EF5210E08EC003F08DC0E9FF8EC0EAFF7C
:1006A000EFCF8FF08F519EA8FED7AD6E8D2BD8B4B3
:1006B0008E2BE8D7305206E0306A030E326E840E7D
:1006C000316E2ADD000C1B52D8B4F4D01C6A1BA07A
:1006D00001D01C801BA40AD020501E5C07E303E15C
:1006E0001D501F5C03E21E6A1D6A1C841BA23DD0C4
:1006F0001C828D6B8DC001F001C084F084512A5C96
:1007000003E084C02AF01C8A83CF8DF019A002D0A8
:10071000FF0E8D1B8DC001F001C084F084512B5C55
:1007200003E084C02BF01C8AD6503524896FD75043
:1007300036208A6F000E37208B6F000E38208C6FAA
:1007400089512C5C09E18A512D5C06E18B512E5CAC
:1007500003E18C512F5C09E08CC02FF08BC02EF090
:100760008AC02DF089C02CF01C8C1C52D8B4A2D0A9
:100770001CB002D01CA455D0866B2150865D30E29F
:10078000036A8651220FE96E000E0320EA6EEF50D5
:10079000070B846F84C08DF0C4DE02C088F001C0F6
:1007A00087F0550E4B6E8D6B88C085F08439006ED6
:1007B000F00E00160050851385C08DF08F6B4C0E27
:1007C0008E6F32DF87C085F085C08DF08F6B4E0E47
:1007D0008E6F2ADF0D0E506E516A51DF862BCDD7FA
:1007E0001BA610D08D6B8DC001F001C02AF083CF05
:1007F0008DF019A002D0FF0E8D1B8DC001F001C03D
:100800002BF01C8A1BA80DD0D65035242C6ED75047
:1008100036202D6E000E37202E6E000E38202F6EE3
:100820001C8C1CAA16D0490E4B6E2AC084F084C0C2
:100830008DF08F6B4C0E8E6FF7DE2BC085F085C070
:100840008DF08F6B4E0E8E6FEFDE0D0E506E516A77
:1008500016DF1CAC2FD04E0E4B6E8D6B8E6B8F6BDC
:100860002FC084F084C08DF08F6B4C0E8E6FDCDE59
:100870008D6B8E6B906B2EC084F084C08DF08F6B6F
:100880004E0E8E6FD1DE8D6B8F6B906B2DC084F012
:1008900084C08DF08F6B500E8E6FC6DE2CC084F03E
:1008A00084C08DF08F6B520E8E6FBEDE0D0E546EB7
:1008B000556AE5DEF4EF05F085C089F084C088F064
:1008C000866B89C003F088C0E9FF89C0EAFFEFCFDB
:1008D0008AF08A512F080FE28A5139080CE388C048
:1008E000E9FF89C0EAFF300EEF5C006E0038866FCA
:1008F000F00E861727D089C003F088C0E9FF89C0B1
:10090000EAFFEFCF8AF08A51400810E28A515A0874
:100910000DE388C0E9FF89C0EAFF410EEF5C0A0FD2
:10092000006E0038866FF00E86170CD088C0E9FF85
:1009300089C0EAFF610EEF5C0A0F006E0038866F17
:10094000F00E8617882BD8B4892B89C003F088C095
:10095000E9FF89C0EAFFEFCF8AF08A512F080BE246
:100960008A51390808E388C0E9FF89C0EAFF300EE0
:10097000EF5C876F1FD089C003F088C0E9FF89C092
:10098000EAFFEFCF8AF08A5140080CE28A515A08F8
:1009900009E388C0E9FF89C0EAFF410EEF5C0A0F56
:1009A000876F08D088C0E9FF89C0EAFF610EEF5C5D
:1009B0000A0F876F8751862786C001F0000C3450DC
:1009C000016EC6EF06F0F86AD09E0D8EEA6AE96AFB
:1009D000B886400EAF6E030EB06EA60EAC6E900ED3
:1009E000AB6EC150C00B0F09C16E070EB46E196A11
:1009F0001B6A1D6A1E6A1F6A206A216A010E306E18
:100A0000316A326A336A346A356A366A376A386AF2
:100A10007C6B7D6B070EB46E92501A0E006E002E2A
:100A2000FED70000B450A19CB56A9698C69A000EF5
:100A3000C66EC76EFF0E926E936E956ED00E946E5C
:100A4000968096829684305207E0306A030E326EAA
:100A5000840E316E8CEC00F0F5EC00F0030E8A6F22
:100A6000EBEC00F001C07EF07EC084F01CEC01F0E5
:100A7000060E8A6FEBEC00F001C07EF07EC084F0C1
:100A8000070E8A6FEBEC00F001C07EF07EC084F0B0
:100A900019A002D0FF0E841B84C08CFF1B0E7E6F3A
:100AA0007F6B7F5107085FE37F51040DF350036AAA
:100AB0005C0F016E000E032201C082F003C083F0C0
:100AC00083C003F08251822BD8B4832B846F03C080
:100AD00085F07E517E2B866F8A6FEBEC00F085C02F
:100AE000EAFF84C0E9FF01C0EFFF83C003F0825139
:100AF000822BD8B4832B846F03C085F07E517E2B6C
:100B0000866F8A6FEBEC00F085C0EAFF84C0E9FFD6
:100B100001C0EFFF83C003F08251822BD8B4832B36
:100B2000846F03C085F07E517E2B866F8A6FEBEC5D
:100B300000F085C0EAFF84C0E9FF01C0EFFF83C079
:100B400003F082C084F083C085F07E517E2B866FD7
:100B50008A6FEBEC00F085C0EAFF84C0E9FF01C0BA
:100B6000EFFF7F2B9ED73A6A396A7E6B7E510F0862
:100B70000AE3036A7E513B0FE96E000E0320EA6E22
:100B8000EF6A7E2BF3D7FF0E1A6ED76AD66AE80E8D
:100B9000D56EF28A950ECD6E9D809D8AC00EF212A2
:100BA000000E0409CA6E000ECB6E8B940C0EBD6E47
:100BB000B76ABE6A3AEC01F071EC01F07EEC01F02C
:100BC0008D6B8DC001F001C02AF083CF8DF019A08C
:100BD00002D0FF0E8D1B8DC001F001C02BF02F6ADB
:100BE0002E6A2D6A2C6A5B6A040039500D0803E0F6
:100BF0003AEC01F068D53B50600804E23B507A08BB
:100C000001E33B9A3B50490A30E0060A53E01A0AD6
:100C1000D8B468D0010AD8B499D0130AD8B4AAD0ED
:100C2000090AD8B4BFD01E0AD8B4F3D01D0AD8B46C
:100C300037D11A0AD8B444D1050AD8B45FD1180AFA
:100C4000D8B479D1010AD8B481D1180AD8B48FD1D7
:100C50001B0AD8B499D1120AD8B4A1D10C0AD8B4BD
:100C6000ABD1690AD8B4B6D1BDD13A50020801E07F
:100C7000B9D1490E4B6E8D6B8DC001F001C07EF075
:100C80007EC08DF08F6B4C0E8E6FCEDC83CF8DF0DF
:100C900019A002D0FF0E8D1B8DC001F001C07FF0A6
:100CA0007FC08DF08F6B4E0E8E6FBEDC0D0E506EC2
:100CB000516A9FD13A50060801E094D1856B3E0EEF
:100CC000846FFADD01C07FF07FC084F019A002D0EC
:100CD000FF0E841B84C08CFF4F0E4B6E0D0E4C6EAE
:100CE0004D6A87D13A50030801E07CD1300E3B6E4B
:100CF000856B3B0E846FE0DD01C07EF07E510708FE
:100D000001E270D17EC08DF00CDC02C081F001C028
:100D100080F0550E4B6E846B81C07FF07E39006E83
:100D2000F00E001600507F137FC08DF08F6B4C0EBD
:100D30008E6F7ADC80C07FF07FC08DF08F6B4E0E9F
:100D40008E6F72DC0D0E506E516A53D13A50060808
:100D500001E048D1856B3E0E846FAEDD01C07FF0AF
:100D60007FC084F01CEC01F0540E4B6E0D0E4C6EE7
:100D70004D6A3FD13A50020801E034D1470E4B6E24
:100D80008D6B8F6B4C0E8E6F4FDC19D601C07FF0D0
:100D90007FC08DF08F6B4E0E8E6F46DC0D0E506E49
:100DA000516A27D13A50020801E01CD14E0E4B6E19
:100DB000846B856B866B38C07EF07EC08DF08F6B48
:100DC0004C0E8E6F31DC846B856B876B37C07EF089
:100DD0007EC08DF08F6B4E0E8E6F26DC846B866B23
:100DE000876B36C07EF07EC08DF08F6B500E8E6F9D
:100DF0001BDC35C07FF0D6507E6F7F517E277EC0D2
:100E00008DF08F6B520E8E6F0FDC0D0E546E556A87
:100E1000F0D03A50070801E0E5D0856B3C0E846FB6
:100E20004BDD01C07EF0000E0409CA6E7EC0CBFF10
:100E3000856B3E0E846F40DD01C07FF0816B7FC00B
:100E400080F080378137803781378037813780372E
:100E50008137F00E8017300E3F6E856B3F0E846F2A
:100E60002BDD01C07FF07F518027000E812381C0E0
:100E700002F080C001F0023201320232013202324D
:100E800001C0BEFF02320230300B006EBD50CF0BEE
:100E90000010BD6E500E4B6E0D0E4C6E4D6AA9D0FB
:100EA0003A50020801E09ED0D76AD66A386A376A9B
:100EB000366A356A4D0E4B6E0D0E4C6E4D6A99D0EA
:100EC0003A50060801E08ED0856B3C0E846FF4DC4E
:100ED00001C07EF0856B3E0E846FEEDC01C07FF0BA
:100EE0007EC085F07FC086F00AEC01F0F5EC00F0E2
:100EF000570E4B6E0D0E4C6E4D6A7BD03A50040867
:100F000001E070D0856B3C0E846FD6DC01C07EF0B2
:100F10007EC08AF0EBEC00F001C07FF0520E4B6E09
:100F20007FC08DF08F6B4C0E8E6F14EC03F00D0EA6
:100F30004E6E4F6A5ED03A50020801E053D05B6AB1
:100F40004A0E4B6E0D0E4C6E4D6A53D03A5002084D
:100F500001E048D04B0E4B6E5BC08DF08F6B4C0E9A
:100F60008E6F14EC03F00D0E4E6E4F6A42D03A5065
:100F7000020801E037D01B807EEC01F0530E4B6E6F
:100F80000D0E4C6E4D6A35D03A50020801E02AD061
:100F90001B90480E4B6E0D0E4C6E4D6A2AD05A0EA9
:100FA0004B6E0D0E4C6E4D6A3FEC03F0F29CF29EC0
:100FB000F2BEFDD7FBD71DD03A50020801E012D097
:100FC000560E4B6E340E4C6E310E4D6E0D0E4E6E37
:100FD0004F6A0FD03A50020801E004D071EC01F0E2
:100FE0004B6A07D0580E4B6E0D0E4C6E4D6A5B2A45
:0E0FF00000D03A6A396A3FEC03F0F6D50300F0
:020000040030CA
:0E0000000CCE1E11008781000FC00FE00F40D4
:00000001FF
;PIC18F4455
