:020000040000FA
:0400000046EF05F0D2
:08000800056ED8CF06F0E0CF31
:1000100007F00001E9CF0DF0EACF08F0E1CF09F0D9
:10002000E2CF0AF0D9CF0BF0DACF0CF0F3CF14F017
:10003000F4CF15F0FACF16F000C00FF001C010F0A9
:1000400002C011F003C012F004C013F0F2AA2CEFAA
:1000500000F0F2B481EF00F09DA032EF00F09EB00E
:1000600092EF00F09DAA38EF00F09EBAD2EF00F0B8
:100070000FC000F010C001F011C002F012C003F078
:1000800013C004F00E8E0DC0E9FF08C0EAFF09C0DE
:10009000E1FF0AC0E2FF0BC0D9FF0CC0DAFF14C0B9
:1000A000F3FF15C0F4FF16C0FAFF055007C0E0FFCC
:1000B00006C0D8FF1000F2CF0EF0F29EF76AD00F04
:1000C000F66E000EF7220900F5500EBEF28E1200F9
:1000D0000D496E7465677269747920496E73747224
:1000E000756D656E74732C20496E632E204D6F64A0
:1000F000656C203233324D3130302076342E320D63
:100100000000010E3426000E35223622F29438EF1C
:1001100000F08B808B92000C8B828B90000C8B926A
:100120008B90000CF00ECF6E600ECE6E04001D2A78
:10013000D8B41E2A302AD8B4312A3150030813E328
:1001400003E13050E7080FE33050010B006E036A03
:100150000050031006E02F5202E0DBDF01D0DCDFAD
:1001600001D0DDDF1CD0DBDF2F520DE0315006085F
:1001700009E2FF0A03E13050D00804E2316A306A34
:10018000010E2F6E0CD03150030809E2FF0A03E183
:1001900030504C0804E2316A306A010E2F6E9E9096
:1001A00038EF00F0B6DF9EAAFED7AECF37F037505B
:1001B0000A080EE0036A3850390FE96E000E03207A
:1001C000EA6E37C0EFFF382A38500F0801E23806D0
:1001D0009E9A38EF00F097C0A9FFA66A010EA66E9E
:1001E000A8CF98F098C001F0000C95C0A9FF96C068
:1001F000A8FFF29EA684550EA76EAA0EA76EA68231
:10020000F28E0000A6CF97F097B3FBD7000C94C0F6
:1002100032F0030E956F32C096F0E7DF32C095FFE3
:10022000000C080E976FD7DF01C090F0905302E0EA
:10023000198001D019900D0E976FCDDF01C090F09D
:10024000905302E0198201D01992030E976FC3DF19
:1002500001C090F090C094F0DADF070E976FBBDF1B
:1002600001C090F090C094F019A002D0FF0E941B32
:1002700094C08CFF1B0E906F916B915107085BE34C
:100280009151040DF350036A6A0F016E000E0322B0
:1002900001C092F003C093F093C003F09251922BEF
:1002A000D8B4932B946F03C095F09051902B966F18
:1002B000976F91DF95C0EAFF94C0E9FF01C0EFFF9F
:1002C00093C003F09251922BD8B4932B946F03C038
:1002D00095F09051902B966F976F7DDF95C0EAFF58
:1002E00094C0E9FF01C0EFFF93C003F09251922B3D
:1002F000D8B4932B946F03C095F09051902B966FC8
:10030000976F69DF95C0EAFF94C0E9FF01C0EFFF76
:1003100093C003F092C094F093C095F09051902B4D
:10032000966F976F58DF95C0EAFF94C0E9FF01C050
:10033000EFFF912BA2D7000CEA6A910EE96EEF5005
:100340000DE00A0E016E006A002EFED7012EFBD7CB
:100350005F0E006E002EFED7EF2EF3D7BBEF01F03D
:100360008150070B906FD89090331A50905D2EE01B
:10037000640E916FE1D790C01AF01A5007E0010A9D
:100380000DE0030A13E0010A19E000D0B886400E20
:10039000AF6E030EB06EA60EAC6E18D0B886A00E6F
:1003A000AF6E010EB06EA60EAC6E10D0B8868A0E7F
:1003B000AF6E000EB06EA60EAC6E08D0B886440EBE
:1003C000AF6E000EB06EA60EAC6E00D0000C906B3F
:1003D000905171DE902B006E00509EA8FED7AD6E3E
:1003E000300E905DF5E1000C040E976FF4DE926B19
:1003F00001C091F091C092F0916B050E976FEBDE0A
:1004000001509127000E9223915307E1925305E189
:100410001B921B94206A1F6A0DD0912D04D0925319
:1004200002E11B8207D01B841E6A1D6A92C020F065
:1004300091C01FF0190E976FCEDE01C090F090535F
:1004400002E01B8601D01B961A0E976FC4DE01C016
:1004500090F0905302E01B8801D01B98100E976F0C
:10046000BADE01C021F02150080802E2080E216E18
:10047000906B9051070817E3036A9051220F016EA9
:10048000000E032201C093F003C094F0110E9025DA
:10049000956F976FA0DE94C0EAFF93C0E9FF01C09B
:1004A000EFFF902BE6D7000C8E0E006EA2C001F07D
:1004B000A1C002F0036A015209E102C001F0026A20
:1004C000080E005E015202E1006A08D0D89001BE19
:1004D00004D0023601360006F9D7019E48EF03F03A
:1004E000A151D8B471D0006EA551D8B46DD00026FA
:1004F00004E3810E002668E204D07F0E005E64E310
:1005000063E0A2C0A9F0A651A91BA28FA68FA45197
:10051000A803F4CFABF0A351A703F4CF03F0F3CFBC
:10052000AAF0A803F350AB27F450AA23000E03222D
:10053000A451A703F350AB27F450AA23000E026A7C
:1005400003220222A251A803F350AA27F450032247
:10055000000E0222A251A703F3500326F4500222F8
:10056000000E016A0122A451A603F350AA27F450F9
:100570000322000E02220122A351A603F3500326F8
:10058000F4500222000E0122A251A603F3500226CB
:10059000F4500122002A01BE05D0AA3703360236E4
:1005A00001360006000EAAAF0AD0032A0222012259
:1005B000015005E1025003E1035001E1002AA9BF07
:1005C000018EA9AF019E04D0006A016A026A036A23
:1005D00059EF03F08E0E006EA151005EA2C002F032
:1005E000A3C001F0028E005209E0D890025202E14D
:1005F000015204E002320132002EF7D7A2AF05D03B
:10060000011E021E012AD8B4022A62EF03F099519A
:10061000F80F0CE2080F70EF03F099C09CF006D0C1
:10062000090E9C6F03D00B0E9C6F00D09B6B9A6BD6
:10063000C050C00B3609C06EC08EC280C150C00B06
:100640003309C16E9C35006E0036FC0E0016C25098
:10065000C30B0010C26EC282C2B2FED7C3CF9AF0E3
:10066000C4CF9BF09951040DF350036A6A0FE96EF1
:10067000000E0320EA6EEFCF9DF0ECCF9EF0ECCFA2
:100680009FF0ECCFA0F09BC0A2F09AC0A1F00CD7D5
:1006900003C0A4F002C0A3F001C0A2F000C0A1F00A
:1006A000A0C0A8F09FC0A7F09EC0A6F09DC0A5F076
:1006B00017D703C0A4F002C0A3F001C0A2F000C08D
:1006C000A1F088D702C09BF001C09AF0C290C1503F
:1006D000C00B0F09C16E9AC001F09BC002F0000C64
:1006E000F2CF0EF0F29EE824F76AF736050FF66EA9
:1006F000070EF7220A00F550FA6E0800F5500EBEFC
:10070000F28EF96E1A061A06200626061A061A0630
:100710001A061A069BC09EF09AC09DF09951F00BE4
:10072000006E003A0F0E00160050300F9C6F9C5167
:10073000390802E2070E9C279DC0E9FF9EC0EAFF30
:100740009CC0EFFF9D2BD8B49E2B99510F0B300FFF
:100750009C6F9C51390802E2070E9C279DC0E9FF5F
:100760009EC0EAFF9CC0EFFF000C9A6B490E996F88
:100770009AC003F099C0E9FF9AC0EAFFEF5210E077
:100780009AC003F099C0E9FF9AC0EAFFEFCF9BF04F
:100790009B519EA8FED7AD6E992BD8B49A2BE8D763
:1007A0002F5206E02F6A030E316E840E306EB4DCD9
:1007B000000C1B52D8B4E1D01C6A1BA001D01C80D5
:1007C0001BA40AD020501E5C07E303E11D501F5CF0
:1007D00003E21E6A1D6A1C841BA232D01C8283CFD6
:1007E00099F019A002D0FF0E991B99C001F001C029
:1007F00090F090512A5C03E090C02AF01C8AD650F9
:100800003324956FD7503420966F000E3520976FA4
:10081000000E3620986F95512B5C09E196512C5CA7
:1008200006E197512D5C03E198512E5C09E098C0D8
:100830002EF097C02DF096C02CF095C02BF01C8C9C
:100840001C52D8B49AD01CB002D01CA450D0926BC9
:100850002150925D30E2036A9251220FE96E000E40
:100860000320EA6EEF50070B906F90C099F0CFDE37
:1008700002C094F001C093F0550E496E996B94C07C
:1008800091F09039006EF00E00160050911391C057
:1008900099F09B6B4A0E9A6F3DDF93C091F091C027
:1008A00099F09B6B4C0E9A6F35DF0D0E4E6E4F6AB2
:1008B0005CDF922BCDD71BA60BD083CF99F019A06C
:1008C00002D0FF0E991B99C001F001C02AF01C8ACA
:1008D0001BA80DD0D65033242B6ED75034202C6E4D
:1008E000000E35202D6E000E36202E6E1C8C1CAA9C
:1008F00013D0490E496E996B9B6B4A0E9A6F0ADFB3
:100900002AC091F091C099F09B6B4C0E9A6F02DF58
:100910000D0E4E6E4F6A29DF1CAC2FD04E0E496E65
:10092000996B9A6B9B6B2EC090F090C099F09B6B6B
:100930004A0E9A6FEFDE996B9A6B9C6B2DC090F00C
:1009400090C099F09B6B4C0E9A6FE4DE996B9B6B99
:100950009C6B2CC090F090C099F09B6B4E0E9A6FE0
:10096000D9DE2BC090F090C099F09B6B500E9A6F1F
:10097000D1DE0D0E526E536AF8DECAEF05F091C05B
:1009800095F090C094F0926B95C003F094C0E9FF8D
:1009900095C0EAFFEFCF96F096512F080FE29651DF
:1009A00039080CE394C0E9FF95C0EAFF300EEF5C14
:1009B000006E0038926FF00E921727D095C003F0AA
:1009C00094C0E9FF95C0EAFFEFCF96F0965140083A
:1009D00010E296515A080DE394C0E9FF95C0EAFF72
:1009E000410EEF5C0A0F006E0038926FF00E921706
:1009F0000CD094C0E9FF95C0EAFF610EEF5C0A0FCE
:100A0000006E0038926FF00E9217942BD8B4952B8D
:100A100095C003F094C0E9FF95C0EAFFEFCF96F0D0
:100A200096512F080BE29651390808E394C0E9FF6C
:100A300095C0EAFF300EEF5C936F1FD095C003F0B6
:100A400094C0E9FF95C0EAFFEFCF96F096514008B9
:100A50000CE296515A0809E394C0E9FF95C0EAFFF9
:100A6000410EEF5C0A0F936F08D094C0E9FF95C068
:100A7000EAFF610EEF5C0A0F936F9351922792C0C9
:100A800001F0000C3250016E96EF06F0F86AD09E2D
:100A90000D8EEA6AE96AB886400EAF6E030EB06E3C
:100AA000A60EAC6E900EAB6EC150C00B0F09C16E9E
:100AB000070EB46E196A1B6A1D6A1E6A1F6A206AD5
:100AC000216A010E2F6E306A316A326A336A346AE3
:100AD000356A366A8A6B8B6B070EB46E92501A0EAB
:100AE000006E002EFED70000B450A19CB56A969807
:100AF000C69A000EC66EC76EFF0E926E936E956E0E
:100B0000D00E946E9680968296842F5207E02F6ABC
:100B1000030E316E840E306E8CEC00F011EC01F09F
:100B2000386A376A8C6B8C510F080AE3036A8C5160
:100B3000390FE96E000E0320EA6EEF6A8C2BF3D7B3
:100B4000FF0E1A6ED76AD66AE80ED56EF28A950E37
:100B5000CD6E9D809D8AC00EF212000E0409CA6EF1
:100B6000000ECB6E8B940C0EBD6EB76ABE6AB0ECF5
:100B700001F02DDC39DC83CF99F019A002D0FF0EF3
:100B8000991B99C001F001C02AF02E6A2D6A2C6AC7
:100B90002B6A696B040037500D0803E0B0EC01F0DC
:100BA00008D63950600804E239507A0801E3399ACE
:100BB0003950490A30E0060A4DE01A0AD8B462D02A
:100BC000010AD8B493D0130AD8B4A4D0090AD8B46F
:100BD000B9D01E0AD8B4EDD01D0AD8B431D11A0A42
:100BE000D8B43ED1050AD8B459D1180AD8B472D1B4
:100BF000010AD8B47AD1180AD8B487D11B0AD8B45C
:100C000091D1120AD8B499D10C0AD8B4A2D1690AE8
:100C1000D8B4ADD1B4D13850020801E0B0D1490EFA
:100C2000496E996B9B6B4A0E9A6F74DD83CF99F076
:100C300019A002D0FF0E991B99C001F001C08DF0E0
:100C40008DC099F09B6B4C0E9A6F64DD0D0E4E6E4D
:100C50004F6A9CD13850060801E091D1916B3C0E4F
:100C6000906F8DDE01C08DF08DC094F019A002D080
:100C7000FF0E941B94C08CFF4F0E496E0D0E4A6EF2
:100C80004B6A84D13850030801E079D1300E396EB7
:100C9000916B390E906F73DE01C08CF08C51070898
:100CA00001E26DD18CC099F0B2DC02C08FF001C0BE
:100CB0008EF0550E496E906B8FC08DF08C39006EA2
:100CC000F00E001600508D138DC099F09B6B4A0EEC
:100CD0009A6F20DD8EC08DF08DC099F09B6B4C0E0D
:100CE0009A6F18DD0D0E4E6E4F6A50D138500608BF
:100CF00001E045D1916B3C0E906F41DE01C08DF05B
:100D00008DC094F007EC01F0540E496E0D0E4A6E42
:100D10004B6A3CD13850020801E031D1470E496E90
:100D2000996B9B6B4A0E9A6FF5DCACD601C08DF0C7
:100D30008DC099F09B6B4C0E9A6FECDC0D0E4E6ED5
:100D40004F6A24D13850020801E019D14E0E496E85
:100D5000906B916B926B36C08CF08CC099F09B6B52
:100D60004A0E9A6FD7DC906B916B936B35C08CF009
:100D70008CC099F09B6B4C0E9A6FCCDC906B926B95
:100D8000936B34C08CF08CC099F09B6B4E0E9A6FB5
:100D9000C1DC33C08DF0D6508C6F8D518C278CC048
:100DA00099F09B6B500E9A6FB5DC0D0E526E536A24
:100DB000EDD03850070801E0E2D0916B3A0E906F09
:100DC000DEDD01C08CF0000E0409CA6E8CC0CBFFC2
:100DD000916B3C0E906FD3DD01C08DF08F6B8DC099
:100DE0008EF08E378F378E378F378E378F378E371F
:100DF0008F37F00E8E17300E3D6E916B3D0E906F5B
:100E0000BEDD01C08DF08D518E27000E8F238FC067
:100E100002F08EC001F0023201320232013202329F
:100E200001C0BEFF02320230300B006EBD50CF0B4E
:100E30000010BD6E500E496E0D0E4A6E4B6AA6D064
:100E40003850020801E09BD0D76AD66A366A356A04
:100E5000346A336A4D0E496E0D0E4A6E4B6A96D057
:100E60003850060801E08BD0916B3A0E906F87DD09
:100E700001C08CF0916B3C0E906F81DD01C08DF054
:100E80008CC095F08DC096F0F5EC00F011EC01F0FF
:100E9000570E496E0D0E4A6E4B6A78D038500408D2
:100EA00001E06DD0916B3A0E906F69DD01C08CF05E
:100EB0008CC097F0EBEC00F001C08DF0520E496E43
:100EC0008DC099F09B6B4A0E9A6F24DC0D0E4C6E10
:100ED0004D6A5CD03850020801E051D0696B4A0E6F
:100EE000496E0D0E4A6E4B6A51D03850020801E02F
:100EF00046D04B0E496E69C099F09B6B4A0E9A6FB3
:100F000009DC0D0E4C6E4D6A41D03850020801E0EC
:100F100036D01B80F4EC01F0530E496E0D0E4A6E74
:100F20004B6A34D03850020801E029D01B90480E9B
:100F3000496E0D0E4A6E4B6A29D05A0E496E0D0E3F
:100F40004A6E4B6A12DCF29CF29EF2BEFDD7FBD7D2
:100F50001DD03850020801E012D0560E496E340EF2
:100F60004A6E320E4B6E0D0E4C6E4D6A0FD03850DD
:100F7000020801E004D0E7EC01F0496A07D0580EFE
:100F8000496E0D0E4A6E4B6A692B00D0386A376A7B
:080F9000B5EC03F0FFD50300EE
:020000040030CA
:0E0000000CCE1E11008781000FC00FE00F40D4
:00000001FF
;PIC18F4455
