:020000040000FA
:0400000047EF09F0CD
:08000800056ED8CF06F0E0CF31
:1000100007F00001E9CF0DF0EACF08F0E1CF09F0D9
:10002000E2CF0AF0D9CF0BF0DACF0CF0F3CF14F017
:10003000F4CF15F0FACF16F000C00FF001C010F0A9
:1000400002C011F003C012F004C013F0F2AA2CEFAA
:1000500000F0F2B456EF02F09DA032EF00F09EB037
:1000600067EF02F09DAA38EF00F09EBAA7EF02F00A
:100070000FC000F010C001F011C002F012C003F078
:1000800013C004F00E8E0DC0E9FF08C0EAFF09C0DE
:10009000E1FF0AC0E2FF0BC0D9FF0CC0DAFF14C0B9
:1000A000F3FF15C0F4FF16C0FAFF055007C0E0FFCC
:1000B00006C0D8FF1000F2CF0EF0F29EF76AD00F04
:1000C000F66E000EF7220900F5500EBEF28E1200F9
:1000D000496E7465677269747920496E73747275BC
:1000E0006D656E74732C20496E632E204D6F6465B0
:1000F0006C203233324D313030207625632E25632B
:100100000D00F2CF0EF0F29EF76A1C0FF66E010E94
:10011000F7220900F5500EBEF28E12004275696C8E
:1001200074206F6E3A20257320202025730D000067
:10013000F2CF0EF0F29EF76A4A0FF66E010EF7222A
:100140000900F5500EBEF28E120032342D4A616E57
:100150002D313000F2CF0EF0F29EF76A6E0FF66E80
:10016000010EF7220900F5500EBEF28E1200313357
:100170003A30323A33340000F2CF0EF0F29EF76A92
:10018000920FF66E010EF7220900F5500EBEF28EA8
:1001900012000D415343494920636F6D6D616E64D8
:1001A000732E2020496E70757420706172616D61CC
:1001B0007465727320696E204845582061733A2037
:1001C000787879792020556E757365642070617236
:1001D000616D65746572732061733A202A2A0D0D72
:1001E0000000F2CF0EF0F29EF76AFC0FF66E010EE1
:1001F000F7220900F5500EBEF28E120049207B67EF
:100200006574206469676974616C20696E707574C7
:100210007D2C204F2A2A7878207B736574206469AE
:10022000676974616C206F75747075747D0D000062
:10023000F2CF0EF0F29EF76A4A0FF66E020EF72228
:100240000900F5500EBEF28E120047207B676574E0
:10025000206469676974616C20646972656374699C
:100260006F6E7D2C20542A2A7878207B7365742049
:100270006469676974616C20646972656374696F2D
:100280006E7D0D00F2CF0EF0F29EF76A9E0FF66EB5
:10029000020EF7220900F5500EBEF28E12004E201B
:1002A0007B6765742070756C736520636F756E7401
:1002B00065727D2C204D207B636C656172207075AA
:1002C0006C736520636F756E7465727D0D00F2CF7F
:1002D0000EF0F29EF76AE80FF66E020EF7220900A2
:1002E000F5500EBEF28E12005578207B412D746FB2
:1002F0002D442073616D706C6520696E20484558EF
:100300007D2C2051207B412D746F2D442073616D15
:10031000706C6520696E20446563696D616C7D0D4C
:100320000000F2CF0EF0F29EF76A3C0FF66E030E5D
:10033000F7220900F5500EBEF28E12005779797837
:1003400078207B577269746520454550524F4D2087
:10035000797920776974682078787D2C20527979B2
:10036000207B5265616420454550524F4D206164A9
:1003700064726573732079797D0D0000F2CF0EF001
:10038000F29EF76A960FF66E030EF7220900F550FB
:100390000EBEF28E1200507878797979207B505712
:1003A0004D2078782066726571207979792064759E
:1003B00074797D2C205A207B5265736574204350DC
:1003C000557D0D00F2CF0EF0F29EF76ADE0FF66E4D
:1003D000030EF7220900F5500EBEF28E12005320D4
:1003E0007B73746172742073747265616D696E677A
:1003F000206D6F64657D2C2048207B68616C7420C3
:1004000073747265616D696E67206D6F64657D0DD3
:100410000000F2CF0EF0F29EF76A2C0FF66E040E7B
:10042000F7220900F5500EBEF28E12004B207B67BA
:10043000657420636F6D6D73206572726F722063D7
:100440006F756E747D2C204A207B636C6561722011
:10045000636F6D6D73206572726F7220636F756E5E
:10046000747D0D00F2CF0EF0F29EF76A7E0FF66EED
:10047000040EF7220900F5500EBEF28E120056202F
:100480007B676574206669726D7761726520766539
:100490007273696F6E7D2C203F207B636F6D6D6181
:1004A0006E64206C6973747D0D0D0000010E36269C
:1004B000000E37223822F29438EF00F08B808B92B6
:1004C000000C8B828B90000C8B928B90000CF00EAA
:1004D000CF6E600ECE6E04001F2AD8B4202A322AB6
:1004E000D8B4332A3350030813E303E13250E7084A
:1004F0000FE33250010B006E036A0050031006E058
:10050000315202E0DBDF01D0DCDF01D0DDDF1CD0C7
:10051000DBDF31520DE03350060809E2FF0A03E148
:100520003250D00804E2336A326A010E316E0CD0C8
:100530003350030809E2FF0A03E132504C0804E299
:10054000336A326A010E316E9E9038EF00F0B6DFEA
:10055000ABA204D0AB98AB886B2B18D0ABA401D066
:100560006B2B9EAAFED7AECF39F039500A080EE0A9
:10057000036A3A503B0FE96E000E0320EA6E39C061
:10058000EFFF3A2A3A500F0801E23A069E9A38EFF6
:1005900000F0BEC0A9FFA66A010EA66EA8CFBFF0EC
:1005A000BFC001F0000CBCC0A9FFBDC0A8FFF29EF7
:1005B000A684550EA76EAA0EA76EA682F28E000024
:1005C000A6CFBEF0BEB3FBD7000CBBC034F0030E09
:1005D000BC6F34C0BDF0E7DF34C095FF000C080EDF
:1005E000BE6FD7DF01C0B7F0B75302E01B8001D068
:1005F0001B900D0EBE6FCDDF01C0B7F0B75302E008
:100600001B8201D01B921B0EB76FB86BB851070845
:100610005BE3B851040DF350036A6C0F016E000EDA
:10062000032201C0B9F003C0BAF0BAC003F0B95157
:10063000B92BD8B4BA2BBB6F03C0BCF0B751B72BE2
:10064000BD6FBE6FA6DFBCC0EAFFBBC0E9FF01C043
:10065000EFFFBAC003F0B951B92BD8B4BA2BBB6FB6
:1006600003C0BCF0B751B72BBD6FBE6F92DFBCC0EB
:10067000EAFFBBC0E9FF01C0EFFFBAC003F0B95108
:10068000B92BD8B4BA2BBB6F03C0BCF0B751B72B92
:10069000BD6FBE6F7EDFBCC0EAFFBBC0E9FF01C01B
:1006A000EFFFBAC003F0B9C0BBF0BAC0BCF0B7519D
:1006B000B72BBD6FBE6F6DDFBCC0EAFFBBC0E9FFEB
:1006C00001C0EFFFB82BA2D7B65315E0030EBE6FE3
:1006D00060DF01C0B7F0B7C0BBF077DF070EBE6FB9
:1006E00058DF01C0B7F0B7C0BBF01BA002D0FF0EAF
:1006F000BB1BBBC08CFF000CEA6AB70EE96EEF5063
:100700000DE00A0E016E006A002EFED7012EFBD707
:100710005F0E006E002EFED7EF2EF3D79BEF03F097
:100720008150070BB66FD890B6331C50B65D2EE0E3
:10073000640EB76FE1D7B6C01CF01C5007E0010A89
:100740000DE0030A13E0010A19E000D0B886400E5C
:10075000AF6E030EB06EA60EAC6E18D0B886A00EAB
:10076000AF6E010EB06EA60EAC6E10D0B8868A0EBB
:10077000AF6E000EB06EA60EAC6E08D0B886440EFA
:10078000AF6E000EB06EA60EAC6E00D0000C040E64
:10079000BE6FFFDEB86B01C0B7F0B7C0B8F0B76B83
:1007A000050EBE6FF6DE0150B727000EB823B75313
:1007B00007E1B85305E11D921D94226A216A0DD00C
:1007C000B72D04D0B85302E11D8207D01D84206AE2
:1007D0001F6AB8C022F0B7C021F0190EBE6FD9DE73
:1007E00001C0B6F0B65302E01D8601D01D961A0E68
:1007F000BE6FCFDE01C0B6F0B65302E01D8801D057
:100800001D98100EBE6FC5DE01C023F023500808EE
:1008100002E2080E236EB66BB651070817E3036AAF
:10082000B651240F016E000E032201C0B9F003C0BF
:10083000BAF0110EB625BB6FBE6FABDEBAC0EAFFD1
:10084000B9C0E9FF01C0EFFFB62BE6D7000CB66BCD
:10085000B65131DCB62B006E00509EA8FED7AD6EAF
:100860002B0EB65DF5E1340E9EA8FED7AD6E2E0EB2
:100870009EA8FED7AD6E330E9EA8FED7AD6E0D0EB0
:100880009EA8FED7AD6EB66BB6513BDCB62B006EA4
:1008900000509EA8FED7AD6E0A0EB65DF5E1B76BAF
:1008A000B75146DC000905E0B72B9EA8FED7AD6E18
:1008B000F7D7200E9EA8FED7AD6E200E9EA8FED7BD
:1008C000AD6E200E9EA8FED7AD6EB86BB85142DC5F
:1008D000000905E0B82B9EA8FED7AD6EF7D70D0E28
:1008E0009EA8FED7AD6E000C8E0E006EC8C001F043
:1008F000C7C002F0036A015209E102C001F0026AB6
:10090000080E005E015202E1006A08D0D89001BED4
:1009100004D0023601360006F9D7019E97EF06F0A3
:10092000D051D8B471D0006ED451D8B46DD0002657
:1009300004E3810E002668E204D07F0E005E64E3CB
:1009400063E0D1C0D8F0D551D81BD18FD58FD3510A
:10095000D703F4CFDAF0D251D603F4CF03F0F3CFBC
:10096000D9F0D703F350DA27F450D923000E03222D
:10097000D351D603F350DA27F450D923000E026A7C
:1009800003220222D151D703F350D927F450032276
:10099000000E0222D151D603F3500326F450022256
:1009A000000E016A0122D351D503F350D927F45028
:1009B0000322000E02220122D251D503F350032656
:1009C000F4500222000E0122D151D503F350022629
:1009D000F4500122002A01BE05D0D9370336023671
:1009E00001360006000ED9AF0AD0032A02220122E6
:1009F000015005E1025003E1035001E1002AD8BF94
:100A0000018ED8AF019E04D0006A016A026A036AAF
:100A1000000C8E0E006EC351005EC4C002F0C5C053
:100A200001F0028E005209E0D890025202E1015218
:100A300004E002320132002EF7D7C4AF05D0011E08
:100A4000021E012AD8B4022AB9EF06F0D051B60826
:100A5000D06F036AD1C0D4F0D18FD890D133D233C4
:100A6000D3330332023201320032D02FF6D7D4AF63
:100A70000BD0001E011E021E031E002AD8B4012A3C
:100A8000D8B4022AD8B4032AB8EF05F0006A016A84
:100A9000026A036AD86BD96BDA6BDB6BD751D6115C
:100AA000D511D4112CE0200EDC6FD890D037D1377F
:100AB000D237D337D837D937DA37DB37D751DB5D81
:100AC00008E1D651DA5D05E1D551D95D02E1D45195
:100AD000D85D0FE3D451D85FD551D8A0D53DD95FAB
:100AE000D651D8A0D63DDA5FD751D8A0D73DDB5F2D
:100AF000D8800036013602360336DC2FD6D7EA6AB4
:100B0000D80EE96E000CB1C0EAFFB0C0E9FFD0C05A
:100B1000EFFFE92AD8B4EA2AEF6AB02BD8B4B12B98
:100B2000000CE950C86FC751CA6F19E0C6C0D3F0B6
:100B3000C5C0D2F0C4C0D1F0C3C0D0F0D76BD66B63
:100B4000200ED56F820ED46FEBDE03C0C6F002C05C
:100B5000C5F001C0C4F000C0C3F0CA2FE7D7C6C0BB
:100B6000D3F0C5C0D2F0C4C0D1F0C3C0D0F06ED7AE
:100B700003C0C6F002C0C5F001C0C4F000C0C3F09D
:100B8000C6AF0DD0C807C88BC31FC41FC51FC61F63
:100B9000C32BD8B4C42BD8B4C52BD8B4C62B3B0EAA
:100BA000CF6F9A0ECE6FCA0ECD6FCC6B0A0ECA6F86
:100BB000C751D8B4C82BC6C0D3F0C5C0D2F0C4C08A
:100BC000D1F0C3C0D0F0CFC0D7F0CEC0D6F0CDC0EA
:100BD000D5F0CCC0D4F05ADF0150EFCFC3F0ECCF4A
:100BE000C4F0ECCFC5F0ECCFC6F000520FE1C7293E
:100BF000CA5D0CE0C8510CE00F0BCA5D01E037E2A2
:100C0000C8BF35D0C8BD04D0200E2DD0200EC817C7
:100C1000C8AB0CD0C89BC751D8A4C8070050C86F38
:100C20002D0ED06F70DFC851006EC86BC751CA5D02
:100C30000AE10050C86F2E0ED06F65DFC851006EFC
:100C4000200EC817000E300EC8AB0DD0C89BC75180
:100C5000D8A4C8070050C86F2D0ED06F54DFC851FC
:100C6000006EC86B300E002600C0D0F04CDFCFC045
:100C7000D3F0CEC0D2F0CDC0D1F0CCC0D0F0D76B85
:100C8000D66BD56B0A0ED46F01DF03C0CFF002C064
:100C9000CEF001C0CDF000C0CCF0CA2F8CD7E4EF6D
:100CA00006F0BF51F80F0CE2080FECEF06F0BFC0E2
:100CB000C2F006D0090EC26F03D00B0EC26F00D077
:100CC000C16BC06BC050C00B3E09C06EC08EC280ED
:100CD000C150C00B3309C16EC235006E0036FC0E28
:100CE0000016C250C30B0010C26EC282C2B2FED741
:100CF000C3CFC0F0C4CFC1F0C290C150C00B0F0928
:100D0000C16EBF51040DF350036A6C0FE96E000E03
:100D10000320EA6EEFCFC3F0ECCFC4F0ECCFC5F008
:100D2000ECCFC6F0C1C0C8F0C0C0C7F0DDD503C06D
:100D3000D3F002C0D2F001C0D1F000C0D0F0C6C0E4
:100D4000D7F0C5C0D6F0C4C0D5F0C3C0D4F0E8DD3C
:100D500003C08FF002C08EF001C08DF000C08CF097
:100D60008FC0C6F08EC0C5F08DC0C4F08CC0C3F07B
:100D700050D602C0C1F001C0C0F08FC0D3F08EC009
:100D8000D2F08DC0D1F08CC0D0F0D76BD66B200ED6
:100D9000D56F780ED46FC4DD03C08FF002C08EF023
:100DA00001C08DF000C08CF0B16B900EB06F890E59
:100DB000E96E8FC0C6F08EC0C5F08DC0C4F08CC087
:100DC000C3F0060EC76FADD60D0ED06F9CDEC0C04F
:100DD00001F0C1C002F0000CF2CF0EF0F29EE82448
:100DE000F76AF736FD0FF66E0D0EF7220A00F55082
:100DF000FA6E0800F5500EBEF28EF96EAE0CAE0C17
:100E0000B40CBA0CAE0CAE0CAE0CAE0CC1C0C4F03F
:100E1000C0C0C3F0BF51F00B006E003A0F0E0016B9
:100E20000050300FC26FC251390802E2070EC227CC
:100E3000C3C0E9FFC4C0EAFFC2C0EFFFC32BD8B4F0
:100E4000C42BBF510F0B300FC26FC251390802E2E1
:100E5000070EC227C3C0E9FFC4C0EAFFC2C0EFFF4C
:100E6000000CC06B4B0EBF6FC0C003F0BFC0E9FFEA
:100E7000C0C0EAFFEF5210E0C0C003F0BFC0E9FFFE
:100E8000C0C0EAFFEFCFC1F0C1519EA8FED7AD6E42
:100E9000BF2BD8B4C02BE8D7315207E0316A030E1C
:100EA000336E840E326E61EC02F0000C1D52D8B429
:100EB000E1D01E6A1DA001D01E801DA40AD02250C0
:100EC000205C07E303E11F50215C03E2206A1F6AF4
:100ED0001E841DA232D01E8283CFBFF01BA002D081
:100EE000FF0EBF1BBFC001F001C0B6F0B6512C5CB5
:100EF00003E0B6C02CF01E8AD6503524BB6FD75005
:100F00003620BC6F000E3720BD6F000E3820BE6F3C
:100F1000BB512D5C09E1BC512E5C06E1BD512F5C3B
:100F200003E1BE51305C09E0BEC030F0BDC02FF01F
:100F3000BCC02EF0BBC02DF01E8C1E52D8B49AD06F
:100F40001EB002D01EA450D0B86B2350B85D30E262
:100F5000036AB851240FE96E000E0320EA6EEF50C9
:100F6000070BB66FB6C0BFF09CDE02C0BAF001C07E
:100F7000B9F0550E4B6EBF6BBAC0B7F0B639006E04
:100F8000F00E00160050B713B7C0BFF0C16B4C0E87
:100F9000C06F3CDFB9C0B7F0B7C0BFF0C16B4E0E39
:100FA000C06F34DF0D0E506E516A5BDFB82BCDD7AA
:100FB0001DA60BD083CFBFF01BA002D0FF0EBF1B1E
:100FC000BFC001F001C02CF01E8A1DA80DD0D65064
:100FD00035242D6ED75036202E6E000E37202F6E02
:100FE000000E3820306E1E8C1EAA13D0490E4B6E98
:100FF000BF6BC16B4C0EC06F09DF2CC0B7F0B7C020
:10100000BFF0C16B4E0EC06F01DF0D0E506E516A06
:1010100028DF1EAC2FD04E0E4B6EBF6BC06BC16B6A
:1010200030C0B6F0B6C0BFF0C16B4C0EC06FEEDE84
:10103000BF6BC06BC26B2FC0B6F0B6C0BFF0C16B48
:101040004E0EC06FE3DEBF6BC16BC26B2EC0B6F03D
:10105000B6C0BFF0C16B500EC06FD8DE2DC0B6F069
:10106000B6C0BFF0C16B520EC06FD0DE0D0E546E15
:10107000556AF7DED9EF09F0B7C0BBF0B6C0BAF0D9
:10108000B86BBBC003F0BAC0E9FFBBC0EAFFEFCF4B
:10109000BCF0BC512F080FE2BC5139080CE3BAC0B8
:1010A000E9FFBBC0EAFF300EEF5C006E0038B86F9E
:1010B000F00EB81727D0BBC003F0BAC0E9FFBBC021
:1010C000EAFFEFCFBCF0BC51400810E2BC515A0817
:1010D0000DE3BAC0E9FFBBC0EAFF410EEF5C0A0FA7
:1010E000006E0038B86FF00EB8170CD0BAC0E9FF28
:1010F000BBC0EAFF610EEF5C0A0F006E0038B86FEC
:10110000F00EB817BA2BD8B4BB2BBBC003F0BAC0D3
:10111000E9FFBBC0EAFFEFCFBCF0BC512F080BE2E8
:10112000BC51390808E3BAC0E9FFBBC0EAFF300E82
:10113000EF5CB96F1FD0BBC003F0BAC0E9FFBBC002
:10114000EAFFEFCFBCF0BC5140080CE2BC515A089A
:1011500009E3BAC0E9FFBBC0EAFF410EEF5C0A0F2A
:10116000B96F08D0BAC0E9FFBBC0EAFF610EEF5CFF
:101170000A0FB96FB951B827B8C001F0000C34504C
:10118000016EEBEF0AF0B66BB651BCEC00F0B62B7B
:10119000006E00509EA8FED7AD6E4E0EB65DF4E117
:1011A000B66BB651F1EC00F0B62B006E00509EA865
:1011B000FED7AD6E320EB65DF4E1B66BB65118ECEB
:1011C00001F0B62B006E00509EA8FED7AD6E390E12
:1011D000B65DF4E1B66BB65142EC01F0B62B006E91
:1011E00000509EA8FED7AD6E2F0EB65DF4E1B66B33
:1011F000B65167EC01F0B62B006E00509EA8FED7EA
:10120000AD6E380EB65DF4E1B66BB65191EC01F0FF
:10121000B62B006E00509EA8FED7AD6E3E0EB65D9A
:10122000F4E1B66BB651BEEC01F0B62B006E005087
:101230009EA8FED7AD6E2D0EB65DF4E1B66BB6512D
:10124000E2EC01F0B62B006E00509EA8FED7AD6E0A
:10125000320EB65DF4E1B66BB65109EC02F0B62B76
:10126000006E00509EA8FED7AD6E370EB65DF4E15D
:10127000B66BB65132EC02F0B62B006E00509EA851
:10128000FED7AD6E2C0EB65DF4E11BEF0CF0F86AE4
:10129000D09E0D8EEA6AE96AB886400EAF6E030EE4
:1012A000B06EA60EAC6E900EAB6EC150C00B0F09A7
:1012B000C16E070EB46E196A1A6A1B6A1D6A1F6A2C
:1012C000206A216A226A236A010E316E326A336A09
:1012D000346A356A366A376A386AB06BB16B070EA2
:1012E000B46E92501A0E006E002EFED70000B4505D
:1012F000A19CB56A9698C69A000EC66EC76EFF0E80
:10130000926E936E956ED00E946E968096829684B1
:10131000315207E0316A030E336E840E326E61EC97
:1013200002F0010EB66FEFEC02F03A6A396AB26B66
:10133000B2510F080AE3036AB2513B0FE96E000E87
:101340000320EA6EEF6AB22BF3D7FF0E1C6ED76A4A
:10135000D66AE80ED56EF28A950ECD6E9D809D8A76
:10136000C00EF212000E0409CA6E000ECB6E8B94F2
:101370000C0EBD6EB76ABE6A90EC03F0C7EC03F0CA
:1013800083CFBFF01BA002D0FF0EBF1BBFC001F078
:1013900001C02CF0306A2F6A2E6A2D6A6B6B27EC25
:1013A00004F03E0E9EA8FED7AD6E200E9EA8FED77E
:1013B000AD6E040039500D0803E090EC03F076D5D3
:1013C0003B50600804E23B507A0801E33B9A3B50F3
:1013D000490A33E0060A50E01A0AD8B465D0040A74
:1013E000D8B497D0050AD8B4D6D0130AD8B4E7D069
:1013F000090AD8B4FCD01E0AD8B434D11D0AD8B416
:1014000078D11A0AD8B485D1050AD8B4A1D1180A5E
:10141000D8B4BBD1010AD8B4C3D1180AD8B4D1D139
:101420001B0AD8B4DBD1120AD8B4E3D10C0AD8B461
:10143000EDD1690AD8B4F8D100D23A50020801E0DF
:10144000FCD1490E4B6EBF6BC16B4C0EC06FDEDC26
:1014500083CFBFF01BA002D0FF0EBF1BBFC001F0A7
:1014600001C0B3F0B3C0BFF0C16B4E0EC06FCEDC95
:101470000D0E506E516AE7D13A50060801E0DDD1F9
:10148000B76B3E0EB66FF8DD01C0B3F0B3C0BBF072
:101490001BA002D0FF0EBB1BBBC08CFF4F0E4B6EC0
:1014A0000D0E4C6E4D6ACFD13A50030801E0C5D104
:1014B000300E3B6EB76B3B0EB66FDEDD01C0B2F097
:1014C000B251070801E2B9D1B2C0BFF051EC06F049
:1014D00002C0B5F001C0B4F0550E4B6EB66BB5C08E
:1014E000B3F0B239006EF00E00160050B313B3C063
:1014F000BFF0C16B4C0EC06F89DCB4C0B3F0B3C099
:10150000BFF0C16B4E0EC06F81DC0D0E506E516A84
:101510009AD13A50030801E090D1300E3B6EB76B80
:101520003B0EB66FA9DD01C0B2F0B251070801E26F
:1015300084D1B2C0BFF051EC06F002C0B5F001C0DA
:10154000B4F0510E4B6EB26BB25109081AE3010EA2
:10155000B225036A4B0F016E000E032203C0B8F0E0
:10156000036AB251900FE96E000E0320EA6EEFCFCE
:10157000B9F0B8C0EAFF01C0E9FFB9C0EFFFB22B74
:10158000E3D7010EB225036A4B0FE96E000E03206C
:10159000EA6EEF6A58D13A50060801E04ED1B76BB7
:1015A0003E0EB66F69DD01C0B3F0B3C0BBF0E5EC31
:1015B00002F0540E4B6E0D0E4C6E4D6A44D13A50F3
:1015C000020801E03AD1470E4B6EBF6BC16B4C0E67
:1015D000C06F1CDCD4D501C0B3F0B3C0BFF0C16B89
:1015E0004E0EC06F13DC0D0E506E516A2CD13A5066
:1015F000020801E022D14E0E4B6EB66BB76BB86B92
:1016000038C0B2F0B2C0BFF0C16B4C0EC06F06EC78
:1016100007F0B66BB76BB96B37C0B2F0B2C0BFF0B2
:10162000C16B4E0EC06F06EC07F0B66BB86BB96BB2
:1016300036C0B2F0B2C0BFF0C16B500EC06F06EC46
:1016400007F035C0B3F0D650B26FB351B227B2C075
:10165000BFF0C16B520EC06F06EC07F00D0E546E5A
:10166000556AF1D03A50070801E0E7D0B76B3C0E5D
:10167000B66F02DD01C0B2F0000E0409CA6EB2C03E
:10168000CBFFB76B3E0EB66FF7DC01C0B3F0B56BA6
:10169000B3C0B4F0B437B537B437B537B437B537AE
:1016A000B437B537F00EB417300E3F6EB76B3F0E40
:1016B000B66FE2DC01C0B3F0B351B427000EB5231E
:1016C000B5C002F0B4C001F0023201320232013280
:1016D000023201C0BEFF02320230300B006EBD503C
:1016E000CF0B0010BD6E500E4B6E0D0E4C6E4D6A42
:1016F000AAD03A50020801E0A0D0D76AD66A386A68
:10170000376A366A356A4D0E4B6E0D0E4C6E4D6A59
:101710009AD03A50060801E090D0B76B3C0EB66FF5
:10172000ABDC01C0B2F0B76B3E0EB66FA5DC01C0FA
:10173000B3F0B2C0BCF0B3C0BDF0D3EC02F0B66BF6
:10174000EFEC02F0570E4B6E0D0E4C6E4D6A7BD0D7
:101750003A50040801E071D0B76B3C0EB66F8CDCD8
:1017600001C0B2F0B2C0BEF0C9EC02F001C0B3F0EB
:10177000520E4B6EB3C0BFF0C16B4C0EC06F06EC87
:1017800007F00D0E4E6E4F6A5ED03A50020801E02F
:1017900054D06B6B4A0E4B6E0D0E4C6E4D6A53D08F
:1017A0003A50020801E049D04B0E4B6E6BC0BFF0BF
:1017B000C16B4C0EC06F06EC07F00D0E4E6E4F6AFB
:1017C00042D03A50020801E038D01D80C7EC03F047
:1017D000530E4B6E0D0E4C6E4D6A35D03A500208CA
:1017E00001E02BD01D90480E4B6E0D0E4C6E4D6AD5
:1017F0002AD05A0E4B6E0D0E4C6E4D6A31EC07F02E
:10180000F29CF29EF2BEFDD7FBD71DD03A500208E3
:1018100001E013D0560E4B6E340E4C6E330E4D6EEF
:101820000D0E4E6E4F6A0FD03A50020801E005D0FF
:1018300027EC04F0A8D44B6A06D0580E4B6E0D0E60
:101840004C6E4D6A00D03A6A396A31EC07F03E0EB0
:101850009EA8FED7AD6E200E9EA8FED7AD6EA9D570
:02186000030083
:020000040030CA
:0E0000000CCE1E11008781000FC00FE00F40D4
:00000001FF
;PIC18F4455
