:020000040000FA
:100000007CEF0BF02DEF08F0056ED8CF06F0E0CFB7
:1000100007F00001E9CF0DF0EACF08F0E1CF09F0D9
:10002000E2CF0AF0D9CF0BF0DACF0CF0F3CF14F017
:10003000F4CF15F0FACF16F000C00FF001C010F0A9
:1000400002C011F003C012F004C013F0F2AA2CEFAA
:1000500000F0F2B437EF08F09DA032EF00F09EB050
:1000600042EF08F0F2A838EF00F0F2B2F9EF07F033
:100070000FC000F010C001F011C002F012C003F078
:1000800013C004F00E8E0DC0E9FF08C0EAFF09C0DE
:10009000E1FF0AC0E2FF0BC0D9FF0CC0DAFF14C0B9
:1000A000F3FF15C0F4FF16C0FAFF055007C0E0FFCC
:1000B00006C0D8FF1000F2CF0EF0F29EF76AD00F04
:1000C000F66E000EF7220900F5500EBEF28E1200F9
:1000D000303132333435363738394142434445467E
:1000E000F76AF00FF66E000EF7220900F5501200C5
:1000F0001201100100000008EF10000400010102CD
:100100000301F76A120FF66E010EF7220900F5508F
:10011000120009022E000101004000090400000441
:10012000FF000000070581024000000705020240B1
:10013000000007058302400000070584024000001C
:10014000F76A500FF66E010EF7220900F550120003
:1001500004030904F76A640FF66E010EF722090022
:10016000F5501200380349006E0074006500670006
:100170007200690074007900200049006E0073006D
:100180007400720075006D0065006E0074007300ED
:100190002C00200049006E0063002E00F76AAC0FAF
:1001A000F66E010EF7220900F550120032035500D9
:1001B000530042004D003400300030002000440065
:1001C000610074006100200041006300710075004F
:1001D000690073006900740069006F006E00F2CF5F
:1001E0000EF0F29EF76AF80FF66E010EF722090084
:1001F000F5500EBEF28E120012034400450041007D
:1002000044004200450045004600F2CF0EF0F29E49
:10021000F76A240FF66E020EF7220900F5500EBEA3
:10022000F28E120056313500F2CF0EF0F29EF76AD0
:10023000420FF66E020EF7220900F5500EBEF28E46
:1002400012004F00F2CF0EF0F29EF76A5E0FF66ECC
:10025000020EF7220900F5500EBEF28E1200540075
:10026000F2CF0EF0F29EF76A7A0FF66E020EF722C8
:100270000900F5500EBEF28E12004D00F2CF0EF0C6
:10028000F29EF76A960FF66E020EF7220900F550FD
:100290000EBEF28E12004C00F2CF0EF0F29EF76A04
:1002A000B20FF66E020EF7220900F5500EBEF28E66
:1002B00012005700F2CF0EF0F29EF76ACE0FF66EE4
:1002C000020EF7220900F5500EBEF28E1200520007
:1002D000F2CF0EF0F29EF76AEA0FF66E020EF722E8
:1002E0000900F5500EBEF28E12005300F2CF0EF050
:1002F000F29EF76A060FF66E030EF7220900F5501C
:100300000EBEF28E12004800F2CF0EF0F29EF76A97
:10031000220FF66E030EF7220900F5500EBEF28E84
:10032000120058003F0EDE17000E956EDEC083FFF0
:100330008A8889948A96000089848A860000000051
:100340000000FF0E956E8A9889948A94000083CFEE
:10035000DFF089848A848A86DFC001F0000C8F86F2
:100360008F98000C2D5204E02D6A5A0E2E6EF7DF86
:10037000000CD96703D0DA6702D007D0DA2BD8C0D7
:10038000EEFFD92FFCD7DA2FFAD7EDEF05F03F0EAD
:10039000DE17000E956EDEC083FF8A8889948A96E8
:1003A000000089848A860000000000008A98DFC06F
:1003B00083FF89948A96000089848A848A86000C47
:1003C0009F51030B05E0010A04E0030A03E06FD02C
:1003D0006FD06ED0A3510F0B0DE0010A18E0030A95
:1003E00023E0010A2EE0070A39E0010A44E0030A8B
:1003F0004FE05BD0200EDE6F95DF01507F0BDA6F90
:10040000200EDE6FDAC0DFF0C2DFBF914FD0280EC2
:10041000DE6F88DF01507F0BDA6F280EDE6FDAC0E7
:10042000DFF0B5DFBF9342D02C0EDE6F7BDF0150D3
:100430007F0BDA6F2C0EDE6FDAC0DFF0A8DFBF951E
:1004400035D0300EDE6F6EDF01507F0BDA6F300E6D
:10045000DE6FDAC0DFF09BDFBF9728D0340EDE6F8F
:1004600061DF01507F0BDA6F340EDE6FDAC0DFF030
:100470008EDFBF991BD0380EDE6F54DF01507F0B2B
:10048000DA6F380EDE6FDAC0DFF081DFBF9B0ED08F
:100490003C0EDE6F47DF01507F0BDA6F3C0EDE6FE4
:1004A000DAC0DFF074DFBF9D01D000D001D000D0F2
:1004B00048EF05F0DB6BB0C0DCF0DC51800802E2F5
:1004C000090EDB6FAF510AE0010A0BE0030A2DE0D1
:1004D000010A4FE0070AD8B4DAD0DDD0630EDB6F33
:1004E000DBD0DB6BDB5107081FE3DC51120802E2B3
:1004F000090EDB6F036ADB51A70FE96E000E0320C4
:10050000EA6E036ADC51F2CFDFF0F29EE9DDDFBF75
:10051000F28EEF6EDC2BB107B15304E1040EAF6F26
:10052000DB2B02D0DB2BDED7B7D0DB6BDB51070830
:100530001FE3DC512E0802E2090EDB6F036ADB5178
:10054000A70FE96E000E0320EA6E036ADC51F2CFBA
:10055000DFF0F29ED6DDDFBFF28EEF6EDC2BB1074F
:10056000B15304E1040EAF6FDB2B02D0DB2BDED7DF
:1005700093D0B25107E0010A24E0030A41E0010AE6
:100580005EE083D0DB6BDB5107081AE3036ADB51C3
:10059000A70FE96E000E0320EA6E036ADC51F2CF6A
:1005A000DFF0F29ECDDDDFBFF28EEF6EDC2BB10708
:1005B000B15304E1040EAF6FDB2B02D0DB2BE3D78A
:1005C00065D0DB6BDB5107081AE3036ADB51A70F29
:1005D000E96E000E0320EA6E036ADC51F2CFDFF011
:1005E000F29EB8DDDFBFF28EEF6EDC2BB107B153A8
:1005F00004E1040EAF6FDB2B02D0DB2BE3D746D038
:10060000DB6BDB5107081AE3036ADB51A70FE96EC6
:10061000000E0320EA6E036ADC51F2CFDFF0F29E97
:10062000BDDDDFBFF28EEF6EDC2BB107B15304E10D
:10063000040EAF6FDB2B02D0DB2BE3D727D0DB6BB5
:10064000DB51070821E3036ADB51A70F016E000E9F
:10065000032203C0DEF0036ADC518D0FE96E000E49
:100660000320EA6EEFCFDFF0DEC0EAFF01C0E9FF52
:10067000DFC0EFFFDC2BB107B15304E1040EAF6F15
:10068000DB2B02D0DB2BDCD701D000D005D0DC6B1C
:10069000DCC0DBF001D000D0DB51B027DC6BDB51DC
:1006A000DC5D10E2036ADC51A70FE96E000E032047
:1006B000EA6EEFCFDDF0210EDE6FDDC0DFF067DE2A
:1006C000DC2BEDD7000CB06B030ED925E96E000EC4
:1006D000DA21EA6EEFCFAFF0020ED925E96E000EF7
:1006E000DA21EA6EEFCFB2F0AF51010A05E0030A5A
:1006F00006E0010A07E01DD0120EB16F1BD02E0ECE
:10070000B16F18D0B25107E0010A08E0030A09E00E
:10071000010A0AE00CD0040EB16F0AD0380EB16F96
:1007200007D0320EB16F04D0120EB16F01D015D0C8
:1007300001D013D0060ED925E96E000EDA21EA6E3B
:10074000EF50B15D09E008E3060ED925E96E000E11
:10075000DA21EA6EEFCFB1F0ADDE48EF05F09F5140
:10076000030B05E0010A08E0030A0BE077D0210E35
:10077000DE6FDF6B0CDE77D0210EDE6FDF6B07DE06
:1007800072D0A3510F0B0DE0010A18E0030A23E019
:10079000010A2EE0070A39E0010A44E0030A4FE0AB
:1007A0005BD0BFA106D0210EDE6F010EDF6FEFDD43
:1007B00004D0210EDE6FDF6BEADD4FD0BFA306D081
:1007C000210EDE6F010EDF6FE2DD04D0210EDE6F41
:1007D000DF6BDDDD42D0BFA506D0210EDE6F010E3E
:1007E000DF6FD5DD04D0210EDE6FDF6BD0DD35D0BD
:1007F000BFA706D0210EDE6F010EDF6FC8DD04D06B
:10080000210EDE6FDF6BC3DD28D0BFA906D0210E1D
:10081000DE6F010EDF6FBBDD04D0210EDE6FDF6BFC
:10082000B6DD1BD0BFAB06D0210EDE6F010EDF6F31
:10083000AEDD04D0210EDE6FDF6BA9DD0ED0BFADC3
:1008400006D0210EDE6F010EDF6FA1DD04D0210E78
:10085000DE6FDF6B9CDD01D000D005D0210EDE6F96
:10086000DF6B95DD00D0210EDE6FDF6B90DD48EF92
:1008700005F0A1C0C0F0A15352E0010ED96FD951CB
:1008800004081EE3D890D935DB6BDA6FB30EDA2596
:10089000E96E000EDB21EA6EEF6AD890D935DB6B8A
:1008A000DA6F010EDA25016E000EDB21036E0150B6
:1008B000B30FE96E000E0320EA6EEF6AD92BDFD783
:1008C000BF6B2B0EDE6F080EDF6F61DD280EDE6F53
:1008D000110EDF6F5CDD2F0EDE6F080EDF6F57DD50
:1008E0002C0EDE6F120EDF6F52DD2F0EDE6F010E4B
:1008F000DF6F4DDD330EDE6F080EDF6F48DD300E2B
:10090000DE6F130EDF6F43DD3B0EDE6F080EDF6F11
:100910003EDD380EDE6F140EDF6F39DD18D0280E85
:10092000DE6FDF6B34DD2C0EDE6FDF6B30DD300E03
:10093000DE6FDF6B2CDD340EDE6FDF6B28DD380EF3
:10094000DE6FDF6B24DD3C0EDE6FDF6B20DD48EFFA
:1009500005F09F51030B05E0010A04E0030A03E0E0
:1009600064D064D063D0A3510F0B0DE0010A0DE0F9
:10097000030A18E0010A23E0070A2EE0010A39E021
:10098000030A44E050D0BF814FD0280EDE6FCADC8E
:1009900001508009DA6F280EDE6FDAC0DFF0F7DC75
:1009A000BF8342D02C0EDE6FBDDC01508009DA6FB0
:1009B0002C0EDE6FDAC0DFF0EADCBF8535D0300EFA
:1009C000DE6FB0DC01508009DA6F300EDE6FDAC006
:1009D000DFF0DDDCBF8728D0340EDE6FA3DC0150F2
:1009E0008009DA6F340EDE6FDAC0DFF0D0DCBF8949
:1009F0001BD0380EDE6F96DC01508009DA6F380E9E
:100A0000DE6FDAC0DFF0C3DCBF8B0ED03C0EDE6FD2
:100A100089DC01508009DA6F3C0EDE6FDAC0DFF04E
:100A2000B6DCBF8D01D000D001D000D048EF05F07A
:100A30009F51600B2EE1A051010A0DE0090A0EE062
:100A40000E0A14E0060A16E0050A15E00C0A17E083
:100A50000A0A18E01AD0010ED86FB2D4020ED86F6D
:100A6000210EDE6FC0C0DFF092DC12D0DA6B9F0E79
:100A7000D96F29D674D6A1518009BE6F09D0030E53
:100A8000D86FF7D6040ED86F64D7050ED86F00D094
:100A900002D0090ED86F010EB36FB335D86FD837B7
:100AA000FC0ED817D8510109D96F230EDE6FD9C0BB
:100AB000DFF06DDC010EB31B2DEF06F02E0EDE6FA6
:100AC00031DC01C0DAF0DAAF0BD02F0EDE6F080E8A
:100AD000DF6F5DDC2F0EDE6F010EDF6F58DC52D052
:100AE000DA510F0BD96FDAA943D0D95341E0BB39A2
:100AF000DB6FDB37E00EDB17DA51200BDB5D03E148
:100B0000010EBB1B0BD02F0EDE6F080EDF6F3FDC1C
:100B10002F0EDE6F010EDF6F3ADC34D0D86BD95167
:100B2000D85D20E2D951070807E22D0EDE6F92EC66
:100B300001F001C0DAF014D0036AD851790F016EC8
:100B4000000E032201C0DCF003C0DDF02D0EDE6FCD
:100B500092EC01F0DDC0EAFFDCC0E9FF01C0EFFF6D
:100B6000D82BDDD72F0EDE6F080EDF6F10DC0AD01A
:100B70002F0EDE6F080EDF6F0ADC2F0EDE6F010E08
:100B8000DF6F05DC44EF06F0010ED76F0C0EDE6F51
:100B900092EC01F001C0D5F0D5C0D6F0D553D8B451
:100BA00079D0D551D715010A0FE0030AD8B466D021
:100BB000060AD8B466D00C0A64E0180A62E0300A6B
:100BC00060E0600A5EE05DD0EA6A9F0EE96ED86B75
:100BD000DA6B080ED96FB9EF01F0260EDE6F92ECDA
:100BE00001F001C0D2F0D2510F0BD36FD2AD36D08D
:100BF000D2A905D0D35303E1010ED46F45D0010E25
:100C0000B36FD351080802E2080ED36FD46BD351EF
:100C1000D45D16E2036AD4519F0F016E000E0322C9
:100C200001C0D8F003C0D9F0250EDE6F92EC01F0C0
:100C3000D9C0EAFFD8C0E9FF01C0EFFFD42BE7D746
:100C4000230EDE6F080EDF6FC7EC01F0270EDE6F9C
:100C5000080EDF6FC7EC01F0EBD60FD0AF5307E003
:100C6000AF6B230EDE6F080EDF6FC7EC01F0270EAF
:100C7000DE6F010EDF6FC7EC01F006D0080ED46FF7
:100C80001DD7090ED46F00D0D751FF0AD517D890C1
:100C9000D73784D733EF08F02A0EDE6F92EC01F0DD
:100CA00001C0D6F02B0EDE6F080EDF6FC7EC01F02F
:100CB000D6AD06D0D6AB04D0010EB51BB66B01D0B5
:100CC000B66BF2EF06F0320EDE6F92EC01F001C06F
:100CD000D6F0330EDE6F080EDF6FC7EC01F0D6AD35
:100CE00006D0D6AB04D0010EB71BB86B01D0B86BE1
:100CF000F2EF06F03A0EDE6F92EC01F001C0D6F092
:100D00003B0EDE6F080EDF6FC7EC01F0D6AD06D0EC
:100D1000D6AB04D0010EB91BBA6B01D0BA6BF2EF9F
:100D200006F0010ED56F0A0EDE6F92EC01F001C0E5
:100D3000D3F0D3535DE0D351D515010A0FE0030A78
:100D40004DE0060A4CE00C0A4BE0180A4AE0300A73
:100D500048E0600A46E0C00A44E043D0220EDE6F5D
:100D600092EC01F001C0D2F0D2AB35D0230EDE6F91
:100D7000080EDF6FC7EC01F0D2AD25D0AF5313E002
:100D80005AEC02F0B335D46FD437FC0ED417010EF1
:100D9000B31BD4510109D66F230EDE6FD6C0DFF02E
:100DA000C7EC01F00FD0BE5307E0040EDE6FBEC0EB
:100DB000DFF0C7EC01F0BE6B270EDE6F010EDF6FB8
:100DC000C7EC01F007D0AF6B270EDE6F010EDF6FAF
:100DD000C7EC01F002D0090ED46F04D05DD773D7F1
:100DE00089D700D0D551FF0AD317D890D537A1D7CE
:100DF00033EF08F08F888F96000CEA6AD40EE96E04
:100E0000EF500EE00C0E016E006A002EFED7012E90
:100E1000FBD7F70E006E002EFED700D0EF2EF2D7D4
:100E2000000CD46BD45104082DE3D890D435D66B84
:100E3000D56F010ED525016E000ED621036E01502F
:100E4000B30FE96E000E0320EA6EEF6AD4530DE192
:100E5000D890D435D66BD56FB30ED525E96E000E7C
:100E6000D621EA6E010EEF6E0BD0D890D435D66B3A
:100E7000D56FB30ED525E96E000ED621EA6EEF6A66
:100E8000D42BD0D7000C200EDE6FDF6BC7EC01F047
:100E9000040EDE6FDF6BC7EC01F0230EDE6F080E71
:100EA000DF6FC7EC01F02B0EDE6F080EDF6FC7ECB3
:100EB00001F0330EDE6F080EDF6FC7EC01F03B0E62
:100EC000DE6F080EDF6FC7EC01F0270EDE6F080E35
:100ED000DF6FC7EC01F02F0EDE6F080EDF6FC7EC7F
:100EE00001F0370EDE6F080EDF6FC7EC01F03F0E2A
:100EF000DE6F080EDF6FC7EC01F093DF270EDE6FA9
:100F0000010EDF6FC7EC01F0000C080EDE6F92ECF3
:100F100001F001C0D2F0BD51D217D2AD3AD0200EAF
:100F2000DE6F92EC01F001507F0BD56F200EDE6F6B
:100F3000D5C0DFF0C7EC01F0050EDE6FDF6BC7EC4C
:100F400001F0010ED46F59DF040EDE6F800EDF6FEB
:100F5000C7EC01F0200EDE6FDF6BC7EC01F093DF12
:100F6000AF6B050EDE6F020EDF6FC7EC01F0040EF3
:100F7000DE6F800EDF6FC7EC01F0200EDE6FDF6BDF
:100F8000C7EC01F0270EDE6F010EDF6FC7EC01F03A
:100F90002AD0D2A90FD0C00EBD6F090EDE6FBDC022
:100FA000DFF0C7EC01F0050EDE6F030EDF6FC7EC5C
:100FB00001F019D0D2AF15D0500EBD6F090EDE6F03
:100FC000BDC0DFF0C7EC01F0050EDE6F020EDF6F73
:100FD000C7EC01F0270EDE6F010EDF6FC7EC01F0EA
:100FE00002D0630ED36F33EF08F030EF08F033EF29
:100FF00008F0F292060EDE6F92EC01F001C0D0F024
:10100000D0AD03D0B2EC01F0BFD5D0A503D0B2EC87
:1010100001F087D6D0A302D0EDDE77D7D0A919D0C2
:101020000E0EDE6F92EC01F001A810D0AF530DE070
:10103000AF6B230EDE6F080EDF6FC7EC01F0270EDB
:10104000DE6F010EDF6FC7EC01F002D0090ED16F29
:101050000AD0D0A102D002EF00F0D0A701D0C5D7AE
:10106000D0AB01D0C4D7D053C5E138EF00F0010EAA
:101070003626000E37223822F29438EF00F08F9691
:101080008F98000C9E0ECF6E580ECE6E2E2A2E50CC
:1010900063080BE32EA007D02D5202E0ABDE02D096
:1010A000AFEC01F001D0EBDF10D0E9DF2D5207E00B
:1010B0002E50C80803E22E6A010E2D6E06D02E5067
:1010C0006E0803E22E6A010E2D6E9E9038EF00F03E
:1010D000AA6ACCC0A9FFA66A010EA66EA8CFCDF061
:1010E000CDC001F0000C080ECC6FF2DF01C0C7F0DC
:1010F000C75302E0198001D01990C76BC7510F0880
:1011000017E3036AC7511A0F016E000E032201C0D4
:10111000C9F003C0CAF0110EC725CB6FCC6FD8DF62
:10112000CAC0EAFFC9C0E9FF01C0EFFFC72BE6D77D
:10113000C76BC751110813E3036AC7518D0FE96EDE
:10114000000E0320EA6E036AC751F2CFCBF0F29E85
:10115000EFEC00F0CBBFF28EEF6EC72BEAD7020E9A
:10116000C86F300EC76FC751370829E3036AC851EB
:101170008D0F016E000E032201C0C9F003C0CAF03A
:10118000C7C0CCF0A5DFCAC0EAFFC9C0E9FF01C0F3
:10119000EFFF036AC8518D0FE96E000E0320EA6E5F
:1011A000EF3C09D0036AC8518D0FE96E000E032091
:1011B000EA6E300EEF6E020EC827C72BD4D7000C94
:1011C00000D000D00000A6CFCAF0CAB3F9D7AA6AEF
:1011D000C8C0A9FFC9C0A8FFA66A040EA66EF29EE9
:1011E000550EA76EAA0EA76EA682F28EA66A000CF6
:1011F000C7C02FF0020EC86F2FC0C9F0E1DFC7C013
:1012000096FF000CC7C030F0030EC86F30C0C9F0A5
:10121000D7DF30C097FF000C19A002D0FF0EC71B0C
:10122000C7C084FF000C19A002D0FF0EC71BC7C0A7
:1012300085FF000C200EC66EC00EC76E2AEF09F0A7
:10124000220EC66EC00EC76E2EEF09F0CD510208F9
:1012500004E1F0D7020E2A6E03D0F2D7030E2A6EF5
:10126000000C2A50020803E0020ECD6FEFDF8992D6
:101270003150F00BC86F32500F0BC96FC931036E7C
:10128000C831026E033202320332023203320232BA
:1012900002C0C7F0C950C7C0C9FFC730FEE3315014
:1012A0000F0BC86FC96BC835026EC935036E0236A5
:1012B00003360236033602360336F00E021602C03B
:1012C000C7F0C86B34500F0BC713C950C7C0C9FF54
:1012D000C730FEE333C0C7F0C950C7C0C9FFC7302D
:1012E000FEE38982000C2A50020803E0020ECD6F53
:1012F000ADDF8990C9505F0EC96EC730FEE3C9509B
:10130000C96AC730FEE3C9CFC7F0C950070EC96E1E
:10131000C730FEE3C950040EC96EC730FEE38980B2
:101320001FEF0CF0186AF2BE188EF29E030EDE6FED
:1013300092EC01F018BEF28E01502EEF0CF0C06B53
:10134000186AF2BE188EF29EDE6B010EDF6FC7ECDC
:1013500001F018BEF28E186AF2BE188EF29EDE6B95
:1013600092EC01F018BEF28E01B0F5D7186AF2BE09
:10137000188EF29E010EDE6F800EDF6FC7EC01F05B
:1013800018BEF28E186AF2BE188EF29EDE6BC40E84
:10139000DF6FC7EC01F018BEF28E186AF2BE188E2D
:1013A000F29E070EDE6FDF6BC7EC01F018BEF28E07
:1013B000186AF2BE188EF29E0F0EDE6F100EDF6FEF
:1013C000C7EC01F018BEF28E186AF2BE188EF29EBB
:1013D0000B0EDE6F0F0EDF6FC7EC01F018BEF28E42
:1013E000186AF2BE188EF29E0D0EDE6F030EDF6FCE
:1013F000C7EC01F018BEF28E500EBD6F186AF2BE37
:10140000188EF29E090EDE6FBDC0DFF0C7EC01F052
:1014100018BEF28E186AF2BE188EF29E070EDE6FAC
:10142000D60EDF6FC7EC01F018BEF28E186AF2BE5E
:10143000188EF29E1B0EDE6F0C0EDF6FC7EC01F0F4
:1014400018BEF28E186AF2BE188EF29E1F0EDE6F64
:10145000400EDF6FC7EC01F018BEF28E186AF2BEC4
:10146000188EF29E10DD18BEF28EF19CF288C00E2E
:10147000F212186AF2BE188EF29E050ED46FBDDC11
:1014800018BEF28E186AF2BE188EF29E040EDE6F3F
:10149000800EDF6FC7EC01F018BEF28E186AF2BE44
:1014A000188EF29E200EDE6FDF6BC7EC01F018BEC7
:1014B000F28E186AF2BE188EF29E050EDE6F020ED4
:1014C000DF6FC7EC01F018BEF28E186AF2BE188EFC
:1014D000F29E270EDE6F010EDF6FC7EC01F018BE23
:1014E000F28E186AF2BE188EF29EDE6B92EC01F05C
:1014F00018BEF28E01500809C86F186AF2BE188E25
:10150000F29EDE6BDF6FC7EC01F018BEF28E38EF93
:101510000CF0CA6BCB6B2A50020803E0020ECD6FB1
:1015200095DE8990C9518009CC6FC950CCC0C9FFE4
:10153000C730FEE381A204D0CA2BD8B4CB2BFAD794
:10154000C950410EC96EC730FEE3C950C96AC730E1
:10155000FEE3C9CFCCF0CB6BCCC0CAF0CA37CB37D7
:10156000CA37CB37CA37CB37CA37CB37F00ECA1793
:10157000C950400EC96EC730FEE3C950C96AC730B2
:10158000FEE3C9CFCCF0CC39006E0F0E0016005030
:10159000CA138980CAC001F0CBC002F0000CC8C0D9
:1015A000CAF0C7C0C9F0CAC003F0C9C0E9FFCAC0C9
:1015B000EAFFEF5204E0C92BD8B4CA2BF4D7C751C5
:1015C000C95D006EC851CA59036E00C001F0026EB9
:1015D000000C84CFC7F019A002D0FF0EC71BC7C0F4
:1015E00001F03DEF0DF0C9C0CCF0C8C0CBF0C7C0D2
:1015F000CAF0F00ECA17CA3B0F0ECA17CCC003F0D0
:10160000CBC0E9FFCCC0EAFF036ACA51F2CFCFF0EA
:10161000F29E5BEC00F0CFBFF28EEF6EC7C0CAF057
:101620000F0ECA17CB2BD8B4CC2BCCC003F0CBC039
:10163000E9FFCCC0EAFF036ACA51F2CFCFF0F29EB5
:101640005BEC00F0CFBFF28EEF6E000C85CFC7F0E1
:1016500019A002D0FF0EC71BC7C001F046EF0DF066
:10166000C8C0CCF0C7C0CBF0CA6BCA510F081AE390
:10167000036ACA51F2CFCDF0F29E5BEC00F0CDBF11
:10168000F28ECE6FCCC003F0CBC0E9FFCCC0EAFF36
:10169000EF50CE5D05E1CA51100DF3CFC9F002D075
:1016A000CA2BE3D7CB2BD8B4CC2BCA6BCA510F08AB
:1016B00018E3036ACA51F2CFCDF0F29E5BEC00F062
:1016C000CDBFF28ECE6FCCC003F0CBC0E9FFCCC053
:1016D000EAFFEF50CE5D03E1CA51C92702D0CA2B01
:1016E000E5D7C9C001F0000C2F50016EABEF0DF033
:1016F0003050016EB4EF0DF0F86AD09E0D8EEA6A9C
:10170000E96AC150C00B0F09C16E070EB46E196AA9
:101710002A6A2B6A2C6A010E2D6E2E6A2F6A306A95
:10172000316A326A336A346A356A366A376A386AC5
:101730008B6B8C6BBE6BC150C00B0F09C16EC2901E
:10174000B098C69A000EC66EC76ED190800ED56E48
:10175000CD6A000ECA6E000ECB6EB150480BB16E52
:10176000000E766E000E776E070EB46E9750210E47
:10177000006E002EFED7B450A19CB56A100E926E7A
:10178000898089828984E30E936ED00E946EFF0E59
:10179000956E966E976E000E986E8A848A868B82FE
:1017A000A2DC020ECC6F94DC01C0C1F0C1C0C7F056
:1017B0001FDD030ECC6F8CDC01C0C1F0C1C0C7F0CF
:1017C00021DD060ECC6F84DC01C0C1F0C1C0C7F0C2
:1017D00023DD070ECC6F7CDC01C0C1F0C1C0C7F0B7
:1017E00022DD090ECC6F74DC01C0C1F0C66BC1C034
:1017F000C5F0C5C0C6F0C56B0A0ECC6F69DC01C070
:10180000C1F0C151C513C6C032F0C5C031F00B0ED6
:10181000CC6F5EDC01C0C1F0C66BC1C0C5F0C5C0F5
:10182000C6F0C56B0C0ECC6F53DC01C0C1F0C151CA
:10183000C513C6C034F0C5C033F013DD54D5C16B39
:10184000C15107080AE3036AC151790FE96E000E1E
:101850000320EA6EEF6AC12BF3D764D501C0C1F053
:10186000C151020804E00400AFEC01F0FCD767D5D9
:10187000D76AD66AB80ED56EF28AA50ECD6E9D8057
:10188000C00EF2127953D8A4A3D02B52D8B49FD053
:101890002C5247E1C16BC36BC35101083FE31AC02F
:1018A000C4F0C4C0C9F035DE02C0C6F001C0C5F046
:1018B000010EC26FC25110082FE3C2510F0803E29C
:1018C00029C0C4F009D0036AC2511A0FE96E000E94
:1018D0000320EA6EEFCFC4F0F29CF29EF2BEFDD779
:1018E000D890C135036A390F016E000E032201C082
:1018F000C7F003C0C8F0C4C0C9F00BDEC8C0EAFF1F
:10190000C7C0E9FF02C0ECFFED5201C0EFFFC00EFF
:10191000F212C12BC22BCED7C32BBED7010E2C6E19
:1019200056D0B85354E1C16BC1511F0839E3D89068
:10193000C135036A390FE96E000E0320EA6EECCF61
:10194000C8F0ED52EFCFC7F0C7C0C2F0186AF2BEC0
:10195000188EF29E310EDE6FC2C0DFF0C7EC01F0D0
:1019600018BEF28ED890C135036A390FE96E000EA9
:101970000320EA6EECCFC8F0ED52EFCFC7F0C96B91
:10198000C8C0C2F0186AF2BE188EF29E310EDE6F29
:10199000C2C0DFF0C7EC01F018BEF28EC12BC4D775
:1019A000020EB86FB735C16FC137FC0EC117C151F8
:1019B0000309C76F186AF2BE188EF29E330EDE6FEF
:1019C000C7C0DFF0C7EC01F018BEF28E2C6A5AD700
:1019D000186AF2BE188EF29E2B0EDE6F080EDF6FB5
:1019E000C7EC01F018BEF28EC86B790EC76FD7DD59
:1019F00001C0C1F07951560A23E01F0A37E0060AF8
:101A00004FE01B0AD8B476D0130AD8B49DD0090A87
:101A1000D8B4B4D0030AD8B4E6D0180AD8B4FFD0EA
:101A2000190AD8B42FD11B0AD8B46DD1050AD8B47D
:101A300094D1010AD8B4BAD11B0AD8B4CFD1E5D118
:101A4000C12D01D001D0E1D1EA6A810EE96EF2CF59
:101A5000C7F0F29E000E05EC01F00A000900F550F7
:101A6000EE6E0009FBE1C7BFF28EE1D1C12D01D0BE
:101A700001D0CBD1490E816FACD501C0C1F0C1C03E
:101A8000C7F0C96B820EC86FAEDDE0D501C0C2F0F1
:101A9000C2C0C7F0C96B840EC86FA5DD866BC7D105
:101AA000C151050801E0B1D1C86B7A0EC76FD8DD0E
:101AB00001C0C1F0C1C0C7F00CEC09F0C86B7C0ECE
:101AC000C76FCEDD01C0C2F0C2C0C7F013EC09F091
:101AD000EA6A810EE96EF2CFC7F0F29E000E14ECB6
:101AE00001F00A000900F550EE6E0009FBE1C7BFE6
:101AF000F28E9DD1C151050801E087D1C86B7A0EE5
:101B0000C76FAEDD01C0C1F0C1C0C7F0F8EC08F08E
:101B1000C86B7C0EC76FA4DD01C0C2F0C2C0C7F0A5
:101B200002EC09F0EA6A810EE96EF2CFC7F0F29E8C
:101B3000000E22EC01F00A000900F550EE6E0009DB
:101B4000FBE1C7BFF28E73D1C12D01D001D05DD1B1
:101B5000470E816FC9D501C0C1F0C1C0C7F0C96BC4
:101B6000820EC86F40DDC4D501C0C2F0C2C0C7F04C
:101B7000C96B840EC86F37DD866B59D1C12D01D07A
:101B800001D043D14E0E816FC76BC86BC96B38C093
:101B9000C1F0C1C0C7F0C96B820EC86F24DDC76B2E
:101BA000C86BCA6B37C0C1F0C1C0C7F0C96B840E27
:101BB000C86F19DDC76BC96BCA6B36C0C1F0C1C035
:101BC000C7F0C96B860EC86F0EDD35C0C2F0D650A7
:101BD000C16FC251C127C1C0C7F0C96B880EC86FA1
:101BE00002DD8A6B24D1C12D01D001D00ED1D76A7C
:101BF000D66A386A376A366A356AEA6A810EE96EE9
:101C0000F2CFC7F0F29E000E30EC01F00A0009009E
:101C1000F550EE6E0009FBE1C7BFF28E08D1C1514D
:101C2000030801E0F2D0C86B7A0EC76F19DD01C05E
:101C3000C1F0C1C0C9F06DDC02C0C6F001C0C5F082
:101C4000C1C0C9F066DC02C0C6F001C0C5F0550EC7
:101C5000816FC1C0C7F0C96B820EC86FC4DCC76B8F
:101C6000C6C0C2F0C2C0C7F0C96B840EC86FBBDC6F
:101C7000C5C0C2F0C2C0C7F0C96B860EC86FB3DC66
:101C8000886BD5D0C151050801E0BFD0300E796F07
:101C9000C86B790EC76FE4DC01C0C1F0300E7A6FFB
:101CA000C86B7A0EC76FDCDC01C0C2F0C66BC2C065
:101CB000C5F0C5C0C6F0C56BC86B7C0EC76FD0DC65
:101CC00001C0C2F0C251C513C15305E1C6C032F014
:101CD000C5C031F004D0C6C034F0C5C033F031EC1B
:101CE00009F0EA6A810EE96EF2CFC7F0F29E000EAB
:101CF0003EEC01F00A000900F550EE6E0009FBE130
:101D0000C7BFF28E94D0C151050801E07ED0C86BE8
:101D10007A0EC76FA5DC01C0C1F0C86B7C0EC76F1F
:101D20009FDC01C0C2F0C1C0C8F0C2C0C9F0E0EC85
:101D300008F073EC08F0EA6A810EE96EF2CFC7F0A2
:101D4000F29E000E4CEC01F00A000900F550EE6E18
:101D50000009FBE1C7BFF28E6AD0C151030801E060
:101D600054D0C86B7A0EC76F7BDC01C0C1F0C1C014
:101D7000CCF068EC08F001C0C2F0EA6A810EE96EAE
:101D8000F2CFC7F0F29E000E5AEC01F00A000900F3
:101D9000F550EE6E0009FBE1C7BFF28EC2C0C7F07E
:101DA000C96B820EC86F1FDC846B41D0C12D01D07E
:101DB00001D02BD0010E2B6EEA6A810EE96EF2CFB4
:101DC000C7F0F29E000E68EC01F00A000900F55021
:101DD000EE6E0009FBE1C7BFF28E29D0C12D01D004
:101DE00001D013D02B6AEA6A810EE96EF2CFC7F0F8
:101DF000F29E000E76EC01F00A000900F550EE6E3E
:101E00000009FBE1C7BFF28E12D0EA6A810EE96ECB
:101E1000F2CFC7F0F29E000E84EC01F00A00090038
:101E2000F550EE6E0009FBE1C7BFF28E00D0C16B2A
:101E3000C15107080AE3036AC151790FE96E000E28
:101E40000320EA6EEF6AC12BF3D7C86B810EC76F10
:101E5000CFEC0AF001C0C2F0C16BC251C15D17E204
:101E6000036AC151810FE96E000E0320EA6EEFCFC5
:101E7000C7F0186AF2BE188EF29E290EDE6FC7C038
:101E8000DFF0C7EC01F018BEF28EC12BE6D7B535F6
:101E9000C16FC137FC0EC117C1510309C76F186A62
:101EA000F2BE188EF29E2B0EDE6FC7C0DFF0C7ECBD
:101EB00001F018BEF28E186AF2BE188EF29E2F0E36
:101EC000DE6F080EDF6FC7EC01F018BEF28E186AE5
:101ED000F2BE188EF29E2F0EDE6F010EDF6FC7EC82
:0A1EE00001F018BEF28ECED403000C
:020000040030CA
:0E0000000026060E830381000FC00FE00F40A4
:00000001FF
;PIC18F6520
