:1000000008308A0000280000FF00030E8301A600CC
:100010007F08A5000A08AD008A01A50E0408A70004
:100020002008A8002108A9002208AA002308AB0084
:100030002408AC00831383128C308400801E222895
:100040008C1A3F288C308400001C28280C1841286A
:100050008B1E2C280B194328270884002808A00091
:100060002908A1002A08A2002B08A3002C08A4003C
:100070002D088A00260E8300FF0E7F0E09008A11CC
:10008000DC288A1190288A117A280A108A100A110D
:1000900082070D3449346E347434653467347234F5
:1000A000693474347934203449346E34733474349C
:1000B000723475346D3465346E34743473342C3466
:1000C000203449346E3463342E3420344D346F344C
:1000D000643465346C3420343234333432344D3447
:1000E0003334303430342034763434342E343634AF
:1000F0000D3400340130D107003003180130D2072D
:10010000003003180130D3070B118A112C28071473
:10011000871000348714071000348710071000344C
:10012000F1308F0099308E006400B40A0319B50ACB
:10013000C80A0319C90A4908033C031CB628031D51
:10014000A5284808E73C031CB62848080139A00048
:10015000A301200823040319B428C7080319B228EF
:100160008720B3288A20B5288D20D9288D20C7085C
:100170000319CA284908063C0318C928FF3A031D79
:10018000C5284808D03C0318C928C901C801013056
:10019000C700D9284908033C0318D928FF3A031D92
:1001A000D52848084C3C0318D928C901C80101309A
:1001B000C7000C108A112C2887208C1EDD281A08F5
:1001C000D40054080A3C0319EF2856305507840020
:1001D00054088000D50A55080F3C031CD5038C1227
:1001E0008A112C2803178F01831603132508831205
:1001F00003178D00013083168C0083120C088316C0
:100200000313A60026088312A100003408308316C9
:10021000A5008312F22021088316A000A00803196C
:10022000152983122F141729831683122F100D30CE
:100230008316A5008312F22021088316A000A008CF
:10024000031926298312AF14282983168312AF10AD
:10025000003403178F018316031321088312031739
:100260008D00831603132208831203178C000313D7
:100270008B13831603170C1555308D00AA308D0093
:100280008C14831203138B170000831603170C08BA
:100290000313A300A31C4E298312442983120034A4
:1002A000831620088312CA0002308316A10083122D
:1002B0004A088316A200831229214A088316860061
:1002C00083120034831620088312CB000330831678
:1002D000A10083124B088316A200831229214B0828
:1002E000831688008312003483162E08023C031DF7
:1002F0008429213083129400C03083169400023088
:100300008312B1008D298316223083129400C030ED
:100310008316940003308312B10000343108023C8C
:100320000319972902308316AE00831274218512B7
:100330004C08F0398316A10083124D080F3983163B
:10034000A200220C8312A3008316210C8312A200A8
:10035000A30CA20CA30CA20CA30CA20C22088316C3
:10036000A0008312130883162008831293008316BB
:100370001418BC298312B72983124C080F3983162D
:10038000A100A201210D8312A2008316220D831267
:10039000A300A20DA30DA20DA30DA20DA30DF0307D
:1003A000A20522088316A000A10183124F080F396D
:1003B0008316A2008312A3018316A00483121308DC
:1003C000831620088312930083161418E9298312D8
:1003D000E42983124E088316A000831213088316A3
:1003E00020088312930083161418F8298312F32926
:1003F000831285160034A1308400000803190D2AE9
:100400000430A100A001A00B032AA10B022AC730CF
:10041000A000A00B092A800B002A8A111F2A0908B4
:1004200007398316A0000310A00C8312300883162E
:1004300020020319492A6430A1008312FB29831684
:1004400020088312B0003008003A0319312A013A1B
:100450000319372A033A03193D2A013A0319432A9B
:10046000312A17308316990022309800492A0B3020
:100470008316990022309800492A03308316990088
:1004800022309800492A01308316990022309800C2
:10049000492A831200348316A001200883124520C4
:1004A0008316A00A8312A00020080C1E552A99006A
:1004B000303083162002031D4D2A8312003404308D
:1004C0008316A5008312F2208316A201831221084D
:1004D0008316A1002108A200A1010530A500831206
:1004E000F22021088316A1070318A20AA108031D00
:1004F000832AA208031D832A8312B2103211B70186
:10050000B601982A8316210B8C2AA208031D8C2A77
:100510008312B214982A831683123215B501B401DE
:10052000831622088312B700831621088312B600AF
:1005300019308316A5008312F22021088316A0002B
:10054000A0080319A72A8312B215A92A83168312B9
:10055000B2111A308316A5008312F22021088316E7
:10056000A000A0080319B82A83123216BA2A8316EB
:100570008312321210308316A5008312F220210854
:10058000B8003808083C0318C72A0830B80083169A
:10059000A0012008073C031CDF2A39302007A300F4
:1005A00011302007A400A5008312F220831623082F
:1005B00084008312210880008316A00AC92A8312AE
:1005C0000034AF1CED2A3108033C0319EC2A033038
:1005D0008316AE0083127421F62A3108023C0319F7
:1005E000F62A02308316AE0083127421051083169A
:1005F00029080F39AD002D168312130883162D0814
:100600008312930083161418072B8312022BAA0857
:100610000319182B83121308E03093008316141863
:10062000132B83120E2B831213088316AD00252B78
:10063000831213086030930083161418212B831241
:100640001C2B831213088316AD002D080F39AB0045
:10065000AC012B08AC00AB01831213089301831685
:100660001418342B83122F2B831213088316AD001A
:100670002D08AB048312051483162B088312A100E6
:1006800083162C088312A200003483162A08AC00BB
:100690002908F0398312A000A00E0F30A005200811
:1006A000303E8316AB002B08393C0318592B07301A
:1006B000AB072C0884002B088000AC0A29080F39EE
:1006C000303EAB002B08393C0318682B0730AB07D2
:1006D0002C0884002B0880008312003466308316B7
:1006E000A9002908840080080319832B29088400A5
:1006F0000008AA0083120C1A7F2B83167A2B99000C
:100700008316A90A712B8312C70803198D2BC70101
:100710000330C9008430C8008A200034B2080319AD
:10072000392DB301321C952B3314321DA42B3708FD
:100730003502031CA42B031DA12B34083602031819
:10074000A42BB501B4013315B21C212CB314060837
:100750008316A90083122F1CB12BFF308316A90624
:100760008312831629088312A10021088316A00092
:100770002008831241020319C22B8316200883121A
:10078000C100B31608088316A90083122F1CCC2BB6
:10079000FF308316A9068312831629088312A1004D
:1007A00021088316A0002008831242020319DD2BC2
:1007B000831620088312C200B3160108500783165F
:1007C000A500831251088316A600003003180130DB
:1007D000A607831252088316A700003003180130C1
:1007E000A707831253088316A800003003180130AE
:1007F000A807250883124302031D102C8316260820
:1008000083124402031D102C83162708831245020D
:10081000031D102C83162808831246020319212C6D
:10082000831628088312C600831627088312C50082
:10083000831626088312C400831625088312C3007A
:100840003317B3080319392D3318282C331DDF2C27
:100850008316A20183123808831622020318A32CE0
:10086000393022078400801F6C2C39302207840025
:1008700000080F39A0002008A9000130AA00831247
:10088000E12222088316A400831221088316A30004
:1008900055308312E6008316A9012408A100200E1A
:1008A0008312A000F030A00520088316A1042108BF
:1008B000A9006730AA008312452383162308A100EC
:1008C0002108A9006930AA00831245230D30EB00EE
:1008D000EC016E23A02C8316393022078400000817
:1008E0000F39A0002008A900AA018312E1222208E2
:1008F0008316A400831221088316A30051308312AB
:10090000E6008316A9012408A100200E8312A0008E
:10091000F030A00520088316A1042108A900673043
:10092000AA008312452383162308A1002108A900E9
:100930006930AA00831245230D30EB00EC016E23D1
:100940008316A20A2A2C8312B21DC72C060883160E
:10095000A90083122F1CB02CFF308316A906831226
:10096000831629088312A1002108C10008088316F4
:10097000A90083122F1CC02CFF308316A9068312F6
:10098000831629088312A1002108C200B316321E63
:10099000DF2C01085007C3005108C40000300318C1
:1009A0000130C4075208C500003003180130C507E4
:1009B0005308C600003003180130C6073317B31EB2
:1009C000F92C4930E60041088316A0002008A90050
:1009D0006730AA008312452342088316A10021082C
:1009E000A9006930AA00831245230D30EB00EC0109
:1009F0006E23331F392D4E30E6008316A901AA015C
:100A0000AB01831246088316AC00A0002008A900A1
:100A10006730AA00831245238316A901AA01831215
:100A200045088316AB00AC012B08A0002008A900E4
:100A30006930AA00831245238316A9018312440852
:100A40008316AA00AB01AC012A08A0002008A90067
:100A50006B30AA008312452343088316A0002008A8
:100A6000A9006D30AA00831245230D30EF00F0017C
:100A70006E238A155F2983162008A300A10123088D
:100A800084000008A40024082F3C0318572D2408D4
:100A9000393C031C572D2308840030300002831298
:100AA000A000200E8316A100F030A1057C2D2308A4
:100AB00084000008A4002408403C0318702D24087A
:100AC0005A3C031C702D23088400413000020A3E6A
:100AD0008312A000200E8316A100F030A1057C2D0A
:100AE00023088400613000020A3E8312A000200E19
:100AF0008316A100F030A105A30A23088400000892
:100B0000A40024082F3C03188F2D2408393C031C13
:100B10008F2D2308840030300002A200A82D230866
:100B200084000008A4002408403C0318A22D2408D7
:100B30005A3C031CA22D23088400413000020A3EC7
:100B4000A200A82D23088400613000020A3EA20002
:100B50002208A10721088312A10000344A08A1003D
:0C0B60008A151A2B4B08A1008A15282BBF
:1010000084011F30830583161F149F141F159F1121
:1010100007309C001C0883120D13173083169900AB
:1010200022309800903083129800AF01B101B201D4
:10103000B401B501B601B701B8010130C700C8015C
:10104000C901CA01CB01CC01CD01CE01CF01D00134
:10105000D101D201D301F70183161F149F141F156C
:101060009F1183121F10073083169C0005080B3058
:101070008312A000A00B3A280000000083161C0871
:1010800083120D1383169D010912831294120030EE
:101090009400831694001030850083120514851681
:1010A000FF30831686008800D03087000914891429
:1010B00009158312C70803196528C7010330C90041
:1010C0008430C8008A118A208A158A1106218A155F
:1010D00002308316A5008A118312F2208A15210896
:1010E000F80078088316A0008A11831250218A150F
:1010F00003308316A5008A118312F2208A15210875
:10110000F80078088316A0008A11831262218A15DC
:1011100006308316A5008A118312F2208A15210851
:10112000F80078088316A00083122F1C9B28FF303C
:101130008316A006831283162008831286000730C8
:101140008316A5008A118312F2208A152108F8005F
:1011500078088316A00083122F1CB228FF30831654
:10116000A006831283162008831288000930831694
:10117000A5008A118312F2208A152108F800FD01CA
:101180007808FC007C08FD00FC010A308316A500ED
:101190008A118312F2208A152108F8007808FC04CD
:1011A0007D08CD007C08CC000B308316A5008A1189
:1011B0008312F2208A152108F800FD017808FC004E
:1011C0007C08FD00FC010C308316A5008A118312F7
:1011D000F2208A152108F8007808FC047D08CF0069
:1011E0007C08CE008A118E218A15D501D401F80120
:1011F00078080F3C031C02295630780784008001D0
:10120000F80AF828FF30B000810183160108C739B9
:101210003838810083128B168530900083160C14A9
:101220008C16C03083128B040030A1000438920069
:10123000003083169200831207110C30970095013D
:101240000930A00007308101813084000008F039A6
:101250000738800064000008F739A019F03920042D
:1012600080008A110F228A158A114B228A158A1151
:101270005F228A1506088316A90083122F1C4429B1
:10128000FF308316A9068312831629088312A10052
:101290002108C10008088316A90083122F1C5429B5
:1012A000FF308316A9068312831629088312A10032
:1012B0002108C200C601C501C401C301F6016400D2
:1012C00054080D3C03196A298A110F228A158A11C4
:1012D0008E2B8A155608603C0318722956087A3CF2
:1012E0000318D6125608493A0319AD29063A0319CC
:1012F000E9291E3A0319212A043A0319642A193AE2
:101300000319A82A183A0319E82A133A0319122BC9
:10131000093A0319382B1E3A03198C2B1D3A03196D
:10132000DD2B1A3A0319EC2B053A0319162C183A3F
:1013300003193B2C013A0319462C183A0319592C6E
:101340001B3A0319672C123A0319722C0C3A031931
:10135000802C693A03198E2C972C5508023C031DEA
:10136000972C4930E60006088316A90083122F1C2B
:10137000BD29FF308316A90683128316290883121C
:10138000A1002108F80078088316A9006730AA0098
:101390008A11831245238A1508088316A90083122F
:1013A0002F1CD629FF308316A9068312831629081D
:1013B0008312A1002108F90079088316A900693079
:1013C000AA008A11831245238A150D30EB00EC0127
:1013D0009E2C5508063C031D972C57308316A00001
:1013E0008A1183123B258A152108F8007808831694
:1013F000A00083122F1C002AFF308316A006831240
:10140000831620088312860059308316A0008A11A3
:1014100083123B258A152108F90079088316A0005C
:1014200083122F1C172AFF308316A00683128316FF
:101430002008831288004F30E6000D30E700E801F5
:101440009E2C5508033C031D972C3030D600563097
:101450008316A0008A1183123B258A152108F80003
:1014600078088316A900AA018A118312E1228A153D
:101470002208FD002108FC005130E6008316A0017F
:1014800083127D088316A1008312F900780EA00054
:10149000F030A0052008F90479088316A900673008
:1014A000AA008A11831245238A157C08F90079085D
:1014B0008316A9006930AA008A11831245238A1570
:1014C0000D30EB00EC019E2C5508033C031D972CBE
:1014D0003030D60056308316A0008A1183123B2587
:1014E0008A152108F80078088316A9000130AA009F
:1014F0008A118312E1228A152208FD002108FC00CE
:101500005530E6008316A00183127D088316A100E2
:101510008312F900780EA000F030A0052008F9042D
:1015200079088316A9006730AA008A11831245231F
:101530008A157C08F90079088316A9006930AA0089
:101540008A11831245238A150D30EB00EC019E2C85
:101550005508063C031D972C3030D60056308316B4
:10156000A0008A1183123B258A152108F80030302B
:10157000D70057308316A0008A1183123B258A15A5
:101580002108F900FD017908FC007C08FD00FC0140
:1015900059308316A0008A1183123B258A15210831
:1015A000F9007908FC04F808031DDB2A7D08CD004A
:1015B0007C08CC00DF2A7D08CF007C08CE008A1191
:1015C0008E218A154C30E6000D30E700E8019E2C94
:1015D0005508063C031D972C57308316A0008A112E
:1015E00083123B258A152108F80078088316A0008D
:1015F0008A11831250218A1559308316A0008A114E
:1016000083123B258A152108F90079088316A0006A
:101610008A11831262218A155430E6000D30E700EA
:10162000E8019E2C5508023C031D972C4730E6002C
:101630008A11AE2D8A152108F80078088316A900B2
:101640006730AA008A11831245238A158A11B22DA8
:101650008A152108F90079088316A9006930AA00C3
:101660008A11831245238A150D30EB00EC019E2C64
:101670005508023C031D972C4E30E6008316A0014E
:10168000A101A201831253088316A3008312F8005C
:1016900078088316A9006730AA008A1183124523AF
:1016A0008A158316A001A101831252088316A20095
:1016B000A30122088312F80078088316A900693074
:1016C000AA008A11831245238A158316A00183126A
:1016D00051088316A100A201A30121088312F8007A
:1016E00078088316A9006B30AA008A11831245235B
:1016F0008A155008F9000108F8007908F8077808F9
:101700008316A9006D30AA008A11831245238A1519
:101710000D30EF00F0019E2C5508073C031D972C5F
:1017200057308316A0008A1183123B258A152108A1
:10173000F8000030A1000438920078088316920067
:101740005930A0008A1183123B258A152108F9001F
:10175000FD017908FC00FC0DFD0DFC0DFD0DFC0DDF
:10176000FD0DFC0DFD0DF030FC053030DA005A3077
:101770008316A0008A1183123B258A152108F900DF
:101780007908FC070318FD0A7D08A2007C08A10067
:10179000A20CA10CA20CA10CA20C21089500A20C79
:1017A000220C3039A0001708CF39200497005030A0
:1017B000E6000D30E700E8019E2C5508023C031DB1
:1017C000972C8101D301D201D101D0014D30E60027
:1017D0000D30E700E8019E2C5508063C031D972CB0
:1017E00057308316A0008A1183123B258A152108E1
:1017F000F80059308316A0008A1183123B258A1500
:101800002108F90078088316A1008312790883164D
:10181000A2008A11831229218A158A1106218A15AC
:101820005730E6000D30E700E8019E2C5508043CD7
:10183000031D972C57308316A0008A1183123B2575
:101840008A152108F80078088316A5008A118312EA
:10185000F2208A152108F9005230E6007908831633
:10186000A9006730AA008A11831245238A150D301A
:10187000E900EA019E2C5508023C031D972CF60155
:101880004A30E6000D30E700E8019E2C5508023C86
:10189000031D972C4B30E60076088316A9006730AD
:1018A000AA008A11831245238A150D30E900EA0146
:1018B0009E2C5508023C031D972C32148A115F227E
:1018C0008A155330E6000D30E700E8019E2C5508DC
:1018D000023C031D972C32104830E6000D30E70023
:1018E000E8019E2C5A30E6000D30E700E8018A112D
:1018F0006E238A150B138B138B1B7B2C7A2C9E2C3F
:101900005508023C031D972C5630E6003430E700A2
:101910003730E8000D30E900EA019E2C5508023C02
:10192000031D972C8A114B228A15E6019E2C5830F4
:10193000E6000D30E700E801F60A9E2CD501D4013F
:0A1940008A116E238A155F296300E7
:02400E00761F1B
:00000001FF
;PIC16F874A
