:1000000000308A007D2E0000FF00030E8301A10056
:100010007F08A0000A08A8008A01A00E0408A20018
:100020007708A3007808A4007908A5007A08A6003C
:100030007B08A700831383120B1E20288B18982996
:100040008C308400801E26288C1A9C298C308400D9
:10005000801C2C288C18B329220884002308F70060
:100060002408F8002508F9002608FA002708FB00F4
:1000700028088A00210E8300FF0E7F0E09000A1057
:100080008A100A118207203425346C3475342034E8
:100090004234503453340D3400340A108A100A119B
:1000A000820720346D3461346E34753461346C34BD
:1000B00020346634693478346534643420346234EE
:1000C0006134753464340D3400340A108A100A1116
:1000D000820720346134753474346F346D34613484
:1000E0007434693463340D3400340A108A100A11F0
:1000F000820753342F344E34203400340A108A10CF
:100100000A1182074D346F34643465342034253449
:100110005834203428344D347834203477346834DB
:10012000653472346534203478343D3431342034CD
:100130006F34723420343234293400340A108A1077
:100140000A118207443465346634613475346C3482
:1001500074342034423461347534643420342534AA
:100160005834203428344234783420347734683496
:10017000653472346534203478343D343134393464
:10018000293400340A108A100A1182075334693462
:100190006C3465346E347434203450346F347734B6
:1001A0006534723420345534703420344F3446343E
:1001B0004634203428345334783420347734683447
:1001C000653472346534203478343D34303420342E
:1001D0006F3472342034313429340D3400340A1031
:1001E0008A100A11F63E03188A0A820053346934D1
:1001F0006C3465346E347434203450346F34773456
:100200006534723420345534703420344F344E34D5
:1002100020342834533478342034773468346534C7
:1002200072346534203478343D34303420346F34C3
:1002300072342034313429340D3400340A148A10D5
:100240000A11820745347834693474340D3400342B
:100250000A148A100A118207453472347234213428
:100260000D3400340A148A100A1182070D344934FF
:100270006E34743465346734723469347434793468
:10028000203449346E3473347434723475346D34BC
:1002900065346E347434733420345834503420341C
:1002A00043346F346E347634653472347434653468
:1002B00072342034763432342E34303430340D34C9
:1002C00000340A148A100A118207503472346F34D1
:1002D0006734723461346D346D3469346E3467342C
:1002E00020346D346F3464346534203465346E34B6
:1002F000743465347234653464342E340D3400340F
:100300000A148A100A1182074D34613469346E343C
:1003100020346C346F346F3470342034663461347C
:1003200069346C3475347234653421340D340034DE
:1003300005108B108A112C288C1E9C291A08A900E4
:10034000CC080319A529CD0AB0292A303207840028
:1003500029088000B20A3208073C0318B029B2030A
:100360008C128A112C28CE0A0319CF0A8C108A11FC
:100370002C285E0883169B0001309C001A0883120B
:10038000DF005F08F8000034DB1BD7290F30F700CF
:100390005A0EF7050A3077020318D1293030F707D3
:1003A000D3295B08F70777080C1ED42999000F3072
:1003B000DA050A305A020318DF293030E129DB134D
:1003C0005B08DA075A080C1EE32999000034F7018C
:1003D000F801F901FA01F001F101F201F3016F08EE
:1003E0006E046D046C040319252A2030F4000310F8
:1003F000E80DE90DEA0DEB0DF00DF10DF20DF30D29
:100400006F087302031D0E2A6E087202031D0E2A66
:100410006D087102031D0E2A6C087002031C1F2A4E
:100420006C08F0026D08031C6D0FF1026E08031CCE
:100430006E0FF2026F08031C6F0FF3020314F70D27
:10044000F80DF90DFA0DF40BF72900007030840057
:1004500000340408E2003B30E7009A30E600CA307E
:10046000E500E4010A30E3006108EB006008EA00FF
:100470005F08E9005E08E8006708EF006608EE0024
:100480006508ED006408EC00E7210008DE00840A3E
:100490000008DF00840A0008E000840A0008E10088
:1004A000FD308407F708031D672A6308013A031922
:1004B000672A62080319682A0F3963020319622A3E
:1004C00003186E2AF030621B0030F700682AE20140
:1004D0003030F70777080C1E6B2A99006708EB008D
:1004E0006608EA006508E9006408E800EF01EE012B
:1004F000ED010A30EC00E7217A08E7007908E60010
:100500007808E5007708E400E30B342A852C5908C5
:10051000DC00DA015C0884000008DD005D082F3C87
:100520000318A02A5D08393C031CA02A5C0884003B
:1005300030300002F700770EDA00F030DA05C12A19
:100540005C0884000008DD005D08403C0318B72A01
:100550005D085A3C031CB72A5C0884004130000245
:100560000A3EF700770EDA00F030DA05C12A5C089F
:100570008400613000020A3EF700770EDA00F030A6
:10058000DA05DC0A5C0884000008DD005D082F3C09
:100590000318D42A5D08393C031CD42A5C08840063
:1005A00030300002DB00ED2A5C0884000008DD002A
:1005B0005D08403C0318E72A5D085A3C031CE72A03
:1005C0005C088400413000020A3EDB00ED2A5C0832
:1005D0008400613000020A3EDB005B08DA075A083B
:1005E000F8000034590883169B0083125A088316BA
:1005F0009A0083128B1383161C1555309D00AA3068
:100600009D009C1483128B17000083161C08831214
:10061000DB00DB18042B0034593084000008031978
:100620001E2B0430F800F701F70B142BF80B132BDB
:10063000C730F700F70B1A2B800B112B0034D601B3
:10064000D608031D622D29080D3C0319292B000033
:10065000232B2A083F3A0319582B683A0319B72C61
:10066000203A0319B72C253A0319D42C203A031940
:10067000D42C3F3A0319F12C203A0319F12C2F3ACC
:1006800003190A2D203A03190A2D313A0319242D92
:10069000203A0319242D223A03193E2D203A03193A
:1006A0003E2D363A03193E2D203A03193E2D512D89
:1006B000D90159087520D90AF70077080C1E5E2B5E
:1006C000990004305902031D592B1030DE00B92166
:1006D0007808D7005708DA003730DB00C421113022
:1006E000DE00B9217808D7005708DA003730DB0080
:1006F000C4211230DE00B9217808D7005708DA008B
:100700003730DB00C4211330DE00B9217808D70070
:100710005708DA003730DB00C4210D300C1E8E2B59
:100720009900DE01B9217808D700D90159087E2047
:10073000D90AF70077080C1E9B2B99000530590247
:10074000031D962B5708DA003730DB00C421073031
:10075000DA005A087E20DA0AF70077080C1EAE2B62
:1007600099001B305A02031DA92BDE01B92178081C
:10077000D9005908023C031DCB2BDA015A084D2041
:10078000DA0AF70077080C1EC32B990013305A02BF
:10079000031DBE2BD82BDA015A086520DA0AF700B0
:1007A00077080C1ED12B99000B305A02031DCC2B5D
:1007B0000130DE00B9217808D700D90159089E2000
:1007C000D90AF70077080C1EE32B99000D30590267
:1007D000031DDE2B5708DA003730DB00C4210F3051
:1007E000DA005A089E20DA0AF70077080C1EF62B6A
:1007F00099001D305A02031DF12B0330DB002E300F
:100800000C1E002C9900DB0BFF2B39300C1E062C24
:10081000990029300C1E0A2C99000130DE00B92104
:100820007808D90059080F39003A0319332C013AD6
:100830000319332C033A03193A2C013A0319412CBA
:10084000073A0319482C013A03194F2C033A0319AC
:10085000552C013A03195B2C0F3A0319612C013A0C
:100860000319682C6F2CDD01DC010430DB00B03093
:10087000DA00762CDD01DC010930DB006030DA00C3
:10088000762CDD01DC011230DB00C030DA00762C82
:10089000DD01DC012530DB008030DA00762CDD0163
:1008A000DC014B30DB00DA01762CDD01DC01963017
:1008B000DB00DA01762CDD01DC01E130DB00DA015E
:1008C000762CDD010130DC00C230DB00DA01762C51
:1008D000DD010330DC008430DB00DA01762CDD0141
:1008E0000130DC00C230DB00DA01762C20300C1E37
:1008F000772C9900413084005D08E1005C08E0003D
:100900005B08DF005A08DE00292A0430DE005E089A
:100910003F20DE0AF70077080C1E8C2C9900093066
:100920005E02031D872C0430DE00B9217808D70051
:10093000D7080319A92CD9015908C220D90AF700F0
:1009400077080C1EA12C990028305902031D9C2CFD
:10095000B62CD9015908EF20D90AF70077080C1EE8
:10096000AF2C990027305902031DAA2C5F2D3208A5
:10097000063C0319BC2C512D2B30D9008722780856
:10098000D7002D30D90087227808D8005708D90021
:100990005808DA00F22257300C1ECC2C99000D308A
:1009A0000C1ED02C99005F2D3208043C0319D92C61
:1009B000512D2B30D90087227808D7005708DE0048
:1009C000B9217808D80052300C1EE42C9900580840
:1009D000DA003730DB00C4210D300C1EED2C9900FD
:1009E0005F2D3208033C0319F62C512D3030AA003C
:1009F0002A30D90087227808D700D9015708DA00B1
:100A0000F2224D300C1E022D99000D300C1E062DC9
:100A100099005F2D3208033C03190F2D512D303002
:100A2000AA002A30D90087227808D7000130D900DF
:100A30005708DA00F22242300C1E1C2D99000D30AE
:100A40000C1E202D99005F2D3208033C0319292D1F
:100A5000512D3030AA002A30D90087227808D700DB
:100A60000430D9005708DA00F22253300C1E362D1C
:100A700099000D300C1E3A2D99005F2DD9015908AF
:100A80001E21D90AF70077080C1E442D9900053065
:100A90005902031D3F2D6430D9000C230130D600CC
:100AA0005F2DD90159082821D90AF70077080C1EB3
:100AB000572D990005305902031D522D5F2DA901B4
:100AC000B201202BEE2E83168C1001308312CC0045
:100AD000CD0105140130DE00B9217808DA005A088A
:100AE0000F39003A0319902D013A0319902D033A5A
:100AF00003199B2D013A0319A52D073A0319AF2DB0
:100B0000013A0319B92D033A0319C32D013A031908
:100B1000CC2D0F3A0319D52D013A0319DE2DE72DFF
:100B2000BF30831699002230980001308312DC0018
:100B30005430DB00F02D5F3083169900223098008E
:100B40008312DC012930DB00F02D2F308316990051
:100B5000223098008312DC011230DB00F02D1730B8
:100B600083169900223098008312DC010730DB00E5
:100B7000F02D0B3083169900223098008312DC018F
:100B80000130DB00F02D05308316990022309800EB
:100B90008312DC01DB01F02D033083169900223033
:100BA00098008312DC01DB01F02D013083169900DF
:100BB000223098008312DC01DB01F02D0030831617
:100BC0009900223098008312DC01DB01F02D013006
:100BD00083169900223098008312DC01DB01F02D8E
:100BE0005B08F800D7017808D600CD0803190A2E53
:100BF000D901D80159085702031C082E031D042EE1
:100C0000560858020318082ED80A0319D90AFA2DD3
:100C10000514CD01F52DF72E0F08FA000E08F70088
:100C20000F087A02031D0C2E7708D7007A08D80027
:100C30008F018E0158085102031C322E031D242EF1
:100C4000500857020318322E5808D1005708D00018
:100C5000500DD200510DD300D20DD30DD20DD30DB6
:100C6000F830D205003483168C128C1083120B12CC
:100C70000514FF30D100D000D300D200061C412E55
:100C80003E2E05108F018E01FF30D100D000D6011D
:100C9000D608031D7B2E06184E2E4B2E0C26061C46
:100CA000762E0F08FA000E08F7000F087A02031DCF
:100CB000512E7708D7007A08D80053085802031C31
:100CC0006C2E031D672E5708520203186C2E051454
:100CD0000130F8006F2E6F2E0030F8006F2EF808EC
:100CE0000319752E0130D600762E4F2ED608031D1F
:100CF0007A2E0C26482E3E2EF92E84011F308305B5
:100D000007309F00173083169900223098009030EA
:100D100083129800D401853090000030F800063826
:100D20009200E73083169200073083129F008316EB
:100D300005080B30F700F70B9B2E00000000831214
:100D40001F080C1383169F012430650007306600CE
:100D5000831205148514B201A901CC01CF01CE0183
:100D60001730831699002230980001138C168C14CA
:100D700083120B16C0308B040430DE00B921F80852
:100D80000319CF2ED60156083221D60AF70077086C
:100D90000C1EC82E99002A305602031DC32E4F0880
:100DA0000B3C031CEE2E031DD92E4E08B73C031C32
:100DB000EE2E2908203C031DED2EB201A901D6011B
:100DC00056086121D60AF70077080C1EE52E990017
:100DD0001A305602031DE02E1F2BCF2EDE01B92143
:100DE0007808D5005508023C031DF82E632DF92E16
:100DF000332ED60156088021D60AF70077080C1E3C
:100E0000FF2E990013305602031DFA2E0430D6002F
:0E0E1000FA30D9000C23D60B082FF92E630000
:02400E00621F2F
:00000001FF
;PIC16F628A
