:10000000250066002E0C06008605C20C0200820C3C
:1000100029000D0C2800040026072509660713098E
:10002000460786040B0A86050E0C0600A605FF0C83
:100030002A0004002607210A6607170AEA02190A9D
:10004000220A25092E0C0600000861000605860418
:100050000E0C0600A604A802040026072C0A810242
:1000600061002B00880003073C0A0B0228002900CE
:10007000A90269036903690304002607440A01020F
:1000800089000307530A3C0A810261002B008800A3
:1000900003072C0A0B02280004002900A9026903A7
:1000A000690369032C0A06042E0C06008605000865
:021FFE00E60FEC
:00000001FF
