:040000008A01202829
:020008005C2C6E
:10004000831285018601870188018901831610309A
:100050008500FF308600FF308800D03087000730F1
:10006000890092018312850186018701AA01A701F7
:10007000A501A401A301B501D101BD01FA01E5016A
:10008000E601E701A901AB01F001F101F201F30181
:10009000F401F501F601F701F801F901FA01313037
:1000A0009400F8308F00CC308E0001309000950124
:1000B0000C309700910104309200272383168C1690
:1000C0000C1420309800EF308100831281019030B1
:1000D00098000514851485168515051164000130F6
:1000E000A700071487104030D000BF0002308623DD
:1000F000B60083168600831203308623B70083166A
:10010000880083121423063086235E06860007309B
:1001100086235E0688000A308623F1000930862394
:10012000F0000C308623F3000B308623F20073239B
:100130000608E0000808E1000108E2007A08E30090
:100140001A080C108C10E0308B0073230515A201E7
:1001500022080025003A0319B0285123A20AA82832
:1001600064002723051151080D3A0319B828B02857
:10017000D101AE01B0014008B823AE00AE0E410877
:10018000B823AE042D082E060319CA282E08FF3AFC
:10019000031DED2A4208B823B000B00E4308B8236F
:1001A000B0043F08E40056304406031DE5284630FD
:1001B0006406031DE82AF1225630512333305123BF
:1001C000303051230D305123ED2A49304406031DB0
:1001D0000D2946306406031DE82AEF20ED2AF1229E
:1001E0004930512306085E06F039B300330E30253E
:1001F000512306085E060F393025512308085E0694
:10020000F039B300330E3025512308085E060F394C
:10021000302551230D30512308004F304406031D73
:100220002D294A306406031DE82A4508B823B30087
:10023000B30E4608B82333045E0686004708B82389
:10024000B300B30E4808B82333045E068800F122D9
:100250004F3051230D305123ED2A51304406031DF8
:100260003B2947306406031DE82ABD014508B82331
:10027000B4004A21ED2A55304406031D6229473057
:100280006406031DE82A0130BD004508B823B40008
:100290004A21ED2A5823F122BD08031D512951306E
:1002A0005229553051233408302551233A0830253E
:1002B00051233B08302551233C08302551230D3074
:1002C000512308004C304406031D90294A3064062F
:1002D000031DE82A30304506031D7A294608B82355
:1002E000F0004708B823B300B30E4808B82333041E
:1002F000F100892931304506031DE82A4608B82354
:10030000F2004708B823B300B30E4808B8233304FB
:10031000F3007323F1224C3051230D305123ED2A89
:100320004E304406031DD22946306406031DE82AD8
:100330009A21ED2AF1224E3051238B130108F70048
:100340007A08F6007808F4007908F5008B1774082D
:10035000F039B300330E3025512374080F3930259E
:1003600051237508F039B300330E30255123750839
:100370000F39302551237608F039B300330E30257C
:10038000512376080F39302551237708F039B3000F
:10039000330E3025512377080F39302551230D3086
:1003A000512308004D304406031DE72946306406FA
:1003B000031DE82A8B138101FA01F801F9010B11E1
:1003C0008B17F1224D3051230D305123ED2A54303B
:1003D0004406031D132A4A306406031DE82A450813
:1003E000B823B300B30E4608B8233304B60083160F
:1003F000860083124708B823B300B30E4808B82319
:100400003304B7008316880083120230A800360830
:1004100092230330A80037089223F122543051234D
:100420000D305123ED2A47304406031D352A46304E
:100430006406031DE82AF122473051233608F039BB
:10044000B300330E3025512336080F3930255123A0
:100450003708F039B300330E3025512337080F39F0
:10046000302551230D305123ED2A50304406031D11
:100470006C2A4B306406031DE82A4508B823B300F4
:10048000B30E4608B8233304E700831692008312A4
:100490004708B8230339B300B30E4808B823B304A0
:1004A0000310B30D330DE6004908B8230C39B3002F
:1004B0000310B30C330C66049500E6004908B8231A
:1004C0000339E500B300330E0C389700F1225030A9
:1004D00051230D305123ED2A57304406031D8B2A3A
:1004E0004A306406031DE82A4508B823B300B30E5A
:1004F0004608B8233304A8004708B823B300B30E56
:100500004808B82333049223F122573051230D3089
:1005100051231423ED2A52304406031DAD2A4830DE
:100520006406031DE82A4508B823B300B30E460845
:10053000B82333048623B300A800F122523051239C
:100540003308F039B300330E3025512328080F3912
:10055000302551230D305123ED2A4A304406031D26
:10056000BC2A46306406031DE82AB501F1224A3050
:1005700051230D305123ED2A59304406031DC22A60
:100580000000ED2A5A304406031DD02A4630640686
:10059000031DE82AF1225A3051230D305123CF2A6E
:1005A0004B304406031DE82A46306406031DE82A42
:1005B000F1224B3051233508F039B300330E30258A
:1005C000512335080F39302551230D305123ED2AA1
:1005D000F122583051230D30512305115008BF002E
:1005E000B028071087140130A700A501B108031D2A
:1005F000FE2AAF012F08043C0318FA2A051530081B
:10060000F039AC002C0E3025512330080F3930253D
:1006100051232D08F039AC002C0E302551232D0824
:100620000F3930255123080000308623AD000130FA
:100630008623AE0008308623DE000D308623FF3986
:10064000031D242B3130252B3230AB000800091854
:100650002C2B0130B1002E2B0030B10009080639D7
:1006600029060319502B09080639A900003A031D71
:100670003C2B1730AA004C2B2908023A031D432BB0
:100680000B30AA004C2B2908043A031D4A2B0330D7
:10069000AA004C2B0130AA002A0883169900831265
:1006A0000800990083166400981C532B83120800DD
:1006B0002B08940005100F30B40510303404B1231A
:1006C000BD08031D652B6030662BE030B1230F3968
:1006D000BA00B123B3000F39BC00F030B305330EBC
:1006E000BB00051408003130940085127108F03900
:1006F0007004B300330EB12371080F39B300330E09
:100700007204B1237308B12385160800B300313099
:10071000940085100330B1233308B123FF30B12397
:1007200085140800B3003130940085100630B123E1
:1007300085140000000085100230B1232808B12381
:100740003308B12385140000000085100530B12363
:10075000FF30B123851400000000B3003318A52B2F
:10076000080093008316141CB32B8312130808008F
:10077000AC00303A031900342C08313A0319013423
:100780002C08323A031902342C08333A0319033483
:100790002C08343A031904342C08353A031905346B
:1007A0002C08363A031906342C08363A0319063455
:1007B0002C08373A031907342C08383A031908343F
:1007C0002C08393A031909342C08413A03190A3420
:1007D0002C08613A03190A342C08423A03190B34E5
:1007E0002C08623A03190B342C08433A03190C34D1
:1007F0002C08633A03190C342C08443A03190D34BD
:100800002C08643A03190D342C08453A03190E34A8
:100810002C08653A03190E342C08463A03190F3494
:100820002C08663A03190F340034F1308F008930F8
:100830008E000C10AF0AA40F342CA30AA7080319CA
:100840002A2CA50A2508023A031D342C071087100C
:10085000A701342CA50A2508073A031D342C0714D8
:1008600087100130A700A501080018193D2C981821
:100870003A2C412C181200001816B50A1A08D1019A
:1008800008001A08D1000A305106031908003F0871
:1008900084005108800007148710A5010130A700CB
:1008A0003F083F0A4F39BF0008000B11FA0F5B2CBD
:1008B000F90F5B2CF80F0800A00003088312A100B9
:1008C0000C1815248C1A35240B1955242108830083
:0608D000A00E200E09003D
:100A00000A148A100A1582070D3449346E3474347E
:100A10006534673472346934743479342034493439
:100A20006E3473347434723475346D3465346E34AA
:100A30007434733420343434383435344D343334EE
:100A40003034303420344D346F34643475346C3485
:100A500065342034763433342E3430340D3400345D
:100A60000A148A100A150F398207303431343234AF
:100A7000333434343534363437343834393441341B
:0A0A80004234433444344534463414
:02400E00C600EA
:00000001FF
