:040000008A01222827
:02000800E42AE8
:100020000F39820730343134323433343434353498
:100030003634373438343934413442344334443438
:100040004534463483128501860187018801890180
:10005000831630308500FF308600FF308800D030B6
:1000600087000730890092018312AA01A701A50128
:10007000A301A401AF01B301D101D801E5213130C1
:100080009400F1308F0089308E000130900095018E
:100090000C30970091010530920083168C160C14D9
:1000A00020309800EF308100831281019030980059
:1000B00005110514851464000130A700071487108A
:1000C0004030D000BF00DE21FF30B000AB01A60100
:1000D000221C6E280130A60055306F28AA308316E6
:1000E000860088008312FF30860088001A080C10F2
:1000F0008C10E0308B002408043EB200640005112F
:1001000051080D3A0319BA28A6080319B128AB08FB
:100110000319B1283E08AE00BC2153301022060856
:100120003006F039B100310E1020102206083006DA
:100130000F391020102208083006F039B100310EB6
:1001400010201022080830060F39102010220D3020
:10015000102205112308083EAF0023082F02031DBB
:10016000AD28E52124083202031D7E28FF308600D9
:1001700088007E28D101AD01AE0140084522AD00C6
:10018000AD0E41084522AD0422082D060319CC28E6
:100190002D08FF3A031DB82942084522AE00AE0ED5
:1001A00043084522AE043F08E40056304406031DD0
:1001B000E72846306406031DB329BC2156301022BF
:1001C00032301022353010220D301022B829533031
:1001D0004406031D25294A306406031DB32945083A
:1001E0004522B100B10E4608452231043006860092
:1001F00047084522B100B10E4808452231043006B7
:1002000088002408043EB200A608031DB829C321B3
:100210005330102206083006F039B100310E10209C
:100220001022060830060F39102010220808300668
:10023000F039B100310E10201022080830060F39B5
:10024000102010220D301022B82957304406031D0B
:100250004C294A306406031DB32945084522B100E4
:100260000310B10DB10DB10DB10D46084522310499
:10027000A80047084522B1000310B10DB10DB10D22
:10028000B10D4808452231042322BC2157301022E9
:100290000D301022DE21B82952304406031D752985
:1002A00048306406031DB32945084522B1000310F8
:1002B000B10DB10DB10DB10D460845223104172223
:1002C000B100BC21523010223108F039A8000310CF
:1002D000A80CA80CA80C280C1020102231080F39EB
:1002E000102010220D301022B8294A304406031D78
:1002F000842946306406031DB329B301BC214A306A
:1003000010220D301022B8295A304406031D9229BC
:1003100046306406031DB329BC215A3010220D302B
:100320001022912958304406031D9729B8294B30D3
:100330004406031DB32946306406031DB329BC21BE
:100340004B3010223308F039B1000310B10CB10C5E
:10035000B10C310C1020102233080F39102010225C
:100360000D301022B829BC21583010220D30102237
:1003700005115008BF007E282308023EAF00230865
:100380002F02031DBF29071087140130A700A50104
:1003900005152E08F039AC002C0E102010222E0866
:1003A0000F39102010222208F039AC002C0E10203A
:1003B000102222080F3910201022080000301722C6
:1003C000A20001301722BE00080005082039A9004C
:1003D00009080739A904A91EF0290130AB00F12949
:1003E000AB0129080639003A031DF9291730AA0084
:1003F0000B2A29080639023A031D012A0B30AA00EC
:100400000B2A29080639043A031D092A0230AA00DA
:100410000B2A0130AA002A088316990083120800CB
:10042000990083166400981C122A83120800B100F8
:1004300030309400851003303E2231083E22FF30D8
:100440003E2285140800B10030309400851006303B
:100450003E2285140000851002303E2228083E22EC
:1004600031083E2285140000851005303E22FF3001
:100470003E22B1003118342A8514080093008316F7
:10048000141C402A831213080800AC00303A0319E8
:1004900000342C08313A031901342C08323A03197C
:1004A00002342C08333A031903342C08343A031964
:1004B00004342C08353A031905342C08363A03194C
:1004C00006342C08363A031906342C08373A031937
:1004D00007342C08383A031908342C08393A031920
:1004E00009342C08413A03190A342C08613A0319DB
:1004F0000A342C08423A03190B342C08623A0319C7
:100500000B342C08433A03190C342C08633A0319B2
:100510000C342C08443A03190D342C08643A03199E
:100520000D342C08453A03190E342C08653A03198A
:100530000E342C08463A03190F342C08663A031976
:100540000F340034F1308F0089308E000C10A30F6F
:10055000C02AA40AA7080319B62AA50A2508023A40
:10056000031DC02A07108710A701C02AA50A250865
:10057000073A031DC02A071487100130A700A50100
:1005800008001819C92A9818C62ACD2A181200007E
:100590001816B30A1A08D10108001A08D1000A3047
:1005A0005106031908003F08840051088000071411
:1005B0008710A5010130A7003F083F0A4F39BF004F
:1005C00008000B11D80A0800A000030E8312A10036
:1005D0000C18A2228C1AC1220B19E122210E8300D1
:1005E000A00E200E09006F0379306932682720348D
:1005F00039313739322D303020326E096534722767
:10060000742920396E0974337532652D742E0033C8
:02400E00C600EA
:00000001FF
