:040000008A01202829
:02000800722C58
:100040008312850186018701831610308500FF30F9
:100050008600D330870092018312850186018701D3
:10006000AA01A701A501A401A301D501D401B301EF
:10007000D101D201D301FA01E501E601E701A901AD
:10008000AB01F001F101F201F301DC01DD01DB0163
:10009000F401F501F601F701F801F901FA0105157E
:1000A00005148515851431309400F8308F00CC305C
:1000B0008E000130900095010C30970091010430C2
:1000C00092001730AA0034232A08831699008C1650
:1000D0000C1420309800EF308100831281019030A1
:1000E000980064000130A70085164430D000BF009E
:1000F0000330A023B6008316860083120B23193029
:10010000A023DC001A30A023DD001030A023DB0088
:100110000730A0235E0686000A30A023F1000930D4
:10012000A023F0000C30A023F3000B30A023F2003A
:100130008D230608E0000108E2007A08E3001A08AF
:100140000C108C10E0308B008D23A20122080025BA
:10015000003A0319AE285723A20AA62864003423C4
:1001600051080D3A0319FF28D3080319DF28530853
:10017000013A031DD22806086006031DC82801089D
:100180006206031DCC287A086306031DCC28DF28ED
:100190000608E0001D21DF280108E2007A08E300DC
:1001A0009E21DF2854082302031CDF28550824025F
:1001B000031CDF288B13A301A4018B17E228D208AC
:1001C0000319AE28DC080319E6281D21DD080319F0
:1001D000EA289E21DB080319AE281030A02303393A
:1001E000D900DA0159080319AE285A08113EA02394
:1001F000B2000F30B2055521D903DA0AF228D10135
:100200003F08E40056304406031D132946306406B7
:10021000031D042B563057233330572332305723D6
:100220000D305723082B49304406031D3229463030
:100230006406031D042B1D21082B49305723303041
:1002400057233030572306085E06F039B100310ECF
:100250003025572306085E060F39302557230D3009
:10026000572308004F304406031D48294A306406CE
:10027000031D042B4708D223B100B10E4808D22336
:1002800031045E0686004F3057230D305723082B6C
:1002900055304406031D672947306406031D042BAF
:1002A0004508D223B2005521082B5F235530572330
:1002B0003208302557233A08302557233B0830258C
:1002C00057233C08302557230D30572308004C3066
:1002D0004406031D94294A306406031D042B303064
:1002E0004506031D7F294608D223F0004708D22384
:1002F000B100B10E4808D2233104F1008E2931300B
:100300004506031D042B4608D223F2004708D223DA
:10031000B100B10E4808D2233104F3008D234C30D4
:1003200057230D305723082B4E304406031DD52983
:1003300046306406031D042B9E21082B4E305723A4
:100340008B130108F7007A08F6007808F4007908A2
:10035000F5008B177408F039B100310E30255723A2
:1003600074080F39302557237508F039B100310E64
:100370003025572375080F39302557237608F03973
:10038000B100310E3025572376080F393025572319
:100390007708F039B100310E3025572377080F392F
:1003A000302557230D30572308004D304406031DD8
:1003B000E92946306406031D042B8B138101FA01E1
:1003C000F801F9010B118B174D3057230D305723CE
:1003D000082B54304406031D052A4A306406031DC9
:1003E000042B4708D223B100B10E4808D2233104B0
:1003F000B6008316860083120330A8003608AC23AB
:10040000543057230D305723082B47304406031D23
:10041000202A46306406031D042B47305723303012
:100420005723303057233608F039B100310E3025CC
:10043000572336080F39302557230D305723082B03
:1004400050304406031D562A4B306406031D042B0E
:100450004508D223B100B10E4608D2233104E7008B
:100460008316920083124708D2230339B100B10EDC
:100470004808D223B1040310B10D310DE60049083C
:10048000D2230C39B1000310B10C310C6604950075
:10049000E6004908D2230339E500B100310E0C38DB
:1004A0009700503057230D305723082B5730440600
:1004B000031D732A4A306406031D042B4508D2230A
:1004C000B100B10E4608D2233104A8004708D22358
:1004D000B100B10E4808D2233104AC235730572362
:1004E0000D305723082B52304406031D942A483000
:1004F0006406031D042B4508D223B100B10E460843
:10050000D2233104A023B100A80052305723310870
:10051000F039B100310E3025572328080F39302526
:1005200057230D305723082B4A304406031DA22AB7
:1005300046306406031D042BB3014A3057230D30A7
:100540005723082B53304406031DBA2A463064064D
:10055000031D042B0130D2001930A023DC001A3017
:10056000A023DD001030A023DB00533057230D30D3
:100570005723082B48304406031DC82A463064061A
:10058000031D042BD201483057230D305723082B6D
:1005900059304406031DCE2A0000082B5A30440669
:1005A000031DDB2A46306406031D042B5A305723F3
:1005B0000D305723DA2A3F304406031DED2A46301A
:1005C0006406031D042BA20122080025003A03192A
:1005D000EC2A5723A20AE42A082B4B304406031DB9
:1005E000042B46306406031D042B4B30572333087D
:1005F000F039B100310E3025572333080F3930253B
:1006000057230D305723082B583057230D305723CD
:100610005008BF00AE280530A023D5000430A02329
:10062000D400003A0319172B0230D300272B5508AA
:10063000003A031D1E2B0030D300272B5508013A2A
:10064000031D252B0130D300272B0230D3000830A7
:10065000A023DE000D30A023FF39031D312B3030E5
:10066000322B3230AB000800070803392906031982
:10067000562B07080339A900003A031D422B1730F7
:10068000AA00522B2908013A031D492B0B30AA005E
:10069000522B2908023A031D502B0330AA00522B7B
:1006A0000130AA002A0883169900831208009900D5
:1006B000851683166400981C5A2B831208002B0899
:1006C000940005113208B100B10E0310B10D310DC7
:1006D000CB23CB23CB230515000000000000000036
:1006E00000000000000000000000000000003208D0
:1006F000B100B10E0310B10D310D0511CB23B100C6
:100700000F39BB00F030B105310EBA00CB23F03900
:10071000B100310EBC000515080031309400851180
:100720007108F0397004B100310ECB2371080F3914
:10073000B100310E7204CB237308CB23851508005A
:10074000B1003130940005100330CB233108CB23A6
:10075000FF30CB2305140800B100313094000510A0
:100760000630CB2305140000000005100230CB2317
:100770002808CB233108CB23051400000000051006
:100780000530CB23FF30CB23051400000000B1005F
:100790003118BF2B080093008316141CCD2B831235
:1007A00013080800AC00303A031900342C08313A21
:1007B000031901342C08323A031902342C08333A55
:1007C000031903342C08343A031904342C08353A3D
:1007D000031905342C08363A031906342C08363A26
:1007E000031906342C08373A031907342C08383A11
:1007F000031908342C08393A031909342C08413AF2
:1008000003190A342C08613A03190A342C08423AB5
:1008100003190B342C08623A03190B342C08433AA1
:1008200003190C342C08633A03190C342C08443A8D
:1008300003190D342C08643A03190D342C08453A79
:1008400003190E342C08653A03190E342C08463A65
:1008500003190F342C08663A03190F340034F130B1
:100860008F0089308E000C10A40F4B2CA30AA70810
:100870000319422CA50A2508023A031D4B2C8512A8
:10088000A7014B2CA50A2508073A031D4B2C8516FA
:100890000130A700A50108001819542C9818512CF4
:1008A000582C181200001816B30A1A08D1010800B3
:1008B0001A08D1000A305106031908003F088400C5
:1008C000510880008516A5010130A7003F083F0AA6
:1008D0004F39BF0008000B11FA0F712CF90F712C62
:1008E000F80F0800A00003088312A1000C182F24A1
:1008F0008C1A4C240B196B2421088300A00E200EA7
:020900000900EC
:100A00000A148A100A1582070D3449346E3474347E
:100A10006534673472346934743479342034493439
:100A20006E3473347434723475346D3465346E34AA
:100A30007434733420343234333432344D343234F9
:100A40003034303420344D346F34643475346C3485
:100A500065342034763433342E3432340D3400345B
:100A60000A148A100A150F398207303431343234AF
:100A7000333434343534363437343834393441341B
:0A0A80004234433444344534463414
:02400E00C600EA
:00000001FF
