:040000008A01202829
:02000800072BC4
:1000400083128501860187018316003085001530F3
:100050008600D0308700E630920083128501860149
:100060008701AA01D0018001A701A801AE01AF015B
:10007000B0018514051486141730AA008F018E0173
:10008000013090009100063092002A0883169900F2
:100090000C148C148C1620309800BF308100831211
:1000A00090309800303094004030BF001A080C1097
:1000B0008C10C0308B0004303921003A031D6928B0
:1000C000A90129082A24003A031969282B21A90A21
:1000D000612864005008203A031D7128D001602176
:1000E0007A2828080C3C0318692804303921003A82
:1000F000031D8328A90129086F24003A03198328C6
:100100002B21A90A7B2883168C10831200303921F9
:10011000AD0001303921AF00B0001524AA002A0833
:100120008316990083122D08003A0319C8282D0858
:10013000013A0319C8282D08023A03190929C828C9
:1001400083168C14831264000618A3288B130510E1
:100150008E018F012E106400061CAB280F08A3002F
:100160000E08A400A7018B172E18C4282308250207
:10017000031CC42824082602031CC4282308A50045
:100180002408A6001721B0006400061CC428A32878
:1001900083168C128C100C10831264000618CD2864
:1001A00005108E018F01FF30A500A6006400061C1B
:1001B000D628E9200618DE28E920D628640032086F
:1001C0000F02031CDA2833080E02031CDA28051478
:1001D000CD280E08A4008E010F08A3008F0125086A
:1001E0002302031CF928031D0829260824020318EA
:1001F00008292308A500B2002408A600B3000310B4
:10020000B30DB20D0310B30DB20D0310B30DB20D4B
:10021000080083168C108312640006180C29051040
:100220008E018F012E106400061C13290C2923084F
:10023000031D2A292408183C031808342408243CE8
:10024000031807342408483C031806342408903C5B
:10025000031805340434640099008316981C2E2971
:100260008312080093008316141C34298312130888
:100270000800B1003030940085100330322131087D
:100280003221FF30322185140800B1003030940053
:10029000851006303221851400008510023032218D
:1002A00036083221310832218514000085100530CE
:1002B0003221FF303221B10031185629851408004F
:1002C000A90129085924003A031969292B21A90AEF
:1002D00061294030BF00640050080D3A031D6B29AE
:1002E000D0013F08BE003F304006031DC629423002
:1002F0003E06031D532AA90129082A24003A03199E
:1003000084292B21A90A7C2953302B212F302B2122
:100310004E302B2120302B21103039216422113016
:1003200039216422123039216422133039216422A8
:100330000D302B214D302B216F302B2164302B21A0
:1003400065302B2120302B210030392164220D30E3
:100350002B21A90129089224003A0319B2292B2143
:10036000A90AAA290130392164220D302B21A901C3
:1003700029087D24003A0319C0292B21A90AB8298C
:100380000430392164220D302B215D2A573040067C
:10039000031DEB2946303E06031D532A41087322F4
:1003A000B1000310B10DB10DB10DB10D42087322B2
:1003B0003104B60043087322B1000310B10DB10D32
:1003C000B10DB10D440873223104452157302B2162
:1003D0000D302B215D2A4D304006031DFF2943308F
:1003E0003E06031D532A41087322B1000030B600B7
:1003F000310845214D302B210D302B215D2A423013
:100400004006031D132A43303E06031D532A4108AC
:100410007322B1000130B6003108452142302B2152
:100420000D302B215D2A53304006031D272A43300F
:100430003E06031D532A41087322B1000430B60062
:100440003108452153302B210D302B215D2A5230AC
:100450004006031D4F2A44303E06031D532A41081F
:100460007322B1000310B10DB10DB10DB10D4208F1
:10047000732231043921B10052302B213108F03977
:10048000B6000310B60CB60CB60C360C00242B21AB
:1004900031080F3900242B210D302B215D2A5130DA
:1004A00040060319602A45302B2172302B2172300F
:1004B0002B2121302B210D302B214030BF006B2907
:1004C0004030BF001A080800B100F039AC0003103A
:1004D000AC0CAC0CAC0C2C0C00242B2131080F39CB
:1004E00000242B210800AC00303A031900342C08FA
:1004F000313A031901342C08323A031902342C081A
:10050000333A031903342C08343A031904342C0801
:10051000353A031905342C08363A031906342C08E9
:10052000363A031906342C08373A031907342C08D5
:10053000383A031908342C08393A031909342C08BD
:10054000413A03190A342C08613A03190A342C0879
:10055000423A03190B342C08623A03190B342C0865
:10056000433A03190C342C08633A03190C342C0851
:10057000443A03190D342C08643A03190D342C083D
:10058000453A03190E342C08653A03190E342C0829
:10059000463A03190F342C08663A03190F34003415
:1005A00005142E140C100800A70A031DE42AA80A3B
:1005B000FF30A500A6002F0830060319E42A3008F2
:1005C000AF001524AA0099008C10080006080B1033
:1005D00008000510AE148F018E012E108B1008003C
:1005E00005141819F92A9818F62AFC2A181200007E
:1005F00018161A08D00108001A08D0003F08840015
:10060000500880003F083F0A4F39BF000800A00093
:1006100003088312A1000C18D0228C18D4228C1A43
:10062000F0220B18E62221088300A00E200E0900FC
:100800000A108A100A150F39820730343134323415
:10081000333434343534363437343834393441347D
:10082000423443344434453446340A108A100A159D
:100830000F398207BF34BF345F342F3417340B3481
:1008400005340234013400340134013401340134FC
:10085000013401340A108A100A1582070D34493414
:100860006E34743465346734723469347434793472
:10087000203449346E3473347434723475346D34C6
:1008800065346E3474347334203458345034203426
:1008900043346F346E347634653472347434653472
:1008A00072342034763431342E34303431340D34D3
:1008B00000340A108A100A158207503472346F34DB
:1008C0006734723461346D346D3469346E34673436
:1008D00020346D346F34643465340D3400340A10C0
:1008E0008A100A158207523475346E3420346D3400
:1008F0006F34643465340D3400340A108A100A15DC
:100900008207533469346C3465346E347434203463
:1009100050346F3477346534723420345534703445
:10092000203400340A108A100A15820744346534D2
:100930006634613475346C34743420344234613438
:080940007534643420340034E6
:02400E00C600EA
:00000001FF
